{
	"contracts/EthWrapparound.sol": {
		"MyUint": {
			"abi": [
				{
					"inputs": [],
					"name": "decrementUint",
					"outputs": [],
					"stateMutability": "nonpayable",
					"type": "function"
				},
				{
					"inputs": [],
					"name": "incrementInt",
					"outputs": [],
					"stateMutability": "nonpayable",
					"type": "function"
				},
				{
					"inputs": [],
					"name": "myInt",
					"outputs": [
						{
							"internalType": "int256",
							"name": "",
							"type": "int256"
						}
					],
					"stateMutability": "view",
					"type": "function"
				},
				{
					"inputs": [],
					"name": "myUint",
					"outputs": [
						{
							"internalType": "uint256",
							"name": "",
							"type": "uint256"
						}
					],
					"stateMutability": "view",
					"type": "function"
				},
				{
					"inputs": [],
					"name": "myUint8",
					"outputs": [
						{
							"internalType": "uint8",
							"name": "",
							"type": "uint8"
						}
					],
					"stateMutability": "view",
					"type": "function"
				},
				{
					"inputs": [
						{
							"internalType": "int256",
							"name": "_myint",
							"type": "int256"
						}
					],
					"name": "setMyInt",
					"outputs": [],
					"stateMutability": "nonpayable",
					"type": "function"
				},
				{
					"inputs": [
						{
							"internalType": "uint256",
							"name": "_myUint",
							"type": "uint256"
						}
					],
					"name": "setMyUint",
					"outputs": [],
					"stateMutability": "nonpayable",
					"type": "function"
				},
				{
					"inputs": [
						{
							"internalType": "uint8",
							"name": "_myUint8",
							"type": "uint8"
						}
					],
					"name": "setMyUint8",
					"outputs": [],
					"stateMutability": "nonpayable",
					"type": "function"
				}
			],
			"devdoc": {
				"kind": "dev",
				"methods": {},
				"version": 1
			},
			"evm": {
				"assembly": "    /* \"contracts/EthWrapparound.sol\":58:711  contract MyUint {... */\n  mstore(0x40, 0x80)\n    /* \"contracts/EthWrapparound.sol\":132:137  83756 */\n  0x01472c\n    /* \"contracts/EthWrapparound.sol\":108:137  uint256 public myUint = 83756 */\n  0x00\n  sstore\n    /* \"contracts/EthWrapparound.sol\":58:711  contract MyUint {... */\n  callvalue\n  dup1\n  iszero\n  tag_1\n  jumpi\n  0x00\n  dup1\n  revert\ntag_1:\n  pop\n  dataSize(sub_0)\n  dup1\n  dataOffset(sub_0)\n  0x00\n  codecopy\n  0x00\n  return\nstop\n\nsub_0: assembly {\n        /* \"contracts/EthWrapparound.sol\":58:711  contract MyUint {... */\n      mstore(0x40, 0x80)\n      callvalue\n      dup1\n      iszero\n      tag_1\n      jumpi\n      0x00\n      dup1\n      revert\n    tag_1:\n      pop\n      jumpi(tag_2, lt(calldatasize, 0x04))\n      shr(0xe0, calldataload(0x00))\n      dup1\n      0xda50eaee\n      gt\n      tag_11\n      jumpi\n      dup1\n      0xda50eaee\n      eq\n      tag_7\n      jumpi\n      dup1\n      0xe2a4b2af\n      eq\n      tag_8\n      jumpi\n      dup1\n      0xe492fd84\n      eq\n      tag_9\n      jumpi\n      dup1\n      0xf102a71d\n      eq\n      tag_10\n      jumpi\n      jump(tag_2)\n    tag_11:\n      dup1\n      0x06540f7e\n      eq\n      tag_3\n      jumpi\n      dup1\n      0x2cb777a6\n      eq\n      tag_4\n      jumpi\n      dup1\n      0x4f25eada\n      eq\n      tag_5\n      jumpi\n      dup1\n      0x5f6633bf\n      eq\n      tag_6\n      jumpi\n    tag_2:\n      0x00\n      dup1\n      revert\n        /* \"contracts/EthWrapparound.sol\":108:137  uint256 public myUint = 83756 */\n    tag_3:\n      tag_12\n      tag_13\n      jump\t// in\n    tag_12:\n      mload(0x40)\n      tag_14\n      swap2\n      swap1\n      tag_15\n      jump\t// in\n    tag_14:\n      mload(0x40)\n      dup1\n      swap2\n      sub\n      swap1\n      return\n        /* \"contracts/EthWrapparound.sol\":202:218  int public myInt */\n    tag_4:\n      tag_16\n      tag_17\n      jump\t// in\n    tag_16:\n      mload(0x40)\n      tag_18\n      swap2\n      swap1\n      tag_19\n      jump\t// in\n    tag_18:\n      mload(0x40)\n      dup1\n      swap2\n      sub\n      swap1\n      return\n        /* \"contracts/EthWrapparound.sol\":326:404  function setMyUint8(uint8 _myUint8) public {... */\n    tag_5:\n      tag_20\n      0x04\n      dup1\n      calldatasize\n      sub\n      dup2\n      add\n      swap1\n      tag_21\n      swap2\n      swap1\n      tag_22\n      jump\t// in\n    tag_21:\n      tag_23\n      jump\t// in\n    tag_20:\n      stop\n        /* \"contracts/EthWrapparound.sol\":442:510  function setMyInt(int _myint) public {... */\n    tag_6:\n      tag_24\n      0x04\n      dup1\n      calldatasize\n      sub\n      dup2\n      add\n      swap1\n      tag_25\n      swap2\n      swap1\n      tag_26\n      jump\t// in\n    tag_25:\n      tag_27\n      jump\t// in\n    tag_24:\n      stop\n        /* \"contracts/EthWrapparound.sol\":650:708  function decrementUint() public {... */\n    tag_7:\n      tag_28\n      tag_29\n      jump\t// in\n    tag_28:\n      stop\n        /* \"contracts/EthWrapparound.sol\":144:164  uint8 public myUint8 */\n    tag_8:\n      tag_30\n      tag_31\n      jump\t// in\n    tag_30:\n      mload(0x40)\n      tag_32\n      swap2\n      swap1\n      tag_33\n      jump\t// in\n    tag_32:\n      mload(0x40)\n      dup1\n      swap2\n      sub\n      swap1\n      return\n        /* \"contracts/EthWrapparound.sol\":247:320  function setMyUint(uint _myUint) public {... */\n    tag_9:\n      tag_34\n      0x04\n      dup1\n      calldatasize\n      sub\n      dup2\n      add\n      swap1\n      tag_35\n      swap2\n      swap1\n      tag_36\n      jump\t// in\n    tag_35:\n      tag_37\n      jump\t// in\n    tag_34:\n      stop\n        /* \"contracts/EthWrapparound.sol\":547:612  function incrementInt() public {... */\n    tag_10:\n      tag_38\n      tag_39\n      jump\t// in\n    tag_38:\n      stop\n        /* \"contracts/EthWrapparound.sol\":108:137  uint256 public myUint = 83756 */\n    tag_13:\n      sload(0x00)\n      dup2\n      jump\t// out\n        /* \"contracts/EthWrapparound.sol\":202:218  int public myInt */\n    tag_17:\n      sload(0x02)\n      dup2\n      jump\t// out\n        /* \"contracts/EthWrapparound.sol\":326:404  function setMyUint8(uint8 _myUint8) public {... */\n    tag_23:\n        /* \"contracts/EthWrapparound.sol\":389:397  _myUint8 */\n      dup1\n        /* \"contracts/EthWrapparound.sol\":379:386  myUint8 */\n      0x01\n      0x00\n        /* \"contracts/EthWrapparound.sol\":379:397  myUint8 = _myUint8 */\n      0x0100\n      exp\n      dup2\n      sload\n      dup2\n      0xff\n      mul\n      not\n      and\n      swap1\n      dup4\n      0xff\n      and\n      mul\n      or\n      swap1\n      sstore\n      pop\n        /* \"contracts/EthWrapparound.sol\":326:404  function setMyUint8(uint8 _myUint8) public {... */\n      pop\n      jump\t// out\n        /* \"contracts/EthWrapparound.sol\":442:510  function setMyInt(int _myint) public {... */\n    tag_27:\n        /* \"contracts/EthWrapparound.sol\":497:503  _myint */\n      dup1\n        /* \"contracts/EthWrapparound.sol\":489:494  myInt */\n      0x02\n        /* \"contracts/EthWrapparound.sol\":489:503  myInt = _myint */\n      dup2\n      swap1\n      sstore\n      pop\n        /* \"contracts/EthWrapparound.sol\":442:510  function setMyInt(int _myint) public {... */\n      pop\n      jump\t// out\n        /* \"contracts/EthWrapparound.sol\":650:708  function decrementUint() public {... */\n    tag_29:\n        /* \"contracts/EthWrapparound.sol\":692:699  myUint8 */\n      0x01\n      0x00\n        /* \"contracts/EthWrapparound.sol\":692:701  myUint8-- */\n      dup2\n      dup2\n      swap1\n      sload\n      swap1\n      0x0100\n      exp\n      swap1\n      div\n      0xff\n      and\n      dup1\n      swap3\n      swap2\n      swap1\n      tag_43\n      swap1\n      tag_44\n      jump\t// in\n    tag_43:\n      swap2\n      swap1\n      0x0100\n      exp\n      dup2\n      sload\n      dup2\n      0xff\n      mul\n      not\n      and\n      swap1\n      dup4\n      0xff\n      and\n      mul\n      or\n      swap1\n      sstore\n      pop\n      pop\n        /* \"contracts/EthWrapparound.sol\":650:708  function decrementUint() public {... */\n      jump\t// out\n        /* \"contracts/EthWrapparound.sol\":144:164  uint8 public myUint8 */\n    tag_31:\n      0x01\n      0x00\n      swap1\n      sload\n      swap1\n      0x0100\n      exp\n      swap1\n      div\n      0xff\n      and\n      dup2\n      jump\t// out\n        /* \"contracts/EthWrapparound.sol\":247:320  function setMyUint(uint _myUint) public {... */\n    tag_37:\n        /* \"contracts/EthWrapparound.sol\":306:313  _myUint */\n      dup1\n        /* \"contracts/EthWrapparound.sol\":297:303  myUint */\n      0x00\n        /* \"contracts/EthWrapparound.sol\":297:313  myUint = _myUint */\n      dup2\n      swap1\n      sstore\n      pop\n        /* \"contracts/EthWrapparound.sol\":247:320  function setMyUint(uint _myUint) public {... */\n      pop\n      jump\t// out\n        /* \"contracts/EthWrapparound.sol\":547:612  function incrementInt() public {... */\n    tag_39:\n        /* \"contracts/EthWrapparound.sol\":585:590  myInt */\n      0x02\n      0x00\n        /* \"contracts/EthWrapparound.sol\":585:592  myInt++ */\n      dup2\n      sload\n      dup1\n      swap3\n      swap2\n      swap1\n      tag_47\n      swap1\n      tag_48\n      jump\t// in\n    tag_47:\n      swap2\n      swap1\n      pop\n      sstore\n      pop\n        /* \"contracts/EthWrapparound.sol\":547:612  function incrementInt() public {... */\n      jump\t// out\n        /* \"#utility.yul\":7:84   */\n    tag_49:\n        /* \"#utility.yul\":44:51   */\n      0x00\n        /* \"#utility.yul\":73:78   */\n      dup2\n        /* \"#utility.yul\":62:78   */\n      swap1\n      pop\n        /* \"#utility.yul\":7:84   */\n      swap2\n      swap1\n      pop\n      jump\t// out\n        /* \"#utility.yul\":90:208   */\n    tag_50:\n        /* \"#utility.yul\":177:201   */\n      tag_68\n        /* \"#utility.yul\":195:200   */\n      dup2\n        /* \"#utility.yul\":177:201   */\n      tag_49\n      jump\t// in\n    tag_68:\n        /* \"#utility.yul\":172:175   */\n      dup3\n        /* \"#utility.yul\":165:202   */\n      mstore\n        /* \"#utility.yul\":90:208   */\n      pop\n      pop\n      jump\t// out\n        /* \"#utility.yul\":214:436   */\n    tag_15:\n        /* \"#utility.yul\":307:311   */\n      0x00\n        /* \"#utility.yul\":345:347   */\n      0x20\n        /* \"#utility.yul\":334:343   */\n      dup3\n        /* \"#utility.yul\":330:348   */\n      add\n        /* \"#utility.yul\":322:348   */\n      swap1\n      pop\n        /* \"#utility.yul\":358:429   */\n      tag_70\n        /* \"#utility.yul\":426:427   */\n      0x00\n        /* \"#utility.yul\":415:424   */\n      dup4\n        /* \"#utility.yul\":411:428   */\n      add\n        /* \"#utility.yul\":402:408   */\n      dup5\n        /* \"#utility.yul\":358:429   */\n      tag_50\n      jump\t// in\n    tag_70:\n        /* \"#utility.yul\":214:436   */\n      swap3\n      swap2\n      pop\n      pop\n      jump\t// out\n        /* \"#utility.yul\":442:518   */\n    tag_51:\n        /* \"#utility.yul\":478:485   */\n      0x00\n        /* \"#utility.yul\":507:512   */\n      dup2\n        /* \"#utility.yul\":496:512   */\n      swap1\n      pop\n        /* \"#utility.yul\":442:518   */\n      swap2\n      swap1\n      pop\n      jump\t// out\n        /* \"#utility.yul\":524:639   */\n    tag_52:\n        /* \"#utility.yul\":609:632   */\n      tag_73\n        /* \"#utility.yul\":626:631   */\n      dup2\n        /* \"#utility.yul\":609:632   */\n      tag_51\n      jump\t// in\n    tag_73:\n        /* \"#utility.yul\":604:607   */\n      dup3\n        /* \"#utility.yul\":597:633   */\n      mstore\n        /* \"#utility.yul\":524:639   */\n      pop\n      pop\n      jump\t// out\n        /* \"#utility.yul\":645:863   */\n    tag_19:\n        /* \"#utility.yul\":736:740   */\n      0x00\n        /* \"#utility.yul\":774:776   */\n      0x20\n        /* \"#utility.yul\":763:772   */\n      dup3\n        /* \"#utility.yul\":759:777   */\n      add\n        /* \"#utility.yul\":751:777   */\n      swap1\n      pop\n        /* \"#utility.yul\":787:856   */\n      tag_75\n        /* \"#utility.yul\":853:854   */\n      0x00\n        /* \"#utility.yul\":842:851   */\n      dup4\n        /* \"#utility.yul\":838:855   */\n      add\n        /* \"#utility.yul\":829:835   */\n      dup5\n        /* \"#utility.yul\":787:856   */\n      tag_52\n      jump\t// in\n    tag_75:\n        /* \"#utility.yul\":645:863   */\n      swap3\n      swap2\n      pop\n      pop\n      jump\t// out\n        /* \"#utility.yul\":950:1067   */\n    tag_54:\n        /* \"#utility.yul\":1059:1060   */\n      0x00\n        /* \"#utility.yul\":1056:1057   */\n      dup1\n        /* \"#utility.yul\":1049:1061   */\n      revert\n        /* \"#utility.yul\":1196:1282   */\n    tag_56:\n        /* \"#utility.yul\":1231:1238   */\n      0x00\n        /* \"#utility.yul\":1271:1275   */\n      0xff\n        /* \"#utility.yul\":1264:1269   */\n      dup3\n        /* \"#utility.yul\":1260:1276   */\n      and\n        /* \"#utility.yul\":1249:1276   */\n      swap1\n      pop\n        /* \"#utility.yul\":1196:1282   */\n      swap2\n      swap1\n      pop\n      jump\t// out\n        /* \"#utility.yul\":1288:1406   */\n    tag_57:\n        /* \"#utility.yul\":1359:1381   */\n      tag_81\n        /* \"#utility.yul\":1375:1380   */\n      dup2\n        /* \"#utility.yul\":1359:1381   */\n      tag_56\n      jump\t// in\n    tag_81:\n        /* \"#utility.yul\":1352:1357   */\n      dup2\n        /* \"#utility.yul\":1349:1382   */\n      eq\n        /* \"#utility.yul\":1339:1400   */\n      tag_82\n      jumpi\n        /* \"#utility.yul\":1396:1397   */\n      0x00\n        /* \"#utility.yul\":1393:1394   */\n      dup1\n        /* \"#utility.yul\":1386:1398   */\n      revert\n        /* \"#utility.yul\":1339:1400   */\n    tag_82:\n        /* \"#utility.yul\":1288:1406   */\n      pop\n      jump\t// out\n        /* \"#utility.yul\":1412:1547   */\n    tag_58:\n        /* \"#utility.yul\":1456:1461   */\n      0x00\n        /* \"#utility.yul\":1494:1500   */\n      dup2\n        /* \"#utility.yul\":1481:1501   */\n      calldataload\n        /* \"#utility.yul\":1472:1501   */\n      swap1\n      pop\n        /* \"#utility.yul\":1510:1541   */\n      tag_84\n        /* \"#utility.yul\":1535:1540   */\n      dup2\n        /* \"#utility.yul\":1510:1541   */\n      tag_57\n      jump\t// in\n    tag_84:\n        /* \"#utility.yul\":1412:1547   */\n      swap3\n      swap2\n      pop\n      pop\n      jump\t// out\n        /* \"#utility.yul\":1553:1878   */\n    tag_22:\n        /* \"#utility.yul\":1610:1616   */\n      0x00\n        /* \"#utility.yul\":1659:1661   */\n      0x20\n        /* \"#utility.yul\":1647:1656   */\n      dup3\n        /* \"#utility.yul\":1638:1645   */\n      dup5\n        /* \"#utility.yul\":1634:1657   */\n      sub\n        /* \"#utility.yul\":1630:1662   */\n      slt\n        /* \"#utility.yul\":1627:1746   */\n      iszero\n      tag_86\n      jumpi\n        /* \"#utility.yul\":1665:1744   */\n      tag_87\n      tag_54\n      jump\t// in\n    tag_87:\n        /* \"#utility.yul\":1627:1746   */\n    tag_86:\n        /* \"#utility.yul\":1785:1786   */\n      0x00\n        /* \"#utility.yul\":1810:1861   */\n      tag_88\n        /* \"#utility.yul\":1853:1860   */\n      dup5\n        /* \"#utility.yul\":1844:1850   */\n      dup3\n        /* \"#utility.yul\":1833:1842   */\n      dup6\n        /* \"#utility.yul\":1829:1851   */\n      add\n        /* \"#utility.yul\":1810:1861   */\n      tag_58\n      jump\t// in\n    tag_88:\n        /* \"#utility.yul\":1800:1861   */\n      swap2\n      pop\n        /* \"#utility.yul\":1756:1871   */\n      pop\n        /* \"#utility.yul\":1553:1878   */\n      swap3\n      swap2\n      pop\n      pop\n      jump\t// out\n        /* \"#utility.yul\":1884:2004   */\n    tag_59:\n        /* \"#utility.yul\":1956:1979   */\n      tag_90\n        /* \"#utility.yul\":1973:1978   */\n      dup2\n        /* \"#utility.yul\":1956:1979   */\n      tag_51\n      jump\t// in\n    tag_90:\n        /* \"#utility.yul\":1949:1954   */\n      dup2\n        /* \"#utility.yul\":1946:1980   */\n      eq\n        /* \"#utility.yul\":1936:1998   */\n      tag_91\n      jumpi\n        /* \"#utility.yul\":1994:1995   */\n      0x00\n        /* \"#utility.yul\":1991:1992   */\n      dup1\n        /* \"#utility.yul\":1984:1996   */\n      revert\n        /* \"#utility.yul\":1936:1998   */\n    tag_91:\n        /* \"#utility.yul\":1884:2004   */\n      pop\n      jump\t// out\n        /* \"#utility.yul\":2010:2147   */\n    tag_60:\n        /* \"#utility.yul\":2055:2060   */\n      0x00\n        /* \"#utility.yul\":2093:2099   */\n      dup2\n        /* \"#utility.yul\":2080:2100   */\n      calldataload\n        /* \"#utility.yul\":2071:2100   */\n      swap1\n      pop\n        /* \"#utility.yul\":2109:2141   */\n      tag_93\n        /* \"#utility.yul\":2135:2140   */\n      dup2\n        /* \"#utility.yul\":2109:2141   */\n      tag_59\n      jump\t// in\n    tag_93:\n        /* \"#utility.yul\":2010:2147   */\n      swap3\n      swap2\n      pop\n      pop\n      jump\t// out\n        /* \"#utility.yul\":2153:2480   */\n    tag_26:\n        /* \"#utility.yul\":2211:2217   */\n      0x00\n        /* \"#utility.yul\":2260:2262   */\n      0x20\n        /* \"#utility.yul\":2248:2257   */\n      dup3\n        /* \"#utility.yul\":2239:2246   */\n      dup5\n        /* \"#utility.yul\":2235:2258   */\n      sub\n        /* \"#utility.yul\":2231:2263   */\n      slt\n        /* \"#utility.yul\":2228:2347   */\n      iszero\n      tag_95\n      jumpi\n        /* \"#utility.yul\":2266:2345   */\n      tag_96\n      tag_54\n      jump\t// in\n    tag_96:\n        /* \"#utility.yul\":2228:2347   */\n    tag_95:\n        /* \"#utility.yul\":2386:2387   */\n      0x00\n        /* \"#utility.yul\":2411:2463   */\n      tag_97\n        /* \"#utility.yul\":2455:2462   */\n      dup5\n        /* \"#utility.yul\":2446:2452   */\n      dup3\n        /* \"#utility.yul\":2435:2444   */\n      dup6\n        /* \"#utility.yul\":2431:2453   */\n      add\n        /* \"#utility.yul\":2411:2463   */\n      tag_60\n      jump\t// in\n    tag_97:\n        /* \"#utility.yul\":2401:2463   */\n      swap2\n      pop\n        /* \"#utility.yul\":2357:2473   */\n      pop\n        /* \"#utility.yul\":2153:2480   */\n      swap3\n      swap2\n      pop\n      pop\n      jump\t// out\n        /* \"#utility.yul\":2486:2598   */\n    tag_61:\n        /* \"#utility.yul\":2569:2591   */\n      tag_99\n        /* \"#utility.yul\":2585:2590   */\n      dup2\n        /* \"#utility.yul\":2569:2591   */\n      tag_56\n      jump\t// in\n    tag_99:\n        /* \"#utility.yul\":2564:2567   */\n      dup3\n        /* \"#utility.yul\":2557:2592   */\n      mstore\n        /* \"#utility.yul\":2486:2598   */\n      pop\n      pop\n      jump\t// out\n        /* \"#utility.yul\":2604:2818   */\n    tag_33:\n        /* \"#utility.yul\":2693:2697   */\n      0x00\n        /* \"#utility.yul\":2731:2733   */\n      0x20\n        /* \"#utility.yul\":2720:2729   */\n      dup3\n        /* \"#utility.yul\":2716:2734   */\n      add\n        /* \"#utility.yul\":2708:2734   */\n      swap1\n      pop\n        /* \"#utility.yul\":2744:2811   */\n      tag_101\n        /* \"#utility.yul\":2808:2809   */\n      0x00\n        /* \"#utility.yul\":2797:2806   */\n      dup4\n        /* \"#utility.yul\":2793:2810   */\n      add\n        /* \"#utility.yul\":2784:2790   */\n      dup5\n        /* \"#utility.yul\":2744:2811   */\n      tag_61\n      jump\t// in\n    tag_101:\n        /* \"#utility.yul\":2604:2818   */\n      swap3\n      swap2\n      pop\n      pop\n      jump\t// out\n        /* \"#utility.yul\":2824:2946   */\n    tag_62:\n        /* \"#utility.yul\":2897:2921   */\n      tag_103\n        /* \"#utility.yul\":2915:2920   */\n      dup2\n        /* \"#utility.yul\":2897:2921   */\n      tag_49\n      jump\t// in\n    tag_103:\n        /* \"#utility.yul\":2890:2895   */\n      dup2\n        /* \"#utility.yul\":2887:2922   */\n      eq\n        /* \"#utility.yul\":2877:2940   */\n      tag_104\n      jumpi\n        /* \"#utility.yul\":2936:2937   */\n      0x00\n        /* \"#utility.yul\":2933:2934   */\n      dup1\n        /* \"#utility.yul\":2926:2938   */\n      revert\n        /* \"#utility.yul\":2877:2940   */\n    tag_104:\n        /* \"#utility.yul\":2824:2946   */\n      pop\n      jump\t// out\n        /* \"#utility.yul\":2952:3091   */\n    tag_63:\n        /* \"#utility.yul\":2998:3003   */\n      0x00\n        /* \"#utility.yul\":3036:3042   */\n      dup2\n        /* \"#utility.yul\":3023:3043   */\n      calldataload\n        /* \"#utility.yul\":3014:3043   */\n      swap1\n      pop\n        /* \"#utility.yul\":3052:3085   */\n      tag_106\n        /* \"#utility.yul\":3079:3084   */\n      dup2\n        /* \"#utility.yul\":3052:3085   */\n      tag_62\n      jump\t// in\n    tag_106:\n        /* \"#utility.yul\":2952:3091   */\n      swap3\n      swap2\n      pop\n      pop\n      jump\t// out\n        /* \"#utility.yul\":3097:3426   */\n    tag_36:\n        /* \"#utility.yul\":3156:3162   */\n      0x00\n        /* \"#utility.yul\":3205:3207   */\n      0x20\n        /* \"#utility.yul\":3193:3202   */\n      dup3\n        /* \"#utility.yul\":3184:3191   */\n      dup5\n        /* \"#utility.yul\":3180:3203   */\n      sub\n        /* \"#utility.yul\":3176:3208   */\n      slt\n        /* \"#utility.yul\":3173:3292   */\n      iszero\n      tag_108\n      jumpi\n        /* \"#utility.yul\":3211:3290   */\n      tag_109\n      tag_54\n      jump\t// in\n    tag_109:\n        /* \"#utility.yul\":3173:3292   */\n    tag_108:\n        /* \"#utility.yul\":3331:3332   */\n      0x00\n        /* \"#utility.yul\":3356:3409   */\n      tag_110\n        /* \"#utility.yul\":3401:3408   */\n      dup5\n        /* \"#utility.yul\":3392:3398   */\n      dup3\n        /* \"#utility.yul\":3381:3390   */\n      dup6\n        /* \"#utility.yul\":3377:3399   */\n      add\n        /* \"#utility.yul\":3356:3409   */\n      tag_63\n      jump\t// in\n    tag_110:\n        /* \"#utility.yul\":3346:3409   */\n      swap2\n      pop\n        /* \"#utility.yul\":3302:3419   */\n      pop\n        /* \"#utility.yul\":3097:3426   */\n      swap3\n      swap2\n      pop\n      pop\n      jump\t// out\n        /* \"#utility.yul\":3432:3612   */\n    tag_64:\n        /* \"#utility.yul\":3480:3557   */\n      0x4e487b7100000000000000000000000000000000000000000000000000000000\n        /* \"#utility.yul\":3477:3478   */\n      0x00\n        /* \"#utility.yul\":3470:3558   */\n      mstore\n        /* \"#utility.yul\":3577:3581   */\n      0x11\n        /* \"#utility.yul\":3574:3575   */\n      0x04\n        /* \"#utility.yul\":3567:3582   */\n      mstore\n        /* \"#utility.yul\":3601:3605   */\n      0x24\n        /* \"#utility.yul\":3598:3599   */\n      0x00\n        /* \"#utility.yul\":3591:3606   */\n      revert\n        /* \"#utility.yul\":3618:3785   */\n    tag_44:\n        /* \"#utility.yul\":3655:3658   */\n      0x00\n        /* \"#utility.yul\":3678:3700   */\n      tag_113\n        /* \"#utility.yul\":3694:3699   */\n      dup3\n        /* \"#utility.yul\":3678:3700   */\n      tag_56\n      jump\t// in\n    tag_113:\n        /* \"#utility.yul\":3669:3700   */\n      swap2\n      pop\n        /* \"#utility.yul\":3722:3726   */\n      0x00\n        /* \"#utility.yul\":3715:3720   */\n      dup3\n        /* \"#utility.yul\":3712:3727   */\n      sub\n        /* \"#utility.yul\":3709:3750   */\n      tag_114\n      jumpi\n        /* \"#utility.yul\":3730:3748   */\n      tag_115\n      tag_64\n      jump\t// in\n    tag_115:\n        /* \"#utility.yul\":3709:3750   */\n    tag_114:\n        /* \"#utility.yul\":3777:3778   */\n      0x01\n        /* \"#utility.yul\":3770:3775   */\n      dup3\n        /* \"#utility.yul\":3766:3779   */\n      sub\n        /* \"#utility.yul\":3759:3779   */\n      swap1\n      pop\n        /* \"#utility.yul\":3618:3785   */\n      swap2\n      swap1\n      pop\n      jump\t// out\n        /* \"#utility.yul\":3791:4022   */\n    tag_48:\n        /* \"#utility.yul\":3829:3832   */\n      0x00\n        /* \"#utility.yul\":3852:3875   */\n      tag_117\n        /* \"#utility.yul\":3869:3874   */\n      dup3\n        /* \"#utility.yul\":3852:3875   */\n      tag_51\n      jump\t// in\n    tag_117:\n        /* \"#utility.yul\":3843:3875   */\n      swap2\n      pop\n        /* \"#utility.yul\":3897:3963   */\n      0x7fffffffffffffffffffffffffffffffffffffffffffffffffffffffffffffff\n        /* \"#utility.yul\":3890:3895   */\n      dup3\n        /* \"#utility.yul\":3887:3964   */\n      sub\n        /* \"#utility.yul\":3884:3987   */\n      tag_118\n      jumpi\n        /* \"#utility.yul\":3967:3985   */\n      tag_119\n      tag_64\n      jump\t// in\n    tag_119:\n        /* \"#utility.yul\":3884:3987   */\n    tag_118:\n        /* \"#utility.yul\":4014:4015   */\n      0x01\n        /* \"#utility.yul\":4007:4012   */\n      dup3\n        /* \"#utility.yul\":4003:4016   */\n      add\n        /* \"#utility.yul\":3996:4016   */\n      swap1\n      pop\n        /* \"#utility.yul\":3791:4022   */\n      swap2\n      swap1\n      pop\n      jump\t// out\n\n    auxdata: 0xa264697066735822122004525900250420c36beae13ab427474b554777a316917cde7007549d973842f464736f6c634300081a0033\n}\n",
				"bytecode": {
					"linkReferences": {},
					"object": "60806040526201472c5f553480156014575f80fd5b50610455806100225f395ff3fe608060405234801561000f575f80fd5b5060043610610086575f3560e01c8063da50eaee11610059578063da50eaee146100fe578063e2a4b2af14610108578063e492fd8414610126578063f102a71d1461014257610086565b806306540f7e1461008a5780632cb777a6146100a85780634f25eada146100c65780635f6633bf146100e2575b5f80fd5b61009261014c565b60405161009f9190610203565b60405180910390f35b6100b0610151565b6040516100bd9190610234565b60405180910390f35b6100e060048036038101906100db9190610287565b610157565b005b6100fc60048036038101906100f791906102dc565b610174565b005b61010661017e565b005b6101106101b7565b60405161011d9190610316565b60405180910390f35b610140600480360381019061013b9190610359565b6101c9565b005b61014a6101d2565b005b5f5481565b60025481565b8060015f6101000a81548160ff021916908360ff16021790555050565b8060028190555050565b60015f81819054906101000a900460ff168092919061019c906103b1565b91906101000a81548160ff021916908360ff16021790555050565b60015f9054906101000a900460ff1681565b805f8190555050565b60025f8154809291906101e4906103d8565b9190505550565b5f819050919050565b6101fd816101eb565b82525050565b5f6020820190506102165f8301846101f4565b92915050565b5f819050919050565b61022e8161021c565b82525050565b5f6020820190506102475f830184610225565b92915050565b5f80fd5b5f60ff82169050919050565b61026681610251565b8114610270575f80fd5b50565b5f813590506102818161025d565b92915050565b5f6020828403121561029c5761029b61024d565b5b5f6102a984828501610273565b91505092915050565b6102bb8161021c565b81146102c5575f80fd5b50565b5f813590506102d6816102b2565b92915050565b5f602082840312156102f1576102f061024d565b5b5f6102fe848285016102c8565b91505092915050565b61031081610251565b82525050565b5f6020820190506103295f830184610307565b92915050565b610338816101eb565b8114610342575f80fd5b50565b5f813590506103538161032f565b92915050565b5f6020828403121561036e5761036d61024d565b5b5f61037b84828501610345565b91505092915050565b7f4e487b71000000000000000000000000000000000000000000000000000000005f52601160045260245ffd5b5f6103bb82610251565b91505f82036103cd576103cc610384565b5b600182039050919050565b5f6103e28261021c565b91507f7fffffffffffffffffffffffffffffffffffffffffffffffffffffffffffffff820361041457610413610384565b5b60018201905091905056fea264697066735822122004525900250420c36beae13ab427474b554777a316917cde7007549d973842f464736f6c634300081a0033",
					"opcodes": "PUSH1 0x80 PUSH1 0x40 MSTORE PUSH3 0x1472C PUSH0 SSTORE CALLVALUE DUP1 ISZERO PUSH1 0x14 JUMPI PUSH0 DUP1 REVERT JUMPDEST POP PUSH2 0x455 DUP1 PUSH2 0x22 PUSH0 CODECOPY PUSH0 RETURN INVALID PUSH1 0x80 PUSH1 0x40 MSTORE CALLVALUE DUP1 ISZERO PUSH2 0xF JUMPI PUSH0 DUP1 REVERT JUMPDEST POP PUSH1 0x4 CALLDATASIZE LT PUSH2 0x86 JUMPI PUSH0 CALLDATALOAD PUSH1 0xE0 SHR DUP1 PUSH4 0xDA50EAEE GT PUSH2 0x59 JUMPI DUP1 PUSH4 0xDA50EAEE EQ PUSH2 0xFE JUMPI DUP1 PUSH4 0xE2A4B2AF EQ PUSH2 0x108 JUMPI DUP1 PUSH4 0xE492FD84 EQ PUSH2 0x126 JUMPI DUP1 PUSH4 0xF102A71D EQ PUSH2 0x142 JUMPI PUSH2 0x86 JUMP JUMPDEST DUP1 PUSH4 0x6540F7E EQ PUSH2 0x8A JUMPI DUP1 PUSH4 0x2CB777A6 EQ PUSH2 0xA8 JUMPI DUP1 PUSH4 0x4F25EADA EQ PUSH2 0xC6 JUMPI DUP1 PUSH4 0x5F6633BF EQ PUSH2 0xE2 JUMPI JUMPDEST PUSH0 DUP1 REVERT JUMPDEST PUSH2 0x92 PUSH2 0x14C JUMP JUMPDEST PUSH1 0x40 MLOAD PUSH2 0x9F SWAP2 SWAP1 PUSH2 0x203 JUMP JUMPDEST PUSH1 0x40 MLOAD DUP1 SWAP2 SUB SWAP1 RETURN JUMPDEST PUSH2 0xB0 PUSH2 0x151 JUMP JUMPDEST PUSH1 0x40 MLOAD PUSH2 0xBD SWAP2 SWAP1 PUSH2 0x234 JUMP JUMPDEST PUSH1 0x40 MLOAD DUP1 SWAP2 SUB SWAP1 RETURN JUMPDEST PUSH2 0xE0 PUSH1 0x4 DUP1 CALLDATASIZE SUB DUP2 ADD SWAP1 PUSH2 0xDB SWAP2 SWAP1 PUSH2 0x287 JUMP JUMPDEST PUSH2 0x157 JUMP JUMPDEST STOP JUMPDEST PUSH2 0xFC PUSH1 0x4 DUP1 CALLDATASIZE SUB DUP2 ADD SWAP1 PUSH2 0xF7 SWAP2 SWAP1 PUSH2 0x2DC JUMP JUMPDEST PUSH2 0x174 JUMP JUMPDEST STOP JUMPDEST PUSH2 0x106 PUSH2 0x17E JUMP JUMPDEST STOP JUMPDEST PUSH2 0x110 PUSH2 0x1B7 JUMP JUMPDEST PUSH1 0x40 MLOAD PUSH2 0x11D SWAP2 SWAP1 PUSH2 0x316 JUMP JUMPDEST PUSH1 0x40 MLOAD DUP1 SWAP2 SUB SWAP1 RETURN JUMPDEST PUSH2 0x140 PUSH1 0x4 DUP1 CALLDATASIZE SUB DUP2 ADD SWAP1 PUSH2 0x13B SWAP2 SWAP1 PUSH2 0x359 JUMP JUMPDEST PUSH2 0x1C9 JUMP JUMPDEST STOP JUMPDEST PUSH2 0x14A PUSH2 0x1D2 JUMP JUMPDEST STOP JUMPDEST PUSH0 SLOAD DUP2 JUMP JUMPDEST PUSH1 0x2 SLOAD DUP2 JUMP JUMPDEST DUP1 PUSH1 0x1 PUSH0 PUSH2 0x100 EXP DUP2 SLOAD DUP2 PUSH1 0xFF MUL NOT AND SWAP1 DUP4 PUSH1 0xFF AND MUL OR SWAP1 SSTORE POP POP JUMP JUMPDEST DUP1 PUSH1 0x2 DUP2 SWAP1 SSTORE POP POP JUMP JUMPDEST PUSH1 0x1 PUSH0 DUP2 DUP2 SWAP1 SLOAD SWAP1 PUSH2 0x100 EXP SWAP1 DIV PUSH1 0xFF AND DUP1 SWAP3 SWAP2 SWAP1 PUSH2 0x19C SWAP1 PUSH2 0x3B1 JUMP JUMPDEST SWAP2 SWAP1 PUSH2 0x100 EXP DUP2 SLOAD DUP2 PUSH1 0xFF MUL NOT AND SWAP1 DUP4 PUSH1 0xFF AND MUL OR SWAP1 SSTORE POP POP JUMP JUMPDEST PUSH1 0x1 PUSH0 SWAP1 SLOAD SWAP1 PUSH2 0x100 EXP SWAP1 DIV PUSH1 0xFF AND DUP2 JUMP JUMPDEST DUP1 PUSH0 DUP2 SWAP1 SSTORE POP POP JUMP JUMPDEST PUSH1 0x2 PUSH0 DUP2 SLOAD DUP1 SWAP3 SWAP2 SWAP1 PUSH2 0x1E4 SWAP1 PUSH2 0x3D8 JUMP JUMPDEST SWAP2 SWAP1 POP SSTORE POP JUMP JUMPDEST PUSH0 DUP2 SWAP1 POP SWAP2 SWAP1 POP JUMP JUMPDEST PUSH2 0x1FD DUP2 PUSH2 0x1EB JUMP JUMPDEST DUP3 MSTORE POP POP JUMP JUMPDEST PUSH0 PUSH1 0x20 DUP3 ADD SWAP1 POP PUSH2 0x216 PUSH0 DUP4 ADD DUP5 PUSH2 0x1F4 JUMP JUMPDEST SWAP3 SWAP2 POP POP JUMP JUMPDEST PUSH0 DUP2 SWAP1 POP SWAP2 SWAP1 POP JUMP JUMPDEST PUSH2 0x22E DUP2 PUSH2 0x21C JUMP JUMPDEST DUP3 MSTORE POP POP JUMP JUMPDEST PUSH0 PUSH1 0x20 DUP3 ADD SWAP1 POP PUSH2 0x247 PUSH0 DUP4 ADD DUP5 PUSH2 0x225 JUMP JUMPDEST SWAP3 SWAP2 POP POP JUMP JUMPDEST PUSH0 DUP1 REVERT JUMPDEST PUSH0 PUSH1 0xFF DUP3 AND SWAP1 POP SWAP2 SWAP1 POP JUMP JUMPDEST PUSH2 0x266 DUP2 PUSH2 0x251 JUMP JUMPDEST DUP2 EQ PUSH2 0x270 JUMPI PUSH0 DUP1 REVERT JUMPDEST POP JUMP JUMPDEST PUSH0 DUP2 CALLDATALOAD SWAP1 POP PUSH2 0x281 DUP2 PUSH2 0x25D JUMP JUMPDEST SWAP3 SWAP2 POP POP JUMP JUMPDEST PUSH0 PUSH1 0x20 DUP3 DUP5 SUB SLT ISZERO PUSH2 0x29C JUMPI PUSH2 0x29B PUSH2 0x24D JUMP JUMPDEST JUMPDEST PUSH0 PUSH2 0x2A9 DUP5 DUP3 DUP6 ADD PUSH2 0x273 JUMP JUMPDEST SWAP2 POP POP SWAP3 SWAP2 POP POP JUMP JUMPDEST PUSH2 0x2BB DUP2 PUSH2 0x21C JUMP JUMPDEST DUP2 EQ PUSH2 0x2C5 JUMPI PUSH0 DUP1 REVERT JUMPDEST POP JUMP JUMPDEST PUSH0 DUP2 CALLDATALOAD SWAP1 POP PUSH2 0x2D6 DUP2 PUSH2 0x2B2 JUMP JUMPDEST SWAP3 SWAP2 POP POP JUMP JUMPDEST PUSH0 PUSH1 0x20 DUP3 DUP5 SUB SLT ISZERO PUSH2 0x2F1 JUMPI PUSH2 0x2F0 PUSH2 0x24D JUMP JUMPDEST JUMPDEST PUSH0 PUSH2 0x2FE DUP5 DUP3 DUP6 ADD PUSH2 0x2C8 JUMP JUMPDEST SWAP2 POP POP SWAP3 SWAP2 POP POP JUMP JUMPDEST PUSH2 0x310 DUP2 PUSH2 0x251 JUMP JUMPDEST DUP3 MSTORE POP POP JUMP JUMPDEST PUSH0 PUSH1 0x20 DUP3 ADD SWAP1 POP PUSH2 0x329 PUSH0 DUP4 ADD DUP5 PUSH2 0x307 JUMP JUMPDEST SWAP3 SWAP2 POP POP JUMP JUMPDEST PUSH2 0x338 DUP2 PUSH2 0x1EB JUMP JUMPDEST DUP2 EQ PUSH2 0x342 JUMPI PUSH0 DUP1 REVERT JUMPDEST POP JUMP JUMPDEST PUSH0 DUP2 CALLDATALOAD SWAP1 POP PUSH2 0x353 DUP2 PUSH2 0x32F JUMP JUMPDEST SWAP3 SWAP2 POP POP JUMP JUMPDEST PUSH0 PUSH1 0x20 DUP3 DUP5 SUB SLT ISZERO PUSH2 0x36E JUMPI PUSH2 0x36D PUSH2 0x24D JUMP JUMPDEST JUMPDEST PUSH0 PUSH2 0x37B DUP5 DUP3 DUP6 ADD PUSH2 0x345 JUMP JUMPDEST SWAP2 POP POP SWAP3 SWAP2 POP POP JUMP JUMPDEST PUSH32 0x4E487B7100000000000000000000000000000000000000000000000000000000 PUSH0 MSTORE PUSH1 0x11 PUSH1 0x4 MSTORE PUSH1 0x24 PUSH0 REVERT JUMPDEST PUSH0 PUSH2 0x3BB DUP3 PUSH2 0x251 JUMP JUMPDEST SWAP2 POP PUSH0 DUP3 SUB PUSH2 0x3CD JUMPI PUSH2 0x3CC PUSH2 0x384 JUMP JUMPDEST JUMPDEST PUSH1 0x1 DUP3 SUB SWAP1 POP SWAP2 SWAP1 POP JUMP JUMPDEST PUSH0 PUSH2 0x3E2 DUP3 PUSH2 0x21C JUMP JUMPDEST SWAP2 POP PUSH32 0x7FFFFFFFFFFFFFFFFFFFFFFFFFFFFFFFFFFFFFFFFFFFFFFFFFFFFFFFFFFFFFFF DUP3 SUB PUSH2 0x414 JUMPI PUSH2 0x413 PUSH2 0x384 JUMP JUMPDEST JUMPDEST PUSH1 0x1 DUP3 ADD SWAP1 POP SWAP2 SWAP1 POP JUMP INVALID LOG2 PUSH5 0x6970667358 0x22 SLT KECCAK256 DIV MSTORE MSIZE STOP 0x25 DIV KECCAK256 0xC3 PUSH12 0xEAE13AB427474B554777A316 SWAP2 PUSH29 0xDE7007549D973842F464736F6C634300081A0033000000000000000000 "
				},
				"gasEstimates": {
					"creation": {
						"codeDepositCost": "221800",
						"executionCost": "22366",
						"totalCost": "244166"
					},
					"external": {
						"decrementUint()": "26694",
						"incrementInt()": "24563",
						"myInt()": "2448",
						"myUint()": "2425",
						"myUint8()": "2488",
						"setMyInt(int256)": "22582",
						"setMyUint(uint256)": "22558",
						"setMyUint8(uint8)": "24718"
					}
				},
				"methodIdentifiers": {
					"decrementUint()": "da50eaee",
					"incrementInt()": "f102a71d",
					"myInt()": "2cb777a6",
					"myUint()": "06540f7e",
					"myUint8()": "e2a4b2af",
					"setMyInt(int256)": "5f6633bf",
					"setMyUint(uint256)": "e492fd84",
					"setMyUint8(uint8)": "4f25eada"
				}
			},
			"storageLayout": {
				"storage": [
					{
						"astId": 4,
						"contract": "contracts/EthWrapparound.sol:MyUint",
						"label": "myUint",
						"offset": 0,
						"slot": "0",
						"type": "t_uint256"
					},
					{
						"astId": 6,
						"contract": "contracts/EthWrapparound.sol:MyUint",
						"label": "myUint8",
						"offset": 0,
						"slot": "1",
						"type": "t_uint8"
					},
					{
						"astId": 8,
						"contract": "contracts/EthWrapparound.sol:MyUint",
						"label": "myInt",
						"offset": 0,
						"slot": "2",
						"type": "t_int256"
					}
				],
				"types": {
					"t_int256": {
						"encoding": "inplace",
						"label": "int256",
						"numberOfBytes": "32"
					},
					"t_uint256": {
						"encoding": "inplace",
						"label": "uint256",
						"numberOfBytes": "32"
					},
					"t_uint8": {
						"encoding": "inplace",
						"label": "uint8",
						"numberOfBytes": "1"
					}
				}
			},
			"userdoc": {
				"kind": "user",
				"methods": {},
				"version": 1
			}
		}
	}
}