{
	"contracts/EthStrings.sol": {
		"EthStrings": {
			"abi": [
				{
					"inputs": [],
					"name": "myByte",
					"outputs": [
						{
							"internalType": "bytes",
							"name": "",
							"type": "bytes"
						}
					],
					"stateMutability": "view",
					"type": "function"
				},
				{
					"inputs": [],
					"name": "myString",
					"outputs": [
						{
							"internalType": "string",
							"name": "",
							"type": "string"
						}
					],
					"stateMutability": "view",
					"type": "function"
				},
				{
					"inputs": [
						{
							"internalType": "bytes",
							"name": "_myByte",
							"type": "bytes"
						}
					],
					"name": "setMyBytes",
					"outputs": [],
					"stateMutability": "nonpayable",
					"type": "function"
				},
				{
					"inputs": [
						{
							"internalType": "string",
							"name": "_myString",
							"type": "string"
						}
					],
					"name": "setMyString",
					"outputs": [],
					"stateMutability": "nonpayable",
					"type": "function"
				}
			],
			"devdoc": {
				"kind": "dev",
				"methods": {},
				"version": 1
			},
			"evm": {
				"assembly": "    /* \"contracts/EthStrings.sol\":57:462  contract EthStrings {... */\n  mstore(0x40, 0x80)\n    /* \"contracts/EthStrings.sol\":84:122  string public myString = \"Hello World\" */\n  mload(0x40)\n  dup1\n  0x40\n  add\n  0x40\n  mstore\n  dup1\n  0x0b\n  dup2\n  mstore\n  0x20\n  add\n  0x48656c6c6f20576f726c64000000000000000000000000000000000000000000\n  dup2\n  mstore\n  pop\n  0x00\n  swap1\n  dup2\n  tag_1\n  swap2\n  swap1\n  tag_2\n  jump\t// in\ntag_1:\n  pop\n    /* \"contracts/EthStrings.sol\":306:341  bytes public myByte = \"Hello World\" */\n  mload(0x40)\n  dup1\n  0x40\n  add\n  0x40\n  mstore\n  dup1\n  0x0b\n  dup2\n  mstore\n  0x20\n  add\n  0x48656c6c6f20576f726c64000000000000000000000000000000000000000000\n  dup2\n  mstore\n  pop\n  0x01\n  swap1\n  dup2\n  tag_3\n  swap2\n  swap1\n  tag_4\n  jump\t// in\ntag_3:\n  pop\n    /* \"contracts/EthStrings.sol\":57:462  contract EthStrings {... */\n  callvalue\n  dup1\n  iszero\n  tag_5\n  jumpi\n  0x00\n  dup1\n  revert\ntag_5:\n  pop\n  jump(tag_6)\n    /* \"#utility.yul\":7:106   */\ntag_7:\n    /* \"#utility.yul\":59:65   */\n  0x00\n    /* \"#utility.yul\":93:98   */\n  dup2\n    /* \"#utility.yul\":87:99   */\n  mload\n    /* \"#utility.yul\":77:99   */\n  swap1\n  pop\n    /* \"#utility.yul\":7:106   */\n  swap2\n  swap1\n  pop\n  jump\t// out\n    /* \"#utility.yul\":112:292   */\ntag_8:\n    /* \"#utility.yul\":160:237   */\n  0x4e487b7100000000000000000000000000000000000000000000000000000000\n    /* \"#utility.yul\":157:158   */\n  0x00\n    /* \"#utility.yul\":150:238   */\n  mstore\n    /* \"#utility.yul\":257:261   */\n  0x41\n    /* \"#utility.yul\":254:255   */\n  0x04\n    /* \"#utility.yul\":247:262   */\n  mstore\n    /* \"#utility.yul\":281:285   */\n  0x24\n    /* \"#utility.yul\":278:279   */\n  0x00\n    /* \"#utility.yul\":271:286   */\n  revert\n    /* \"#utility.yul\":298:478   */\ntag_9:\n    /* \"#utility.yul\":346:423   */\n  0x4e487b7100000000000000000000000000000000000000000000000000000000\n    /* \"#utility.yul\":343:344   */\n  0x00\n    /* \"#utility.yul\":336:424   */\n  mstore\n    /* \"#utility.yul\":443:447   */\n  0x22\n    /* \"#utility.yul\":440:441   */\n  0x04\n    /* \"#utility.yul\":433:448   */\n  mstore\n    /* \"#utility.yul\":467:471   */\n  0x24\n    /* \"#utility.yul\":464:465   */\n  0x00\n    /* \"#utility.yul\":457:472   */\n  revert\n    /* \"#utility.yul\":484:804   */\ntag_10:\n    /* \"#utility.yul\":528:534   */\n  0x00\n    /* \"#utility.yul\":565:566   */\n  0x02\n    /* \"#utility.yul\":559:563   */\n  dup3\n    /* \"#utility.yul\":555:567   */\n  div\n    /* \"#utility.yul\":545:567   */\n  swap1\n  pop\n    /* \"#utility.yul\":612:613   */\n  0x01\n    /* \"#utility.yul\":606:610   */\n  dup3\n    /* \"#utility.yul\":602:614   */\n  and\n    /* \"#utility.yul\":633:651   */\n  dup1\n    /* \"#utility.yul\":623:704   */\n  tag_34\n  jumpi\n    /* \"#utility.yul\":689:693   */\n  0x7f\n    /* \"#utility.yul\":681:687   */\n  dup3\n    /* \"#utility.yul\":677:694   */\n  and\n    /* \"#utility.yul\":667:694   */\n  swap2\n  pop\n    /* \"#utility.yul\":623:704   */\ntag_34:\n    /* \"#utility.yul\":751:753   */\n  0x20\n    /* \"#utility.yul\":743:749   */\n  dup3\n    /* \"#utility.yul\":740:754   */\n  lt\n    /* \"#utility.yul\":720:738   */\n  dup2\n    /* \"#utility.yul\":717:755   */\n  sub\n    /* \"#utility.yul\":714:798   */\n  tag_35\n  jumpi\n    /* \"#utility.yul\":770:788   */\n  tag_36\n  tag_9\n  jump\t// in\ntag_36:\n    /* \"#utility.yul\":714:798   */\ntag_35:\n    /* \"#utility.yul\":535:804   */\n  pop\n    /* \"#utility.yul\":484:804   */\n  swap2\n  swap1\n  pop\n  jump\t// out\n    /* \"#utility.yul\":810:951   */\ntag_11:\n    /* \"#utility.yul\":859:863   */\n  0x00\n    /* \"#utility.yul\":882:885   */\n  dup2\n    /* \"#utility.yul\":874:885   */\n  swap1\n  pop\n    /* \"#utility.yul\":905:908   */\n  dup2\n    /* \"#utility.yul\":902:903   */\n  0x00\n    /* \"#utility.yul\":895:909   */\n  mstore\n    /* \"#utility.yul\":939:943   */\n  0x20\n    /* \"#utility.yul\":936:937   */\n  0x00\n    /* \"#utility.yul\":926:944   */\n  keccak256\n    /* \"#utility.yul\":918:944   */\n  swap1\n  pop\n    /* \"#utility.yul\":810:951   */\n  swap2\n  swap1\n  pop\n  jump\t// out\n    /* \"#utility.yul\":957:1050   */\ntag_12:\n    /* \"#utility.yul\":994:1000   */\n  0x00\n    /* \"#utility.yul\":1041:1043   */\n  0x20\n    /* \"#utility.yul\":1036:1038   */\n  0x1f\n    /* \"#utility.yul\":1029:1034   */\n  dup4\n    /* \"#utility.yul\":1025:1039   */\n  add\n    /* \"#utility.yul\":1021:1044   */\n  div\n    /* \"#utility.yul\":1011:1044   */\n  swap1\n  pop\n    /* \"#utility.yul\":957:1050   */\n  swap2\n  swap1\n  pop\n  jump\t// out\n    /* \"#utility.yul\":1056:1163   */\ntag_13:\n    /* \"#utility.yul\":1100:1108   */\n  0x00\n    /* \"#utility.yul\":1150:1155   */\n  dup3\n    /* \"#utility.yul\":1144:1148   */\n  dup3\n    /* \"#utility.yul\":1140:1156   */\n  shl\n    /* \"#utility.yul\":1119:1156   */\n  swap1\n  pop\n    /* \"#utility.yul\":1056:1163   */\n  swap3\n  swap2\n  pop\n  pop\n  jump\t// out\n    /* \"#utility.yul\":1169:1562   */\ntag_14:\n    /* \"#utility.yul\":1238:1244   */\n  0x00\n    /* \"#utility.yul\":1288:1289   */\n  0x08\n    /* \"#utility.yul\":1276:1286   */\n  dup4\n    /* \"#utility.yul\":1272:1290   */\n  mul\n    /* \"#utility.yul\":1311:1408   */\n  tag_41\n    /* \"#utility.yul\":1341:1407   */\n  0xffffffffffffffffffffffffffffffffffffffffffffffffffffffffffffffff\n    /* \"#utility.yul\":1330:1339   */\n  dup3\n    /* \"#utility.yul\":1311:1408   */\n  tag_13\n  jump\t// in\ntag_41:\n    /* \"#utility.yul\":1429:1468   */\n  tag_42\n    /* \"#utility.yul\":1459:1467   */\n  dup7\n    /* \"#utility.yul\":1448:1457   */\n  dup4\n    /* \"#utility.yul\":1429:1468   */\n  tag_13\n  jump\t// in\ntag_42:\n    /* \"#utility.yul\":1417:1468   */\n  swap6\n  pop\n    /* \"#utility.yul\":1501:1505   */\n  dup1\n    /* \"#utility.yul\":1497:1506   */\n  not\n    /* \"#utility.yul\":1490:1495   */\n  dup5\n    /* \"#utility.yul\":1486:1507   */\n  and\n    /* \"#utility.yul\":1477:1507   */\n  swap4\n  pop\n    /* \"#utility.yul\":1550:1554   */\n  dup1\n    /* \"#utility.yul\":1540:1548   */\n  dup7\n    /* \"#utility.yul\":1536:1555   */\n  and\n    /* \"#utility.yul\":1529:1534   */\n  dup5\n    /* \"#utility.yul\":1526:1556   */\n  or\n    /* \"#utility.yul\":1516:1556   */\n  swap3\n  pop\n    /* \"#utility.yul\":1245:1562   */\n  pop\n  pop\n    /* \"#utility.yul\":1169:1562   */\n  swap4\n  swap3\n  pop\n  pop\n  pop\n  jump\t// out\n    /* \"#utility.yul\":1568:1645   */\ntag_15:\n    /* \"#utility.yul\":1605:1612   */\n  0x00\n    /* \"#utility.yul\":1634:1639   */\n  dup2\n    /* \"#utility.yul\":1623:1639   */\n  swap1\n  pop\n    /* \"#utility.yul\":1568:1645   */\n  swap2\n  swap1\n  pop\n  jump\t// out\n    /* \"#utility.yul\":1651:1711   */\ntag_16:\n    /* \"#utility.yul\":1679:1682   */\n  0x00\n    /* \"#utility.yul\":1700:1705   */\n  dup2\n    /* \"#utility.yul\":1693:1705   */\n  swap1\n  pop\n    /* \"#utility.yul\":1651:1711   */\n  swap2\n  swap1\n  pop\n  jump\t// out\n    /* \"#utility.yul\":1717:1859   */\ntag_17:\n    /* \"#utility.yul\":1767:1776   */\n  0x00\n    /* \"#utility.yul\":1800:1853   */\n  tag_46\n    /* \"#utility.yul\":1818:1852   */\n  tag_47\n    /* \"#utility.yul\":1827:1851   */\n  tag_48\n    /* \"#utility.yul\":1845:1850   */\n  dup5\n    /* \"#utility.yul\":1827:1851   */\n  tag_15\n  jump\t// in\ntag_48:\n    /* \"#utility.yul\":1818:1852   */\n  tag_16\n  jump\t// in\ntag_47:\n    /* \"#utility.yul\":1800:1853   */\n  tag_15\n  jump\t// in\ntag_46:\n    /* \"#utility.yul\":1787:1853   */\n  swap1\n  pop\n    /* \"#utility.yul\":1717:1859   */\n  swap2\n  swap1\n  pop\n  jump\t// out\n    /* \"#utility.yul\":1865:1940   */\ntag_18:\n    /* \"#utility.yul\":1908:1911   */\n  0x00\n    /* \"#utility.yul\":1929:1934   */\n  dup2\n    /* \"#utility.yul\":1922:1934   */\n  swap1\n  pop\n    /* \"#utility.yul\":1865:1940   */\n  swap2\n  swap1\n  pop\n  jump\t// out\n    /* \"#utility.yul\":1946:2215   */\ntag_19:\n    /* \"#utility.yul\":2056:2095   */\n  tag_51\n    /* \"#utility.yul\":2087:2094   */\n  dup4\n    /* \"#utility.yul\":2056:2095   */\n  tag_17\n  jump\t// in\ntag_51:\n    /* \"#utility.yul\":2117:2208   */\n  tag_52\n    /* \"#utility.yul\":2166:2207   */\n  tag_53\n    /* \"#utility.yul\":2190:2206   */\n  dup3\n    /* \"#utility.yul\":2166:2207   */\n  tag_18\n  jump\t// in\ntag_53:\n    /* \"#utility.yul\":2158:2164   */\n  dup5\n    /* \"#utility.yul\":2151:2155   */\n  dup5\n    /* \"#utility.yul\":2145:2156   */\n  sload\n    /* \"#utility.yul\":2117:2208   */\n  tag_14\n  jump\t// in\ntag_52:\n    /* \"#utility.yul\":2111:2115   */\n  dup3\n    /* \"#utility.yul\":2104:2209   */\n  sstore\n    /* \"#utility.yul\":2022:2215   */\n  pop\n    /* \"#utility.yul\":1946:2215   */\n  pop\n  pop\n  pop\n  jump\t// out\n    /* \"#utility.yul\":2221:2294   */\ntag_20:\n    /* \"#utility.yul\":2266:2269   */\n  0x00\n    /* \"#utility.yul\":2221:2294   */\n  swap1\n  jump\t// out\n    /* \"#utility.yul\":2300:2489   */\ntag_21:\n    /* \"#utility.yul\":2377:2409   */\n  tag_56\n  tag_20\n  jump\t// in\ntag_56:\n    /* \"#utility.yul\":2418:2483   */\n  tag_57\n    /* \"#utility.yul\":2476:2482   */\n  dup2\n    /* \"#utility.yul\":2468:2474   */\n  dup5\n    /* \"#utility.yul\":2462:2466   */\n  dup5\n    /* \"#utility.yul\":2418:2483   */\n  tag_19\n  jump\t// in\ntag_57:\n    /* \"#utility.yul\":2353:2489   */\n  pop\n    /* \"#utility.yul\":2300:2489   */\n  pop\n  pop\n  jump\t// out\n    /* \"#utility.yul\":2495:2681   */\ntag_22:\n    /* \"#utility.yul\":2555:2675   */\ntag_59:\n    /* \"#utility.yul\":2572:2575   */\n  dup2\n    /* \"#utility.yul\":2565:2570   */\n  dup2\n    /* \"#utility.yul\":2562:2576   */\n  lt\n    /* \"#utility.yul\":2555:2675   */\n  iszero\n  tag_61\n  jumpi\n    /* \"#utility.yul\":2626:2665   */\n  tag_62\n    /* \"#utility.yul\":2663:2664   */\n  0x00\n    /* \"#utility.yul\":2656:2661   */\n  dup3\n    /* \"#utility.yul\":2626:2665   */\n  tag_21\n  jump\t// in\ntag_62:\n    /* \"#utility.yul\":2599:2600   */\n  0x01\n    /* \"#utility.yul\":2592:2597   */\n  dup2\n    /* \"#utility.yul\":2588:2601   */\n  add\n    /* \"#utility.yul\":2579:2601   */\n  swap1\n  pop\n    /* \"#utility.yul\":2555:2675   */\n  jump(tag_59)\ntag_61:\n    /* \"#utility.yul\":2495:2681   */\n  pop\n  pop\n  jump\t// out\n    /* \"#utility.yul\":2687:3230   */\ntag_23:\n    /* \"#utility.yul\":2788:2790   */\n  0x1f\n    /* \"#utility.yul\":2783:2786   */\n  dup3\n    /* \"#utility.yul\":2780:2791   */\n  gt\n    /* \"#utility.yul\":2777:3223   */\n  iszero\n  tag_64\n  jumpi\n    /* \"#utility.yul\":2822:2860   */\n  tag_65\n    /* \"#utility.yul\":2854:2859   */\n  dup2\n    /* \"#utility.yul\":2822:2860   */\n  tag_11\n  jump\t// in\ntag_65:\n    /* \"#utility.yul\":2906:2935   */\n  tag_66\n    /* \"#utility.yul\":2924:2934   */\n  dup5\n    /* \"#utility.yul\":2906:2935   */\n  tag_12\n  jump\t// in\ntag_66:\n    /* \"#utility.yul\":2896:2904   */\n  dup2\n    /* \"#utility.yul\":2892:2936   */\n  add\n    /* \"#utility.yul\":3089:3091   */\n  0x20\n    /* \"#utility.yul\":3077:3087   */\n  dup6\n    /* \"#utility.yul\":3074:3092   */\n  lt\n    /* \"#utility.yul\":3071:3120   */\n  iszero\n  tag_67\n  jumpi\n    /* \"#utility.yul\":3110:3118   */\n  dup2\n    /* \"#utility.yul\":3095:3118   */\n  swap1\n  pop\n    /* \"#utility.yul\":3071:3120   */\ntag_67:\n    /* \"#utility.yul\":3133:3213   */\n  tag_68\n    /* \"#utility.yul\":3189:3211   */\n  tag_69\n    /* \"#utility.yul\":3207:3210   */\n  dup6\n    /* \"#utility.yul\":3189:3211   */\n  tag_12\n  jump\t// in\ntag_69:\n    /* \"#utility.yul\":3179:3187   */\n  dup4\n    /* \"#utility.yul\":3175:3212   */\n  add\n    /* \"#utility.yul\":3162:3173   */\n  dup3\n    /* \"#utility.yul\":3133:3213   */\n  tag_22\n  jump\t// in\ntag_68:\n    /* \"#utility.yul\":2792:3223   */\n  pop\n  pop\n    /* \"#utility.yul\":2777:3223   */\ntag_64:\n    /* \"#utility.yul\":2687:3230   */\n  pop\n  pop\n  pop\n  jump\t// out\n    /* \"#utility.yul\":3236:3353   */\ntag_24:\n    /* \"#utility.yul\":3290:3298   */\n  0x00\n    /* \"#utility.yul\":3340:3345   */\n  dup3\n    /* \"#utility.yul\":3334:3338   */\n  dup3\n    /* \"#utility.yul\":3330:3346   */\n  shr\n    /* \"#utility.yul\":3309:3346   */\n  swap1\n  pop\n    /* \"#utility.yul\":3236:3353   */\n  swap3\n  swap2\n  pop\n  pop\n  jump\t// out\n    /* \"#utility.yul\":3359:3528   */\ntag_25:\n    /* \"#utility.yul\":3403:3409   */\n  0x00\n    /* \"#utility.yul\":3436:3487   */\n  tag_72\n    /* \"#utility.yul\":3484:3485   */\n  0x00\n    /* \"#utility.yul\":3480:3486   */\n  not\n    /* \"#utility.yul\":3472:3477   */\n  dup5\n    /* \"#utility.yul\":3469:3470   */\n  0x08\n    /* \"#utility.yul\":3465:3478   */\n  mul\n    /* \"#utility.yul\":3436:3487   */\n  tag_24\n  jump\t// in\ntag_72:\n    /* \"#utility.yul\":3432:3488   */\n  not\n    /* \"#utility.yul\":3517:3521   */\n  dup1\n    /* \"#utility.yul\":3511:3515   */\n  dup4\n    /* \"#utility.yul\":3507:3522   */\n  and\n    /* \"#utility.yul\":3497:3522   */\n  swap2\n  pop\n    /* \"#utility.yul\":3410:3528   */\n  pop\n    /* \"#utility.yul\":3359:3528   */\n  swap3\n  swap2\n  pop\n  pop\n  jump\t// out\n    /* \"#utility.yul\":3533:3828   */\ntag_26:\n    /* \"#utility.yul\":3609:3613   */\n  0x00\n    /* \"#utility.yul\":3755:3784   */\n  tag_74\n    /* \"#utility.yul\":3780:3783   */\n  dup4\n    /* \"#utility.yul\":3774:3778   */\n  dup4\n    /* \"#utility.yul\":3755:3784   */\n  tag_25\n  jump\t// in\ntag_74:\n    /* \"#utility.yul\":3747:3784   */\n  swap2\n  pop\n    /* \"#utility.yul\":3817:3820   */\n  dup3\n    /* \"#utility.yul\":3814:3815   */\n  0x02\n    /* \"#utility.yul\":3810:3821   */\n  mul\n    /* \"#utility.yul\":3804:3808   */\n  dup3\n    /* \"#utility.yul\":3801:3822   */\n  or\n    /* \"#utility.yul\":3793:3822   */\n  swap1\n  pop\n    /* \"#utility.yul\":3533:3828   */\n  swap3\n  swap2\n  pop\n  pop\n  jump\t// out\n    /* \"#utility.yul\":3833:5228   */\ntag_2:\n    /* \"#utility.yul\":3950:3987   */\n  tag_76\n    /* \"#utility.yul\":3983:3986   */\n  dup3\n    /* \"#utility.yul\":3950:3987   */\n  tag_7\n  jump\t// in\ntag_76:\n    /* \"#utility.yul\":4052:4070   */\n  0xffffffffffffffff\n    /* \"#utility.yul\":4044:4050   */\n  dup2\n    /* \"#utility.yul\":4041:4071   */\n  gt\n    /* \"#utility.yul\":4038:4094   */\n  iszero\n  tag_77\n  jumpi\n    /* \"#utility.yul\":4074:4092   */\n  tag_78\n  tag_8\n  jump\t// in\ntag_78:\n    /* \"#utility.yul\":4038:4094   */\ntag_77:\n    /* \"#utility.yul\":4118:4156   */\n  tag_79\n    /* \"#utility.yul\":4150:4154   */\n  dup3\n    /* \"#utility.yul\":4144:4155   */\n  sload\n    /* \"#utility.yul\":4118:4156   */\n  tag_10\n  jump\t// in\ntag_79:\n    /* \"#utility.yul\":4203:4270   */\n  tag_80\n    /* \"#utility.yul\":4263:4269   */\n  dup3\n    /* \"#utility.yul\":4255:4261   */\n  dup3\n    /* \"#utility.yul\":4249:4253   */\n  dup6\n    /* \"#utility.yul\":4203:4270   */\n  tag_23\n  jump\t// in\ntag_80:\n    /* \"#utility.yul\":4297:4298   */\n  0x00\n    /* \"#utility.yul\":4321:4325   */\n  0x20\n    /* \"#utility.yul\":4308:4325   */\n  swap1\n  pop\n    /* \"#utility.yul\":4353:4355   */\n  0x1f\n    /* \"#utility.yul\":4345:4351   */\n  dup4\n    /* \"#utility.yul\":4342:4356   */\n  gt\n    /* \"#utility.yul\":4370:4371   */\n  0x01\n    /* \"#utility.yul\":4365:4983   */\n  dup2\n  eq\n  tag_82\n  jumpi\n    /* \"#utility.yul\":5027:5028   */\n  0x00\n    /* \"#utility.yul\":5044:5050   */\n  dup5\n    /* \"#utility.yul\":5041:5118   */\n  iszero\n  tag_83\n  jumpi\n    /* \"#utility.yul\":5093:5102   */\n  dup3\n    /* \"#utility.yul\":5088:5091   */\n  dup8\n    /* \"#utility.yul\":5084:5103   */\n  add\n    /* \"#utility.yul\":5078:5104   */\n  mload\n    /* \"#utility.yul\":5069:5104   */\n  swap1\n  pop\n    /* \"#utility.yul\":5041:5118   */\ntag_83:\n    /* \"#utility.yul\":5144:5211   */\n  tag_84\n    /* \"#utility.yul\":5204:5210   */\n  dup6\n    /* \"#utility.yul\":5197:5202   */\n  dup3\n    /* \"#utility.yul\":5144:5211   */\n  tag_26\n  jump\t// in\ntag_84:\n    /* \"#utility.yul\":5138:5142   */\n  dup7\n    /* \"#utility.yul\":5131:5212   */\n  sstore\n    /* \"#utility.yul\":5000:5222   */\n  pop\n    /* \"#utility.yul\":4335:5222   */\n  jump(tag_81)\n    /* \"#utility.yul\":4365:4983   */\ntag_82:\n    /* \"#utility.yul\":4417:4421   */\n  0x1f\n    /* \"#utility.yul\":4413:4422   */\n  not\n    /* \"#utility.yul\":4405:4411   */\n  dup5\n    /* \"#utility.yul\":4401:4423   */\n  and\n    /* \"#utility.yul\":4451:4488   */\n  tag_85\n    /* \"#utility.yul\":4483:4487   */\n  dup7\n    /* \"#utility.yul\":4451:4488   */\n  tag_11\n  jump\t// in\ntag_85:\n    /* \"#utility.yul\":4510:4511   */\n  0x00\n    /* \"#utility.yul\":4524:4732   */\ntag_86:\n    /* \"#utility.yul\":4538:4545   */\n  dup3\n    /* \"#utility.yul\":4535:4536   */\n  dup2\n    /* \"#utility.yul\":4532:4546   */\n  lt\n    /* \"#utility.yul\":4524:4732   */\n  iszero\n  tag_88\n  jumpi\n    /* \"#utility.yul\":4617:4626   */\n  dup5\n    /* \"#utility.yul\":4612:4615   */\n  dup10\n    /* \"#utility.yul\":4608:4627   */\n  add\n    /* \"#utility.yul\":4602:4628   */\n  mload\n    /* \"#utility.yul\":4594:4600   */\n  dup3\n    /* \"#utility.yul\":4587:4629   */\n  sstore\n    /* \"#utility.yul\":4668:4669   */\n  0x01\n    /* \"#utility.yul\":4660:4666   */\n  dup3\n    /* \"#utility.yul\":4656:4670   */\n  add\n    /* \"#utility.yul\":4646:4670   */\n  swap2\n  pop\n    /* \"#utility.yul\":4715:4717   */\n  0x20\n    /* \"#utility.yul\":4704:4713   */\n  dup6\n    /* \"#utility.yul\":4700:4718   */\n  add\n    /* \"#utility.yul\":4687:4718   */\n  swap5\n  pop\n    /* \"#utility.yul\":4561:4565   */\n  0x20\n    /* \"#utility.yul\":4558:4559   */\n  dup2\n    /* \"#utility.yul\":4554:4566   */\n  add\n    /* \"#utility.yul\":4549:4566   */\n  swap1\n  pop\n    /* \"#utility.yul\":4524:4732   */\n  jump(tag_86)\ntag_88:\n    /* \"#utility.yul\":4760:4766   */\n  dup7\n    /* \"#utility.yul\":4751:4758   */\n  dup4\n    /* \"#utility.yul\":4748:4767   */\n  lt\n    /* \"#utility.yul\":4745:4924   */\n  iszero\n  tag_89\n  jumpi\n    /* \"#utility.yul\":4818:4827   */\n  dup5\n    /* \"#utility.yul\":4813:4816   */\n  dup10\n    /* \"#utility.yul\":4809:4828   */\n  add\n    /* \"#utility.yul\":4803:4829   */\n  mload\n    /* \"#utility.yul\":4861:4909   */\n  tag_90\n    /* \"#utility.yul\":4903:4907   */\n  0x1f\n    /* \"#utility.yul\":4895:4901   */\n  dup10\n    /* \"#utility.yul\":4891:4908   */\n  and\n    /* \"#utility.yul\":4880:4889   */\n  dup3\n    /* \"#utility.yul\":4861:4909   */\n  tag_25\n  jump\t// in\ntag_90:\n    /* \"#utility.yul\":4853:4859   */\n  dup4\n    /* \"#utility.yul\":4846:4910   */\n  sstore\n    /* \"#utility.yul\":4768:4924   */\n  pop\n    /* \"#utility.yul\":4745:4924   */\ntag_89:\n    /* \"#utility.yul\":4970:4971   */\n  0x01\n    /* \"#utility.yul\":4966:4967   */\n  0x02\n    /* \"#utility.yul\":4958:4964   */\n  dup9\n    /* \"#utility.yul\":4954:4968   */\n  mul\n    /* \"#utility.yul\":4950:4972   */\n  add\n    /* \"#utility.yul\":4944:4948   */\n  dup9\n    /* \"#utility.yul\":4937:4973   */\n  sstore\n    /* \"#utility.yul\":4372:4983   */\n  pop\n  pop\n  pop\n    /* \"#utility.yul\":4335:5222   */\ntag_81:\n  pop\n    /* \"#utility.yul\":3925:5228   */\n  pop\n  pop\n  pop\n    /* \"#utility.yul\":3833:5228   */\n  pop\n  pop\n  jump\t// out\n    /* \"#utility.yul\":5234:5374   */\ntag_27:\n    /* \"#utility.yul\":5282:5286   */\n  0x00\n    /* \"#utility.yul\":5305:5308   */\n  dup2\n    /* \"#utility.yul\":5297:5308   */\n  swap1\n  pop\n    /* \"#utility.yul\":5328:5331   */\n  dup2\n    /* \"#utility.yul\":5325:5326   */\n  0x00\n    /* \"#utility.yul\":5318:5332   */\n  mstore\n    /* \"#utility.yul\":5362:5366   */\n  0x20\n    /* \"#utility.yul\":5359:5360   */\n  0x00\n    /* \"#utility.yul\":5349:5367   */\n  keccak256\n    /* \"#utility.yul\":5341:5367   */\n  swap1\n  pop\n    /* \"#utility.yul\":5234:5374   */\n  swap2\n  swap1\n  pop\n  jump\t// out\n    /* \"#utility.yul\":5380:5921   */\ntag_28:\n    /* \"#utility.yul\":5480:5482   */\n  0x1f\n    /* \"#utility.yul\":5475:5478   */\n  dup3\n    /* \"#utility.yul\":5472:5483   */\n  gt\n    /* \"#utility.yul\":5469:5914   */\n  iszero\n  tag_93\n  jumpi\n    /* \"#utility.yul\":5514:5551   */\n  tag_94\n    /* \"#utility.yul\":5545:5550   */\n  dup2\n    /* \"#utility.yul\":5514:5551   */\n  tag_27\n  jump\t// in\ntag_94:\n    /* \"#utility.yul\":5597:5626   */\n  tag_95\n    /* \"#utility.yul\":5615:5625   */\n  dup5\n    /* \"#utility.yul\":5597:5626   */\n  tag_12\n  jump\t// in\ntag_95:\n    /* \"#utility.yul\":5587:5595   */\n  dup2\n    /* \"#utility.yul\":5583:5627   */\n  add\n    /* \"#utility.yul\":5780:5782   */\n  0x20\n    /* \"#utility.yul\":5768:5778   */\n  dup6\n    /* \"#utility.yul\":5765:5783   */\n  lt\n    /* \"#utility.yul\":5762:5811   */\n  iszero\n  tag_96\n  jumpi\n    /* \"#utility.yul\":5801:5809   */\n  dup2\n    /* \"#utility.yul\":5786:5809   */\n  swap1\n  pop\n    /* \"#utility.yul\":5762:5811   */\ntag_96:\n    /* \"#utility.yul\":5824:5904   */\n  tag_97\n    /* \"#utility.yul\":5880:5902   */\n  tag_98\n    /* \"#utility.yul\":5898:5901   */\n  dup6\n    /* \"#utility.yul\":5880:5902   */\n  tag_12\n  jump\t// in\ntag_98:\n    /* \"#utility.yul\":5870:5878   */\n  dup4\n    /* \"#utility.yul\":5866:5903   */\n  add\n    /* \"#utility.yul\":5853:5864   */\n  dup3\n    /* \"#utility.yul\":5824:5904   */\n  tag_22\n  jump\t// in\ntag_97:\n    /* \"#utility.yul\":5484:5914   */\n  pop\n  pop\n    /* \"#utility.yul\":5469:5914   */\ntag_93:\n    /* \"#utility.yul\":5380:5921   */\n  pop\n  pop\n  pop\n  jump\t// out\n    /* \"#utility.yul\":5927:7319   */\ntag_4:\n    /* \"#utility.yul\":6043:6080   */\n  tag_100\n    /* \"#utility.yul\":6076:6079   */\n  dup3\n    /* \"#utility.yul\":6043:6080   */\n  tag_7\n  jump\t// in\ntag_100:\n    /* \"#utility.yul\":6145:6163   */\n  0xffffffffffffffff\n    /* \"#utility.yul\":6137:6143   */\n  dup2\n    /* \"#utility.yul\":6134:6164   */\n  gt\n    /* \"#utility.yul\":6131:6187   */\n  iszero\n  tag_101\n  jumpi\n    /* \"#utility.yul\":6167:6185   */\n  tag_102\n  tag_8\n  jump\t// in\ntag_102:\n    /* \"#utility.yul\":6131:6187   */\ntag_101:\n    /* \"#utility.yul\":6211:6249   */\n  tag_103\n    /* \"#utility.yul\":6243:6247   */\n  dup3\n    /* \"#utility.yul\":6237:6248   */\n  sload\n    /* \"#utility.yul\":6211:6249   */\n  tag_10\n  jump\t// in\ntag_103:\n    /* \"#utility.yul\":6296:6362   */\n  tag_104\n    /* \"#utility.yul\":6355:6361   */\n  dup3\n    /* \"#utility.yul\":6347:6353   */\n  dup3\n    /* \"#utility.yul\":6341:6345   */\n  dup6\n    /* \"#utility.yul\":6296:6362   */\n  tag_28\n  jump\t// in\ntag_104:\n    /* \"#utility.yul\":6389:6390   */\n  0x00\n    /* \"#utility.yul\":6413:6417   */\n  0x20\n    /* \"#utility.yul\":6400:6417   */\n  swap1\n  pop\n    /* \"#utility.yul\":6445:6447   */\n  0x1f\n    /* \"#utility.yul\":6437:6443   */\n  dup4\n    /* \"#utility.yul\":6434:6448   */\n  gt\n    /* \"#utility.yul\":6462:6463   */\n  0x01\n    /* \"#utility.yul\":6457:7074   */\n  dup2\n  eq\n  tag_106\n  jumpi\n    /* \"#utility.yul\":7118:7119   */\n  0x00\n    /* \"#utility.yul\":7135:7141   */\n  dup5\n    /* \"#utility.yul\":7132:7209   */\n  iszero\n  tag_107\n  jumpi\n    /* \"#utility.yul\":7184:7193   */\n  dup3\n    /* \"#utility.yul\":7179:7182   */\n  dup8\n    /* \"#utility.yul\":7175:7194   */\n  add\n    /* \"#utility.yul\":7169:7195   */\n  mload\n    /* \"#utility.yul\":7160:7195   */\n  swap1\n  pop\n    /* \"#utility.yul\":7132:7209   */\ntag_107:\n    /* \"#utility.yul\":7235:7302   */\n  tag_108\n    /* \"#utility.yul\":7295:7301   */\n  dup6\n    /* \"#utility.yul\":7288:7293   */\n  dup3\n    /* \"#utility.yul\":7235:7302   */\n  tag_26\n  jump\t// in\ntag_108:\n    /* \"#utility.yul\":7229:7233   */\n  dup7\n    /* \"#utility.yul\":7222:7303   */\n  sstore\n    /* \"#utility.yul\":7091:7313   */\n  pop\n    /* \"#utility.yul\":6427:7313   */\n  jump(tag_105)\n    /* \"#utility.yul\":6457:7074   */\ntag_106:\n    /* \"#utility.yul\":6509:6513   */\n  0x1f\n    /* \"#utility.yul\":6505:6514   */\n  not\n    /* \"#utility.yul\":6497:6503   */\n  dup5\n    /* \"#utility.yul\":6493:6515   */\n  and\n    /* \"#utility.yul\":6543:6579   */\n  tag_109\n    /* \"#utility.yul\":6574:6578   */\n  dup7\n    /* \"#utility.yul\":6543:6579   */\n  tag_27\n  jump\t// in\ntag_109:\n    /* \"#utility.yul\":6601:6602   */\n  0x00\n    /* \"#utility.yul\":6615:6823   */\ntag_110:\n    /* \"#utility.yul\":6629:6636   */\n  dup3\n    /* \"#utility.yul\":6626:6627   */\n  dup2\n    /* \"#utility.yul\":6623:6637   */\n  lt\n    /* \"#utility.yul\":6615:6823   */\n  iszero\n  tag_112\n  jumpi\n    /* \"#utility.yul\":6708:6717   */\n  dup5\n    /* \"#utility.yul\":6703:6706   */\n  dup10\n    /* \"#utility.yul\":6699:6718   */\n  add\n    /* \"#utility.yul\":6693:6719   */\n  mload\n    /* \"#utility.yul\":6685:6691   */\n  dup3\n    /* \"#utility.yul\":6678:6720   */\n  sstore\n    /* \"#utility.yul\":6759:6760   */\n  0x01\n    /* \"#utility.yul\":6751:6757   */\n  dup3\n    /* \"#utility.yul\":6747:6761   */\n  add\n    /* \"#utility.yul\":6737:6761   */\n  swap2\n  pop\n    /* \"#utility.yul\":6806:6808   */\n  0x20\n    /* \"#utility.yul\":6795:6804   */\n  dup6\n    /* \"#utility.yul\":6791:6809   */\n  add\n    /* \"#utility.yul\":6778:6809   */\n  swap5\n  pop\n    /* \"#utility.yul\":6652:6656   */\n  0x20\n    /* \"#utility.yul\":6649:6650   */\n  dup2\n    /* \"#utility.yul\":6645:6657   */\n  add\n    /* \"#utility.yul\":6640:6657   */\n  swap1\n  pop\n    /* \"#utility.yul\":6615:6823   */\n  jump(tag_110)\ntag_112:\n    /* \"#utility.yul\":6851:6857   */\n  dup7\n    /* \"#utility.yul\":6842:6849   */\n  dup4\n    /* \"#utility.yul\":6839:6858   */\n  lt\n    /* \"#utility.yul\":6836:7015   */\n  iszero\n  tag_113\n  jumpi\n    /* \"#utility.yul\":6909:6918   */\n  dup5\n    /* \"#utility.yul\":6904:6907   */\n  dup10\n    /* \"#utility.yul\":6900:6919   */\n  add\n    /* \"#utility.yul\":6894:6920   */\n  mload\n    /* \"#utility.yul\":6952:7000   */\n  tag_114\n    /* \"#utility.yul\":6994:6998   */\n  0x1f\n    /* \"#utility.yul\":6986:6992   */\n  dup10\n    /* \"#utility.yul\":6982:6999   */\n  and\n    /* \"#utility.yul\":6971:6980   */\n  dup3\n    /* \"#utility.yul\":6952:7000   */\n  tag_25\n  jump\t// in\ntag_114:\n    /* \"#utility.yul\":6944:6950   */\n  dup4\n    /* \"#utility.yul\":6937:7001   */\n  sstore\n    /* \"#utility.yul\":6859:7015   */\n  pop\n    /* \"#utility.yul\":6836:7015   */\ntag_113:\n    /* \"#utility.yul\":7061:7062   */\n  0x01\n    /* \"#utility.yul\":7057:7058   */\n  0x02\n    /* \"#utility.yul\":7049:7055   */\n  dup9\n    /* \"#utility.yul\":7045:7059   */\n  mul\n    /* \"#utility.yul\":7041:7063   */\n  add\n    /* \"#utility.yul\":7035:7039   */\n  dup9\n    /* \"#utility.yul\":7028:7064   */\n  sstore\n    /* \"#utility.yul\":6464:7074   */\n  pop\n  pop\n  pop\n    /* \"#utility.yul\":6427:7313   */\ntag_105:\n  pop\n    /* \"#utility.yul\":6018:7319   */\n  pop\n  pop\n  pop\n    /* \"#utility.yul\":5927:7319   */\n  pop\n  pop\n  jump\t// out\n    /* \"contracts/EthStrings.sol\":57:462  contract EthStrings {... */\ntag_6:\n  dataSize(sub_0)\n  dup1\n  dataOffset(sub_0)\n  0x00\n  codecopy\n  0x00\n  return\nstop\n\nsub_0: assembly {\n        /* \"contracts/EthStrings.sol\":57:462  contract EthStrings {... */\n      mstore(0x40, 0x80)\n      callvalue\n      dup1\n      iszero\n      tag_1\n      jumpi\n      0x00\n      dup1\n      revert\n    tag_1:\n      pop\n      jumpi(tag_2, lt(calldatasize, 0x04))\n      shr(0xe0, calldataload(0x00))\n      dup1\n      0x492bfa18\n      eq\n      tag_3\n      jumpi\n      dup1\n      0x5907432d\n      eq\n      tag_4\n      jumpi\n      dup1\n      0x82180568\n      eq\n      tag_5\n      jumpi\n      dup1\n      0xe5f199b5\n      eq\n      tag_6\n      jumpi\n    tag_2:\n      0x00\n      dup1\n      revert\n        /* \"contracts/EthStrings.sol\":84:122  string public myString = \"Hello World\" */\n    tag_3:\n      tag_7\n      tag_8\n      jump\t// in\n    tag_7:\n      mload(0x40)\n      tag_9\n      swap2\n      swap1\n      tag_10\n      jump\t// in\n    tag_9:\n      mload(0x40)\n      dup1\n      swap2\n      sub\n      swap1\n      return\n        /* \"contracts/EthStrings.sol\":375:460  function setMyBytes (bytes memory _myByte) public {... */\n    tag_4:\n      tag_11\n      0x04\n      dup1\n      calldatasize\n      sub\n      dup2\n      add\n      swap1\n      tag_12\n      swap2\n      swap1\n      tag_13\n      jump\t// in\n    tag_12:\n      tag_14\n      jump\t// in\n    tag_11:\n      stop\n        /* \"contracts/EthStrings.sol\":164:257  function setMyString (string memory _myString) public {... */\n    tag_5:\n      tag_15\n      0x04\n      dup1\n      calldatasize\n      sub\n      dup2\n      add\n      swap1\n      tag_16\n      swap2\n      swap1\n      tag_17\n      jump\t// in\n    tag_16:\n      tag_18\n      jump\t// in\n    tag_15:\n      stop\n        /* \"contracts/EthStrings.sol\":306:341  bytes public myByte = \"Hello World\" */\n    tag_6:\n      tag_19\n      tag_20\n      jump\t// in\n    tag_19:\n      mload(0x40)\n      tag_21\n      swap2\n      swap1\n      tag_22\n      jump\t// in\n    tag_21:\n      mload(0x40)\n      dup1\n      swap2\n      sub\n      swap1\n      return\n        /* \"contracts/EthStrings.sol\":84:122  string public myString = \"Hello World\" */\n    tag_8:\n      0x00\n      dup1\n      sload\n      tag_23\n      swap1\n      tag_24\n      jump\t// in\n    tag_23:\n      dup1\n      0x1f\n      add\n      0x20\n      dup1\n      swap2\n      div\n      mul\n      0x20\n      add\n      mload(0x40)\n      swap1\n      dup2\n      add\n      0x40\n      mstore\n      dup1\n      swap3\n      swap2\n      swap1\n      dup2\n      dup2\n      mstore\n      0x20\n      add\n      dup3\n      dup1\n      sload\n      tag_25\n      swap1\n      tag_24\n      jump\t// in\n    tag_25:\n      dup1\n      iszero\n      tag_26\n      jumpi\n      dup1\n      0x1f\n      lt\n      tag_27\n      jumpi\n      0x0100\n      dup1\n      dup4\n      sload\n      div\n      mul\n      dup4\n      mstore\n      swap2\n      0x20\n      add\n      swap2\n      jump(tag_26)\n    tag_27:\n      dup3\n      add\n      swap2\n      swap1\n      0x00\n      mstore\n      keccak256(0x00, 0x20)\n      swap1\n    tag_28:\n      dup2\n      sload\n      dup2\n      mstore\n      swap1\n      0x01\n      add\n      swap1\n      0x20\n      add\n      dup1\n      dup4\n      gt\n      tag_28\n      jumpi\n      dup3\n      swap1\n      sub\n      0x1f\n      and\n      dup3\n      add\n      swap2\n    tag_26:\n      pop\n      pop\n      pop\n      pop\n      pop\n      dup2\n      jump\t// out\n        /* \"contracts/EthStrings.sol\":375:460  function setMyBytes (bytes memory _myByte) public {... */\n    tag_14:\n        /* \"contracts/EthStrings.sol\":445:452  _myByte */\n      dup1\n        /* \"contracts/EthStrings.sol\":436:442  myByte */\n      0x01\n        /* \"contracts/EthStrings.sol\":436:452  myByte = _myByte */\n      swap1\n      dup2\n      tag_30\n      swap2\n      swap1\n      tag_31\n      jump\t// in\n    tag_30:\n      pop\n        /* \"contracts/EthStrings.sol\":375:460  function setMyBytes (bytes memory _myByte) public {... */\n      pop\n      jump\t// out\n        /* \"contracts/EthStrings.sol\":164:257  function setMyString (string memory _myString) public {... */\n    tag_18:\n        /* \"contracts/EthStrings.sol\":240:249  _myString */\n      dup1\n        /* \"contracts/EthStrings.sol\":229:237  myString */\n      0x00\n        /* \"contracts/EthStrings.sol\":229:249  myString = _myString */\n      swap1\n      dup2\n      tag_33\n      swap2\n      swap1\n      tag_34\n      jump\t// in\n    tag_33:\n      pop\n        /* \"contracts/EthStrings.sol\":164:257  function setMyString (string memory _myString) public {... */\n      pop\n      jump\t// out\n        /* \"contracts/EthStrings.sol\":306:341  bytes public myByte = \"Hello World\" */\n    tag_20:\n      0x01\n      dup1\n      sload\n      tag_35\n      swap1\n      tag_24\n      jump\t// in\n    tag_35:\n      dup1\n      0x1f\n      add\n      0x20\n      dup1\n      swap2\n      div\n      mul\n      0x20\n      add\n      mload(0x40)\n      swap1\n      dup2\n      add\n      0x40\n      mstore\n      dup1\n      swap3\n      swap2\n      swap1\n      dup2\n      dup2\n      mstore\n      0x20\n      add\n      dup3\n      dup1\n      sload\n      tag_36\n      swap1\n      tag_24\n      jump\t// in\n    tag_36:\n      dup1\n      iszero\n      tag_37\n      jumpi\n      dup1\n      0x1f\n      lt\n      tag_38\n      jumpi\n      0x0100\n      dup1\n      dup4\n      sload\n      div\n      mul\n      dup4\n      mstore\n      swap2\n      0x20\n      add\n      swap2\n      jump(tag_37)\n    tag_38:\n      dup3\n      add\n      swap2\n      swap1\n      0x00\n      mstore\n      keccak256(0x00, 0x20)\n      swap1\n    tag_39:\n      dup2\n      sload\n      dup2\n      mstore\n      swap1\n      0x01\n      add\n      swap1\n      0x20\n      add\n      dup1\n      dup4\n      gt\n      tag_39\n      jumpi\n      dup3\n      swap1\n      sub\n      0x1f\n      and\n      dup3\n      add\n      swap2\n    tag_37:\n      pop\n      pop\n      pop\n      pop\n      pop\n      dup2\n      jump\t// out\n        /* \"#utility.yul\":7:106   */\n    tag_40:\n        /* \"#utility.yul\":59:65   */\n      0x00\n        /* \"#utility.yul\":93:98   */\n      dup2\n        /* \"#utility.yul\":87:99   */\n      mload\n        /* \"#utility.yul\":77:99   */\n      swap1\n      pop\n        /* \"#utility.yul\":7:106   */\n      swap2\n      swap1\n      pop\n      jump\t// out\n        /* \"#utility.yul\":112:281   */\n    tag_41:\n        /* \"#utility.yul\":196:207   */\n      0x00\n        /* \"#utility.yul\":230:236   */\n      dup3\n        /* \"#utility.yul\":225:228   */\n      dup3\n        /* \"#utility.yul\":218:237   */\n      mstore\n        /* \"#utility.yul\":270:274   */\n      0x20\n        /* \"#utility.yul\":265:268   */\n      dup3\n        /* \"#utility.yul\":261:275   */\n      add\n        /* \"#utility.yul\":246:275   */\n      swap1\n      pop\n        /* \"#utility.yul\":112:281   */\n      swap3\n      swap2\n      pop\n      pop\n      jump\t// out\n        /* \"#utility.yul\":287:426   */\n    tag_42:\n        /* \"#utility.yul\":376:382   */\n      dup3\n        /* \"#utility.yul\":371:374   */\n      dup2\n        /* \"#utility.yul\":366:369   */\n      dup4\n        /* \"#utility.yul\":360:383   */\n      mcopy\n        /* \"#utility.yul\":417:418   */\n      0x00\n        /* \"#utility.yul\":408:414   */\n      dup4\n        /* \"#utility.yul\":403:406   */\n      dup4\n        /* \"#utility.yul\":399:415   */\n      add\n        /* \"#utility.yul\":392:419   */\n      mstore\n        /* \"#utility.yul\":287:426   */\n      pop\n      pop\n      pop\n      jump\t// out\n        /* \"#utility.yul\":432:534   */\n    tag_43:\n        /* \"#utility.yul\":473:479   */\n      0x00\n        /* \"#utility.yul\":524:526   */\n      0x1f\n        /* \"#utility.yul\":520:527   */\n      not\n        /* \"#utility.yul\":515:517   */\n      0x1f\n        /* \"#utility.yul\":508:513   */\n      dup4\n        /* \"#utility.yul\":504:518   */\n      add\n        /* \"#utility.yul\":500:528   */\n      and\n        /* \"#utility.yul\":490:528   */\n      swap1\n      pop\n        /* \"#utility.yul\":432:534   */\n      swap2\n      swap1\n      pop\n      jump\t// out\n        /* \"#utility.yul\":540:917   */\n    tag_44:\n        /* \"#utility.yul\":628:631   */\n      0x00\n        /* \"#utility.yul\":656:695   */\n      tag_88\n        /* \"#utility.yul\":689:694   */\n      dup3\n        /* \"#utility.yul\":656:695   */\n      tag_40\n      jump\t// in\n    tag_88:\n        /* \"#utility.yul\":711:782   */\n      tag_89\n        /* \"#utility.yul\":775:781   */\n      dup2\n        /* \"#utility.yul\":770:773   */\n      dup6\n        /* \"#utility.yul\":711:782   */\n      tag_41\n      jump\t// in\n    tag_89:\n        /* \"#utility.yul\":704:782   */\n      swap4\n      pop\n        /* \"#utility.yul\":791:856   */\n      tag_90\n        /* \"#utility.yul\":849:855   */\n      dup2\n        /* \"#utility.yul\":844:847   */\n      dup6\n        /* \"#utility.yul\":837:841   */\n      0x20\n        /* \"#utility.yul\":830:835   */\n      dup7\n        /* \"#utility.yul\":826:842   */\n      add\n        /* \"#utility.yul\":791:856   */\n      tag_42\n      jump\t// in\n    tag_90:\n        /* \"#utility.yul\":881:910   */\n      tag_91\n        /* \"#utility.yul\":903:909   */\n      dup2\n        /* \"#utility.yul\":881:910   */\n      tag_43\n      jump\t// in\n    tag_91:\n        /* \"#utility.yul\":876:879   */\n      dup5\n        /* \"#utility.yul\":872:911   */\n      add\n        /* \"#utility.yul\":865:911   */\n      swap2\n      pop\n        /* \"#utility.yul\":632:917   */\n      pop\n        /* \"#utility.yul\":540:917   */\n      swap3\n      swap2\n      pop\n      pop\n      jump\t// out\n        /* \"#utility.yul\":923:1236   */\n    tag_10:\n        /* \"#utility.yul\":1036:1040   */\n      0x00\n        /* \"#utility.yul\":1074:1076   */\n      0x20\n        /* \"#utility.yul\":1063:1072   */\n      dup3\n        /* \"#utility.yul\":1059:1077   */\n      add\n        /* \"#utility.yul\":1051:1077   */\n      swap1\n      pop\n        /* \"#utility.yul\":1123:1132   */\n      dup2\n        /* \"#utility.yul\":1117:1121   */\n      dup2\n        /* \"#utility.yul\":1113:1133   */\n      sub\n        /* \"#utility.yul\":1109:1110   */\n      0x00\n        /* \"#utility.yul\":1098:1107   */\n      dup4\n        /* \"#utility.yul\":1094:1111   */\n      add\n        /* \"#utility.yul\":1087:1134   */\n      mstore\n        /* \"#utility.yul\":1151:1229   */\n      tag_93\n        /* \"#utility.yul\":1224:1228   */\n      dup2\n        /* \"#utility.yul\":1215:1221   */\n      dup5\n        /* \"#utility.yul\":1151:1229   */\n      tag_44\n      jump\t// in\n    tag_93:\n        /* \"#utility.yul\":1143:1229   */\n      swap1\n      pop\n        /* \"#utility.yul\":923:1236   */\n      swap3\n      swap2\n      pop\n      pop\n      jump\t// out\n        /* \"#utility.yul\":1242:1317   */\n    tag_45:\n        /* \"#utility.yul\":1275:1281   */\n      0x00\n        /* \"#utility.yul\":1308:1310   */\n      0x40\n        /* \"#utility.yul\":1302:1311   */\n      mload\n        /* \"#utility.yul\":1292:1311   */\n      swap1\n      pop\n        /* \"#utility.yul\":1242:1317   */\n      swap1\n      jump\t// out\n        /* \"#utility.yul\":1323:1440   */\n    tag_46:\n        /* \"#utility.yul\":1432:1433   */\n      0x00\n        /* \"#utility.yul\":1429:1430   */\n      dup1\n        /* \"#utility.yul\":1422:1434   */\n      revert\n        /* \"#utility.yul\":1446:1563   */\n    tag_47:\n        /* \"#utility.yul\":1555:1556   */\n      0x00\n        /* \"#utility.yul\":1552:1553   */\n      dup1\n        /* \"#utility.yul\":1545:1557   */\n      revert\n        /* \"#utility.yul\":1569:1686   */\n    tag_48:\n        /* \"#utility.yul\":1678:1679   */\n      0x00\n        /* \"#utility.yul\":1675:1676   */\n      dup1\n        /* \"#utility.yul\":1668:1680   */\n      revert\n        /* \"#utility.yul\":1692:1809   */\n    tag_49:\n        /* \"#utility.yul\":1801:1802   */\n      0x00\n        /* \"#utility.yul\":1798:1799   */\n      dup1\n        /* \"#utility.yul\":1791:1803   */\n      revert\n        /* \"#utility.yul\":1815:1995   */\n    tag_50:\n        /* \"#utility.yul\":1863:1940   */\n      0x4e487b7100000000000000000000000000000000000000000000000000000000\n        /* \"#utility.yul\":1860:1861   */\n      0x00\n        /* \"#utility.yul\":1853:1941   */\n      mstore\n        /* \"#utility.yul\":1960:1964   */\n      0x41\n        /* \"#utility.yul\":1957:1958   */\n      0x04\n        /* \"#utility.yul\":1950:1965   */\n      mstore\n        /* \"#utility.yul\":1984:1988   */\n      0x24\n        /* \"#utility.yul\":1981:1982   */\n      0x00\n        /* \"#utility.yul\":1974:1989   */\n      revert\n        /* \"#utility.yul\":2001:2282   */\n    tag_51:\n        /* \"#utility.yul\":2084:2111   */\n      tag_101\n        /* \"#utility.yul\":2106:2110   */\n      dup3\n        /* \"#utility.yul\":2084:2111   */\n      tag_43\n      jump\t// in\n    tag_101:\n        /* \"#utility.yul\":2076:2082   */\n      dup2\n        /* \"#utility.yul\":2072:2112   */\n      add\n        /* \"#utility.yul\":2214:2220   */\n      dup2\n        /* \"#utility.yul\":2202:2212   */\n      dup2\n        /* \"#utility.yul\":2199:2221   */\n      lt\n        /* \"#utility.yul\":2178:2196   */\n      0xffffffffffffffff\n        /* \"#utility.yul\":2166:2176   */\n      dup3\n        /* \"#utility.yul\":2163:2197   */\n      gt\n        /* \"#utility.yul\":2160:2222   */\n      or\n        /* \"#utility.yul\":2157:2245   */\n      iszero\n      tag_102\n      jumpi\n        /* \"#utility.yul\":2225:2243   */\n      tag_103\n      tag_50\n      jump\t// in\n    tag_103:\n        /* \"#utility.yul\":2157:2245   */\n    tag_102:\n        /* \"#utility.yul\":2265:2275   */\n      dup1\n        /* \"#utility.yul\":2261:2263   */\n      0x40\n        /* \"#utility.yul\":2254:2276   */\n      mstore\n        /* \"#utility.yul\":2044:2282   */\n      pop\n        /* \"#utility.yul\":2001:2282   */\n      pop\n      pop\n      jump\t// out\n        /* \"#utility.yul\":2288:2417   */\n    tag_52:\n        /* \"#utility.yul\":2322:2328   */\n      0x00\n        /* \"#utility.yul\":2349:2369   */\n      tag_105\n      tag_45\n      jump\t// in\n    tag_105:\n        /* \"#utility.yul\":2339:2369   */\n      swap1\n      pop\n        /* \"#utility.yul\":2378:2411   */\n      tag_106\n        /* \"#utility.yul\":2406:2410   */\n      dup3\n        /* \"#utility.yul\":2398:2404   */\n      dup3\n        /* \"#utility.yul\":2378:2411   */\n      tag_51\n      jump\t// in\n    tag_106:\n        /* \"#utility.yul\":2288:2417   */\n      swap2\n      swap1\n      pop\n      jump\t// out\n        /* \"#utility.yul\":2423:2730   */\n    tag_53:\n        /* \"#utility.yul\":2484:2488   */\n      0x00\n        /* \"#utility.yul\":2574:2592   */\n      0xffffffffffffffff\n        /* \"#utility.yul\":2566:2572   */\n      dup3\n        /* \"#utility.yul\":2563:2593   */\n      gt\n        /* \"#utility.yul\":2560:2616   */\n      iszero\n      tag_108\n      jumpi\n        /* \"#utility.yul\":2596:2614   */\n      tag_109\n      tag_50\n      jump\t// in\n    tag_109:\n        /* \"#utility.yul\":2560:2616   */\n    tag_108:\n        /* \"#utility.yul\":2634:2663   */\n      tag_110\n        /* \"#utility.yul\":2656:2662   */\n      dup3\n        /* \"#utility.yul\":2634:2663   */\n      tag_43\n      jump\t// in\n    tag_110:\n        /* \"#utility.yul\":2626:2663   */\n      swap1\n      pop\n        /* \"#utility.yul\":2718:2722   */\n      0x20\n        /* \"#utility.yul\":2712:2716   */\n      dup2\n        /* \"#utility.yul\":2708:2723   */\n      add\n        /* \"#utility.yul\":2700:2723   */\n      swap1\n      pop\n        /* \"#utility.yul\":2423:2730   */\n      swap2\n      swap1\n      pop\n      jump\t// out\n        /* \"#utility.yul\":2736:2884   */\n    tag_54:\n        /* \"#utility.yul\":2834:2840   */\n      dup3\n        /* \"#utility.yul\":2829:2832   */\n      dup2\n        /* \"#utility.yul\":2824:2827   */\n      dup4\n        /* \"#utility.yul\":2811:2841   */\n      calldatacopy\n        /* \"#utility.yul\":2875:2876   */\n      0x00\n        /* \"#utility.yul\":2866:2872   */\n      dup4\n        /* \"#utility.yul\":2861:2864   */\n      dup4\n        /* \"#utility.yul\":2857:2873   */\n      add\n        /* \"#utility.yul\":2850:2877   */\n      mstore\n        /* \"#utility.yul\":2736:2884   */\n      pop\n      pop\n      pop\n      jump\t// out\n        /* \"#utility.yul\":2890:3313   */\n    tag_55:\n        /* \"#utility.yul\":2967:2972   */\n      0x00\n        /* \"#utility.yul\":2992:3057   */\n      tag_113\n        /* \"#utility.yul\":3008:3056   */\n      tag_114\n        /* \"#utility.yul\":3049:3055   */\n      dup5\n        /* \"#utility.yul\":3008:3056   */\n      tag_53\n      jump\t// in\n    tag_114:\n        /* \"#utility.yul\":2992:3057   */\n      tag_52\n      jump\t// in\n    tag_113:\n        /* \"#utility.yul\":2983:3057   */\n      swap1\n      pop\n        /* \"#utility.yul\":3080:3086   */\n      dup3\n        /* \"#utility.yul\":3073:3078   */\n      dup2\n        /* \"#utility.yul\":3066:3087   */\n      mstore\n        /* \"#utility.yul\":3118:3122   */\n      0x20\n        /* \"#utility.yul\":3111:3116   */\n      dup2\n        /* \"#utility.yul\":3107:3123   */\n      add\n        /* \"#utility.yul\":3156:3159   */\n      dup5\n        /* \"#utility.yul\":3147:3153   */\n      dup5\n        /* \"#utility.yul\":3142:3145   */\n      dup5\n        /* \"#utility.yul\":3138:3154   */\n      add\n        /* \"#utility.yul\":3135:3160   */\n      gt\n        /* \"#utility.yul\":3132:3244   */\n      iszero\n      tag_115\n      jumpi\n        /* \"#utility.yul\":3163:3242   */\n      tag_116\n      tag_49\n      jump\t// in\n    tag_116:\n        /* \"#utility.yul\":3132:3244   */\n    tag_115:\n        /* \"#utility.yul\":3253:3307   */\n      tag_117\n        /* \"#utility.yul\":3300:3306   */\n      dup5\n        /* \"#utility.yul\":3295:3298   */\n      dup3\n        /* \"#utility.yul\":3290:3293   */\n      dup6\n        /* \"#utility.yul\":3253:3307   */\n      tag_54\n      jump\t// in\n    tag_117:\n        /* \"#utility.yul\":2973:3313   */\n      pop\n        /* \"#utility.yul\":2890:3313   */\n      swap4\n      swap3\n      pop\n      pop\n      pop\n      jump\t// out\n        /* \"#utility.yul\":3332:3670   */\n    tag_56:\n        /* \"#utility.yul\":3387:3392   */\n      0x00\n        /* \"#utility.yul\":3436:3439   */\n      dup3\n        /* \"#utility.yul\":3429:3433   */\n      0x1f\n        /* \"#utility.yul\":3421:3427   */\n      dup4\n        /* \"#utility.yul\":3417:3434   */\n      add\n        /* \"#utility.yul\":3413:3440   */\n      slt\n        /* \"#utility.yul\":3403:3525   */\n      tag_119\n      jumpi\n        /* \"#utility.yul\":3444:3523   */\n      tag_120\n      tag_48\n      jump\t// in\n    tag_120:\n        /* \"#utility.yul\":3403:3525   */\n    tag_119:\n        /* \"#utility.yul\":3561:3567   */\n      dup2\n        /* \"#utility.yul\":3548:3568   */\n      calldataload\n        /* \"#utility.yul\":3586:3664   */\n      tag_121\n        /* \"#utility.yul\":3660:3663   */\n      dup5\n        /* \"#utility.yul\":3652:3658   */\n      dup3\n        /* \"#utility.yul\":3645:3649   */\n      0x20\n        /* \"#utility.yul\":3637:3643   */\n      dup7\n        /* \"#utility.yul\":3633:3650   */\n      add\n        /* \"#utility.yul\":3586:3664   */\n      tag_55\n      jump\t// in\n    tag_121:\n        /* \"#utility.yul\":3577:3664   */\n      swap2\n      pop\n        /* \"#utility.yul\":3393:3670   */\n      pop\n        /* \"#utility.yul\":3332:3670   */\n      swap3\n      swap2\n      pop\n      pop\n      jump\t// out\n        /* \"#utility.yul\":3676:4183   */\n    tag_13:\n        /* \"#utility.yul\":3744:3750   */\n      0x00\n        /* \"#utility.yul\":3793:3795   */\n      0x20\n        /* \"#utility.yul\":3781:3790   */\n      dup3\n        /* \"#utility.yul\":3772:3779   */\n      dup5\n        /* \"#utility.yul\":3768:3791   */\n      sub\n        /* \"#utility.yul\":3764:3796   */\n      slt\n        /* \"#utility.yul\":3761:3880   */\n      iszero\n      tag_123\n      jumpi\n        /* \"#utility.yul\":3799:3878   */\n      tag_124\n      tag_46\n      jump\t// in\n    tag_124:\n        /* \"#utility.yul\":3761:3880   */\n    tag_123:\n        /* \"#utility.yul\":3947:3948   */\n      0x00\n        /* \"#utility.yul\":3936:3945   */\n      dup3\n        /* \"#utility.yul\":3932:3949   */\n      add\n        /* \"#utility.yul\":3919:3950   */\n      calldataload\n        /* \"#utility.yul\":3977:3995   */\n      0xffffffffffffffff\n        /* \"#utility.yul\":3969:3975   */\n      dup2\n        /* \"#utility.yul\":3966:3996   */\n      gt\n        /* \"#utility.yul\":3963:4080   */\n      iszero\n      tag_125\n      jumpi\n        /* \"#utility.yul\":3999:4078   */\n      tag_126\n      tag_47\n      jump\t// in\n    tag_126:\n        /* \"#utility.yul\":3963:4080   */\n    tag_125:\n        /* \"#utility.yul\":4104:4166   */\n      tag_127\n        /* \"#utility.yul\":4158:4165   */\n      dup5\n        /* \"#utility.yul\":4149:4155   */\n      dup3\n        /* \"#utility.yul\":4138:4147   */\n      dup6\n        /* \"#utility.yul\":4134:4156   */\n      add\n        /* \"#utility.yul\":4104:4166   */\n      tag_56\n      jump\t// in\n    tag_127:\n        /* \"#utility.yul\":4094:4166   */\n      swap2\n      pop\n        /* \"#utility.yul\":3890:4176   */\n      pop\n        /* \"#utility.yul\":3676:4183   */\n      swap3\n      swap2\n      pop\n      pop\n      jump\t// out\n        /* \"#utility.yul\":4189:4497   */\n    tag_57:\n        /* \"#utility.yul\":4251:4255   */\n      0x00\n        /* \"#utility.yul\":4341:4359   */\n      0xffffffffffffffff\n        /* \"#utility.yul\":4333:4339   */\n      dup3\n        /* \"#utility.yul\":4330:4360   */\n      gt\n        /* \"#utility.yul\":4327:4383   */\n      iszero\n      tag_129\n      jumpi\n        /* \"#utility.yul\":4363:4381   */\n      tag_130\n      tag_50\n      jump\t// in\n    tag_130:\n        /* \"#utility.yul\":4327:4383   */\n    tag_129:\n        /* \"#utility.yul\":4401:4430   */\n      tag_131\n        /* \"#utility.yul\":4423:4429   */\n      dup3\n        /* \"#utility.yul\":4401:4430   */\n      tag_43\n      jump\t// in\n    tag_131:\n        /* \"#utility.yul\":4393:4430   */\n      swap1\n      pop\n        /* \"#utility.yul\":4485:4489   */\n      0x20\n        /* \"#utility.yul\":4479:4483   */\n      dup2\n        /* \"#utility.yul\":4475:4490   */\n      add\n        /* \"#utility.yul\":4467:4490   */\n      swap1\n      pop\n        /* \"#utility.yul\":4189:4497   */\n      swap2\n      swap1\n      pop\n      jump\t// out\n        /* \"#utility.yul\":4503:4928   */\n    tag_58:\n        /* \"#utility.yul\":4581:4586   */\n      0x00\n        /* \"#utility.yul\":4606:4672   */\n      tag_133\n        /* \"#utility.yul\":4622:4671   */\n      tag_134\n        /* \"#utility.yul\":4664:4670   */\n      dup5\n        /* \"#utility.yul\":4622:4671   */\n      tag_57\n      jump\t// in\n    tag_134:\n        /* \"#utility.yul\":4606:4672   */\n      tag_52\n      jump\t// in\n    tag_133:\n        /* \"#utility.yul\":4597:4672   */\n      swap1\n      pop\n        /* \"#utility.yul\":4695:4701   */\n      dup3\n        /* \"#utility.yul\":4688:4693   */\n      dup2\n        /* \"#utility.yul\":4681:4702   */\n      mstore\n        /* \"#utility.yul\":4733:4737   */\n      0x20\n        /* \"#utility.yul\":4726:4731   */\n      dup2\n        /* \"#utility.yul\":4722:4738   */\n      add\n        /* \"#utility.yul\":4771:4774   */\n      dup5\n        /* \"#utility.yul\":4762:4768   */\n      dup5\n        /* \"#utility.yul\":4757:4760   */\n      dup5\n        /* \"#utility.yul\":4753:4769   */\n      add\n        /* \"#utility.yul\":4750:4775   */\n      gt\n        /* \"#utility.yul\":4747:4859   */\n      iszero\n      tag_135\n      jumpi\n        /* \"#utility.yul\":4778:4857   */\n      tag_136\n      tag_49\n      jump\t// in\n    tag_136:\n        /* \"#utility.yul\":4747:4859   */\n    tag_135:\n        /* \"#utility.yul\":4868:4922   */\n      tag_137\n        /* \"#utility.yul\":4915:4921   */\n      dup5\n        /* \"#utility.yul\":4910:4913   */\n      dup3\n        /* \"#utility.yul\":4905:4908   */\n      dup6\n        /* \"#utility.yul\":4868:4922   */\n      tag_54\n      jump\t// in\n    tag_137:\n        /* \"#utility.yul\":4587:4928   */\n      pop\n        /* \"#utility.yul\":4503:4928   */\n      swap4\n      swap3\n      pop\n      pop\n      pop\n      jump\t// out\n        /* \"#utility.yul\":4948:5288   */\n    tag_59:\n        /* \"#utility.yul\":5004:5009   */\n      0x00\n        /* \"#utility.yul\":5053:5056   */\n      dup3\n        /* \"#utility.yul\":5046:5050   */\n      0x1f\n        /* \"#utility.yul\":5038:5044   */\n      dup4\n        /* \"#utility.yul\":5034:5051   */\n      add\n        /* \"#utility.yul\":5030:5057   */\n      slt\n        /* \"#utility.yul\":5020:5142   */\n      tag_139\n      jumpi\n        /* \"#utility.yul\":5061:5140   */\n      tag_140\n      tag_48\n      jump\t// in\n    tag_140:\n        /* \"#utility.yul\":5020:5142   */\n    tag_139:\n        /* \"#utility.yul\":5178:5184   */\n      dup2\n        /* \"#utility.yul\":5165:5185   */\n      calldataload\n        /* \"#utility.yul\":5203:5282   */\n      tag_141\n        /* \"#utility.yul\":5278:5281   */\n      dup5\n        /* \"#utility.yul\":5270:5276   */\n      dup3\n        /* \"#utility.yul\":5263:5267   */\n      0x20\n        /* \"#utility.yul\":5255:5261   */\n      dup7\n        /* \"#utility.yul\":5251:5268   */\n      add\n        /* \"#utility.yul\":5203:5282   */\n      tag_58\n      jump\t// in\n    tag_141:\n        /* \"#utility.yul\":5194:5282   */\n      swap2\n      pop\n        /* \"#utility.yul\":5010:5288   */\n      pop\n        /* \"#utility.yul\":4948:5288   */\n      swap3\n      swap2\n      pop\n      pop\n      jump\t// out\n        /* \"#utility.yul\":5294:5803   */\n    tag_17:\n        /* \"#utility.yul\":5363:5369   */\n      0x00\n        /* \"#utility.yul\":5412:5414   */\n      0x20\n        /* \"#utility.yul\":5400:5409   */\n      dup3\n        /* \"#utility.yul\":5391:5398   */\n      dup5\n        /* \"#utility.yul\":5387:5410   */\n      sub\n        /* \"#utility.yul\":5383:5415   */\n      slt\n        /* \"#utility.yul\":5380:5499   */\n      iszero\n      tag_143\n      jumpi\n        /* \"#utility.yul\":5418:5497   */\n      tag_144\n      tag_46\n      jump\t// in\n    tag_144:\n        /* \"#utility.yul\":5380:5499   */\n    tag_143:\n        /* \"#utility.yul\":5566:5567   */\n      0x00\n        /* \"#utility.yul\":5555:5564   */\n      dup3\n        /* \"#utility.yul\":5551:5568   */\n      add\n        /* \"#utility.yul\":5538:5569   */\n      calldataload\n        /* \"#utility.yul\":5596:5614   */\n      0xffffffffffffffff\n        /* \"#utility.yul\":5588:5594   */\n      dup2\n        /* \"#utility.yul\":5585:5615   */\n      gt\n        /* \"#utility.yul\":5582:5699   */\n      iszero\n      tag_145\n      jumpi\n        /* \"#utility.yul\":5618:5697   */\n      tag_146\n      tag_47\n      jump\t// in\n    tag_146:\n        /* \"#utility.yul\":5582:5699   */\n    tag_145:\n        /* \"#utility.yul\":5723:5786   */\n      tag_147\n        /* \"#utility.yul\":5778:5785   */\n      dup5\n        /* \"#utility.yul\":5769:5775   */\n      dup3\n        /* \"#utility.yul\":5758:5767   */\n      dup6\n        /* \"#utility.yul\":5754:5776   */\n      add\n        /* \"#utility.yul\":5723:5786   */\n      tag_59\n      jump\t// in\n    tag_147:\n        /* \"#utility.yul\":5713:5786   */\n      swap2\n      pop\n        /* \"#utility.yul\":5509:5796   */\n      pop\n        /* \"#utility.yul\":5294:5803   */\n      swap3\n      swap2\n      pop\n      pop\n      jump\t// out\n        /* \"#utility.yul\":5809:5907   */\n    tag_60:\n        /* \"#utility.yul\":5860:5866   */\n      0x00\n        /* \"#utility.yul\":5894:5899   */\n      dup2\n        /* \"#utility.yul\":5888:5900   */\n      mload\n        /* \"#utility.yul\":5878:5900   */\n      swap1\n      pop\n        /* \"#utility.yul\":5809:5907   */\n      swap2\n      swap1\n      pop\n      jump\t// out\n        /* \"#utility.yul\":5913:6081   */\n    tag_61:\n        /* \"#utility.yul\":5996:6007   */\n      0x00\n        /* \"#utility.yul\":6030:6036   */\n      dup3\n        /* \"#utility.yul\":6025:6028   */\n      dup3\n        /* \"#utility.yul\":6018:6037   */\n      mstore\n        /* \"#utility.yul\":6070:6074   */\n      0x20\n        /* \"#utility.yul\":6065:6068   */\n      dup3\n        /* \"#utility.yul\":6061:6075   */\n      add\n        /* \"#utility.yul\":6046:6075   */\n      swap1\n      pop\n        /* \"#utility.yul\":5913:6081   */\n      swap3\n      swap2\n      pop\n      pop\n      jump\t// out\n        /* \"#utility.yul\":6087:6460   */\n    tag_62:\n        /* \"#utility.yul\":6173:6176   */\n      0x00\n        /* \"#utility.yul\":6201:6239   */\n      tag_151\n        /* \"#utility.yul\":6233:6238   */\n      dup3\n        /* \"#utility.yul\":6201:6239   */\n      tag_60\n      jump\t// in\n    tag_151:\n        /* \"#utility.yul\":6255:6325   */\n      tag_152\n        /* \"#utility.yul\":6318:6324   */\n      dup2\n        /* \"#utility.yul\":6313:6316   */\n      dup6\n        /* \"#utility.yul\":6255:6325   */\n      tag_61\n      jump\t// in\n    tag_152:\n        /* \"#utility.yul\":6248:6325   */\n      swap4\n      pop\n        /* \"#utility.yul\":6334:6399   */\n      tag_153\n        /* \"#utility.yul\":6392:6398   */\n      dup2\n        /* \"#utility.yul\":6387:6390   */\n      dup6\n        /* \"#utility.yul\":6380:6384   */\n      0x20\n        /* \"#utility.yul\":6373:6378   */\n      dup7\n        /* \"#utility.yul\":6369:6385   */\n      add\n        /* \"#utility.yul\":6334:6399   */\n      tag_42\n      jump\t// in\n    tag_153:\n        /* \"#utility.yul\":6424:6453   */\n      tag_154\n        /* \"#utility.yul\":6446:6452   */\n      dup2\n        /* \"#utility.yul\":6424:6453   */\n      tag_43\n      jump\t// in\n    tag_154:\n        /* \"#utility.yul\":6419:6422   */\n      dup5\n        /* \"#utility.yul\":6415:6454   */\n      add\n        /* \"#utility.yul\":6408:6454   */\n      swap2\n      pop\n        /* \"#utility.yul\":6177:6460   */\n      pop\n        /* \"#utility.yul\":6087:6460   */\n      swap3\n      swap2\n      pop\n      pop\n      jump\t// out\n        /* \"#utility.yul\":6466:6775   */\n    tag_22:\n        /* \"#utility.yul\":6577:6581   */\n      0x00\n        /* \"#utility.yul\":6615:6617   */\n      0x20\n        /* \"#utility.yul\":6604:6613   */\n      dup3\n        /* \"#utility.yul\":6600:6618   */\n      add\n        /* \"#utility.yul\":6592:6618   */\n      swap1\n      pop\n        /* \"#utility.yul\":6664:6673   */\n      dup2\n        /* \"#utility.yul\":6658:6662   */\n      dup2\n        /* \"#utility.yul\":6654:6674   */\n      sub\n        /* \"#utility.yul\":6650:6651   */\n      0x00\n        /* \"#utility.yul\":6639:6648   */\n      dup4\n        /* \"#utility.yul\":6635:6652   */\n      add\n        /* \"#utility.yul\":6628:6675   */\n      mstore\n        /* \"#utility.yul\":6692:6768   */\n      tag_156\n        /* \"#utility.yul\":6763:6767   */\n      dup2\n        /* \"#utility.yul\":6754:6760   */\n      dup5\n        /* \"#utility.yul\":6692:6768   */\n      tag_62\n      jump\t// in\n    tag_156:\n        /* \"#utility.yul\":6684:6768   */\n      swap1\n      pop\n        /* \"#utility.yul\":6466:6775   */\n      swap3\n      swap2\n      pop\n      pop\n      jump\t// out\n        /* \"#utility.yul\":6781:6961   */\n    tag_63:\n        /* \"#utility.yul\":6829:6906   */\n      0x4e487b7100000000000000000000000000000000000000000000000000000000\n        /* \"#utility.yul\":6826:6827   */\n      0x00\n        /* \"#utility.yul\":6819:6907   */\n      mstore\n        /* \"#utility.yul\":6926:6930   */\n      0x22\n        /* \"#utility.yul\":6923:6924   */\n      0x04\n        /* \"#utility.yul\":6916:6931   */\n      mstore\n        /* \"#utility.yul\":6950:6954   */\n      0x24\n        /* \"#utility.yul\":6947:6948   */\n      0x00\n        /* \"#utility.yul\":6940:6955   */\n      revert\n        /* \"#utility.yul\":6967:7287   */\n    tag_24:\n        /* \"#utility.yul\":7011:7017   */\n      0x00\n        /* \"#utility.yul\":7048:7049   */\n      0x02\n        /* \"#utility.yul\":7042:7046   */\n      dup3\n        /* \"#utility.yul\":7038:7050   */\n      div\n        /* \"#utility.yul\":7028:7050   */\n      swap1\n      pop\n        /* \"#utility.yul\":7095:7096   */\n      0x01\n        /* \"#utility.yul\":7089:7093   */\n      dup3\n        /* \"#utility.yul\":7085:7097   */\n      and\n        /* \"#utility.yul\":7116:7134   */\n      dup1\n        /* \"#utility.yul\":7106:7187   */\n      tag_159\n      jumpi\n        /* \"#utility.yul\":7172:7176   */\n      0x7f\n        /* \"#utility.yul\":7164:7170   */\n      dup3\n        /* \"#utility.yul\":7160:7177   */\n      and\n        /* \"#utility.yul\":7150:7177   */\n      swap2\n      pop\n        /* \"#utility.yul\":7106:7187   */\n    tag_159:\n        /* \"#utility.yul\":7234:7236   */\n      0x20\n        /* \"#utility.yul\":7226:7232   */\n      dup3\n        /* \"#utility.yul\":7223:7237   */\n      lt\n        /* \"#utility.yul\":7203:7221   */\n      dup2\n        /* \"#utility.yul\":7200:7238   */\n      sub\n        /* \"#utility.yul\":7197:7281   */\n      tag_160\n      jumpi\n        /* \"#utility.yul\":7253:7271   */\n      tag_161\n      tag_63\n      jump\t// in\n    tag_161:\n        /* \"#utility.yul\":7197:7281   */\n    tag_160:\n        /* \"#utility.yul\":7018:7287   */\n      pop\n        /* \"#utility.yul\":6967:7287   */\n      swap2\n      swap1\n      pop\n      jump\t// out\n        /* \"#utility.yul\":7293:7433   */\n    tag_64:\n        /* \"#utility.yul\":7341:7345   */\n      0x00\n        /* \"#utility.yul\":7364:7367   */\n      dup2\n        /* \"#utility.yul\":7356:7367   */\n      swap1\n      pop\n        /* \"#utility.yul\":7387:7390   */\n      dup2\n        /* \"#utility.yul\":7384:7385   */\n      0x00\n        /* \"#utility.yul\":7377:7391   */\n      mstore\n        /* \"#utility.yul\":7421:7425   */\n      0x20\n        /* \"#utility.yul\":7418:7419   */\n      0x00\n        /* \"#utility.yul\":7408:7426   */\n      keccak256\n        /* \"#utility.yul\":7400:7426   */\n      swap1\n      pop\n        /* \"#utility.yul\":7293:7433   */\n      swap2\n      swap1\n      pop\n      jump\t// out\n        /* \"#utility.yul\":7439:7532   */\n    tag_65:\n        /* \"#utility.yul\":7476:7482   */\n      0x00\n        /* \"#utility.yul\":7523:7525   */\n      0x20\n        /* \"#utility.yul\":7518:7520   */\n      0x1f\n        /* \"#utility.yul\":7511:7516   */\n      dup4\n        /* \"#utility.yul\":7507:7521   */\n      add\n        /* \"#utility.yul\":7503:7526   */\n      div\n        /* \"#utility.yul\":7493:7526   */\n      swap1\n      pop\n        /* \"#utility.yul\":7439:7532   */\n      swap2\n      swap1\n      pop\n      jump\t// out\n        /* \"#utility.yul\":7538:7645   */\n    tag_66:\n        /* \"#utility.yul\":7582:7590   */\n      0x00\n        /* \"#utility.yul\":7632:7637   */\n      dup3\n        /* \"#utility.yul\":7626:7630   */\n      dup3\n        /* \"#utility.yul\":7622:7638   */\n      shl\n        /* \"#utility.yul\":7601:7638   */\n      swap1\n      pop\n        /* \"#utility.yul\":7538:7645   */\n      swap3\n      swap2\n      pop\n      pop\n      jump\t// out\n        /* \"#utility.yul\":7651:8044   */\n    tag_67:\n        /* \"#utility.yul\":7720:7726   */\n      0x00\n        /* \"#utility.yul\":7770:7771   */\n      0x08\n        /* \"#utility.yul\":7758:7768   */\n      dup4\n        /* \"#utility.yul\":7754:7772   */\n      mul\n        /* \"#utility.yul\":7793:7890   */\n      tag_166\n        /* \"#utility.yul\":7823:7889   */\n      0xffffffffffffffffffffffffffffffffffffffffffffffffffffffffffffffff\n        /* \"#utility.yul\":7812:7821   */\n      dup3\n        /* \"#utility.yul\":7793:7890   */\n      tag_66\n      jump\t// in\n    tag_166:\n        /* \"#utility.yul\":7911:7950   */\n      tag_167\n        /* \"#utility.yul\":7941:7949   */\n      dup7\n        /* \"#utility.yul\":7930:7939   */\n      dup4\n        /* \"#utility.yul\":7911:7950   */\n      tag_66\n      jump\t// in\n    tag_167:\n        /* \"#utility.yul\":7899:7950   */\n      swap6\n      pop\n        /* \"#utility.yul\":7983:7987   */\n      dup1\n        /* \"#utility.yul\":7979:7988   */\n      not\n        /* \"#utility.yul\":7972:7977   */\n      dup5\n        /* \"#utility.yul\":7968:7989   */\n      and\n        /* \"#utility.yul\":7959:7989   */\n      swap4\n      pop\n        /* \"#utility.yul\":8032:8036   */\n      dup1\n        /* \"#utility.yul\":8022:8030   */\n      dup7\n        /* \"#utility.yul\":8018:8037   */\n      and\n        /* \"#utility.yul\":8011:8016   */\n      dup5\n        /* \"#utility.yul\":8008:8038   */\n      or\n        /* \"#utility.yul\":7998:8038   */\n      swap3\n      pop\n        /* \"#utility.yul\":7727:8044   */\n      pop\n      pop\n        /* \"#utility.yul\":7651:8044   */\n      swap4\n      swap3\n      pop\n      pop\n      pop\n      jump\t// out\n        /* \"#utility.yul\":8050:8127   */\n    tag_68:\n        /* \"#utility.yul\":8087:8094   */\n      0x00\n        /* \"#utility.yul\":8116:8121   */\n      dup2\n        /* \"#utility.yul\":8105:8121   */\n      swap1\n      pop\n        /* \"#utility.yul\":8050:8127   */\n      swap2\n      swap1\n      pop\n      jump\t// out\n        /* \"#utility.yul\":8133:8193   */\n    tag_69:\n        /* \"#utility.yul\":8161:8164   */\n      0x00\n        /* \"#utility.yul\":8182:8187   */\n      dup2\n        /* \"#utility.yul\":8175:8187   */\n      swap1\n      pop\n        /* \"#utility.yul\":8133:8193   */\n      swap2\n      swap1\n      pop\n      jump\t// out\n        /* \"#utility.yul\":8199:8341   */\n    tag_70:\n        /* \"#utility.yul\":8249:8258   */\n      0x00\n        /* \"#utility.yul\":8282:8335   */\n      tag_171\n        /* \"#utility.yul\":8300:8334   */\n      tag_172\n        /* \"#utility.yul\":8309:8333   */\n      tag_173\n        /* \"#utility.yul\":8327:8332   */\n      dup5\n        /* \"#utility.yul\":8309:8333   */\n      tag_68\n      jump\t// in\n    tag_173:\n        /* \"#utility.yul\":8300:8334   */\n      tag_69\n      jump\t// in\n    tag_172:\n        /* \"#utility.yul\":8282:8335   */\n      tag_68\n      jump\t// in\n    tag_171:\n        /* \"#utility.yul\":8269:8335   */\n      swap1\n      pop\n        /* \"#utility.yul\":8199:8341   */\n      swap2\n      swap1\n      pop\n      jump\t// out\n        /* \"#utility.yul\":8347:8422   */\n    tag_71:\n        /* \"#utility.yul\":8390:8393   */\n      0x00\n        /* \"#utility.yul\":8411:8416   */\n      dup2\n        /* \"#utility.yul\":8404:8416   */\n      swap1\n      pop\n        /* \"#utility.yul\":8347:8422   */\n      swap2\n      swap1\n      pop\n      jump\t// out\n        /* \"#utility.yul\":8428:8697   */\n    tag_72:\n        /* \"#utility.yul\":8538:8577   */\n      tag_176\n        /* \"#utility.yul\":8569:8576   */\n      dup4\n        /* \"#utility.yul\":8538:8577   */\n      tag_70\n      jump\t// in\n    tag_176:\n        /* \"#utility.yul\":8599:8690   */\n      tag_177\n        /* \"#utility.yul\":8648:8689   */\n      tag_178\n        /* \"#utility.yul\":8672:8688   */\n      dup3\n        /* \"#utility.yul\":8648:8689   */\n      tag_71\n      jump\t// in\n    tag_178:\n        /* \"#utility.yul\":8640:8646   */\n      dup5\n        /* \"#utility.yul\":8633:8637   */\n      dup5\n        /* \"#utility.yul\":8627:8638   */\n      sload\n        /* \"#utility.yul\":8599:8690   */\n      tag_67\n      jump\t// in\n    tag_177:\n        /* \"#utility.yul\":8593:8597   */\n      dup3\n        /* \"#utility.yul\":8586:8691   */\n      sstore\n        /* \"#utility.yul\":8504:8697   */\n      pop\n        /* \"#utility.yul\":8428:8697   */\n      pop\n      pop\n      pop\n      jump\t// out\n        /* \"#utility.yul\":8703:8776   */\n    tag_73:\n        /* \"#utility.yul\":8748:8751   */\n      0x00\n        /* \"#utility.yul\":8703:8776   */\n      swap1\n      jump\t// out\n        /* \"#utility.yul\":8782:8971   */\n    tag_74:\n        /* \"#utility.yul\":8859:8891   */\n      tag_181\n      tag_73\n      jump\t// in\n    tag_181:\n        /* \"#utility.yul\":8900:8965   */\n      tag_182\n        /* \"#utility.yul\":8958:8964   */\n      dup2\n        /* \"#utility.yul\":8950:8956   */\n      dup5\n        /* \"#utility.yul\":8944:8948   */\n      dup5\n        /* \"#utility.yul\":8900:8965   */\n      tag_72\n      jump\t// in\n    tag_182:\n        /* \"#utility.yul\":8835:8971   */\n      pop\n        /* \"#utility.yul\":8782:8971   */\n      pop\n      pop\n      jump\t// out\n        /* \"#utility.yul\":8977:9163   */\n    tag_75:\n        /* \"#utility.yul\":9037:9157   */\n    tag_184:\n        /* \"#utility.yul\":9054:9057   */\n      dup2\n        /* \"#utility.yul\":9047:9052   */\n      dup2\n        /* \"#utility.yul\":9044:9058   */\n      lt\n        /* \"#utility.yul\":9037:9157   */\n      iszero\n      tag_186\n      jumpi\n        /* \"#utility.yul\":9108:9147   */\n      tag_187\n        /* \"#utility.yul\":9145:9146   */\n      0x00\n        /* \"#utility.yul\":9138:9143   */\n      dup3\n        /* \"#utility.yul\":9108:9147   */\n      tag_74\n      jump\t// in\n    tag_187:\n        /* \"#utility.yul\":9081:9082   */\n      0x01\n        /* \"#utility.yul\":9074:9079   */\n      dup2\n        /* \"#utility.yul\":9070:9083   */\n      add\n        /* \"#utility.yul\":9061:9083   */\n      swap1\n      pop\n        /* \"#utility.yul\":9037:9157   */\n      jump(tag_184)\n    tag_186:\n        /* \"#utility.yul\":8977:9163   */\n      pop\n      pop\n      jump\t// out\n        /* \"#utility.yul\":9169:9710   */\n    tag_76:\n        /* \"#utility.yul\":9269:9271   */\n      0x1f\n        /* \"#utility.yul\":9264:9267   */\n      dup3\n        /* \"#utility.yul\":9261:9272   */\n      gt\n        /* \"#utility.yul\":9258:9703   */\n      iszero\n      tag_189\n      jumpi\n        /* \"#utility.yul\":9303:9340   */\n      tag_190\n        /* \"#utility.yul\":9334:9339   */\n      dup2\n        /* \"#utility.yul\":9303:9340   */\n      tag_64\n      jump\t// in\n    tag_190:\n        /* \"#utility.yul\":9386:9415   */\n      tag_191\n        /* \"#utility.yul\":9404:9414   */\n      dup5\n        /* \"#utility.yul\":9386:9415   */\n      tag_65\n      jump\t// in\n    tag_191:\n        /* \"#utility.yul\":9376:9384   */\n      dup2\n        /* \"#utility.yul\":9372:9416   */\n      add\n        /* \"#utility.yul\":9569:9571   */\n      0x20\n        /* \"#utility.yul\":9557:9567   */\n      dup6\n        /* \"#utility.yul\":9554:9572   */\n      lt\n        /* \"#utility.yul\":9551:9600   */\n      iszero\n      tag_192\n      jumpi\n        /* \"#utility.yul\":9590:9598   */\n      dup2\n        /* \"#utility.yul\":9575:9598   */\n      swap1\n      pop\n        /* \"#utility.yul\":9551:9600   */\n    tag_192:\n        /* \"#utility.yul\":9613:9693   */\n      tag_193\n        /* \"#utility.yul\":9669:9691   */\n      tag_194\n        /* \"#utility.yul\":9687:9690   */\n      dup6\n        /* \"#utility.yul\":9669:9691   */\n      tag_65\n      jump\t// in\n    tag_194:\n        /* \"#utility.yul\":9659:9667   */\n      dup4\n        /* \"#utility.yul\":9655:9692   */\n      add\n        /* \"#utility.yul\":9642:9653   */\n      dup3\n        /* \"#utility.yul\":9613:9693   */\n      tag_75\n      jump\t// in\n    tag_193:\n        /* \"#utility.yul\":9273:9703   */\n      pop\n      pop\n        /* \"#utility.yul\":9258:9703   */\n    tag_189:\n        /* \"#utility.yul\":9169:9710   */\n      pop\n      pop\n      pop\n      jump\t// out\n        /* \"#utility.yul\":9716:9833   */\n    tag_77:\n        /* \"#utility.yul\":9770:9778   */\n      0x00\n        /* \"#utility.yul\":9820:9825   */\n      dup3\n        /* \"#utility.yul\":9814:9818   */\n      dup3\n        /* \"#utility.yul\":9810:9826   */\n      shr\n        /* \"#utility.yul\":9789:9826   */\n      swap1\n      pop\n        /* \"#utility.yul\":9716:9833   */\n      swap3\n      swap2\n      pop\n      pop\n      jump\t// out\n        /* \"#utility.yul\":9839:10008   */\n    tag_78:\n        /* \"#utility.yul\":9883:9889   */\n      0x00\n        /* \"#utility.yul\":9916:9967   */\n      tag_197\n        /* \"#utility.yul\":9964:9965   */\n      0x00\n        /* \"#utility.yul\":9960:9966   */\n      not\n        /* \"#utility.yul\":9952:9957   */\n      dup5\n        /* \"#utility.yul\":9949:9950   */\n      0x08\n        /* \"#utility.yul\":9945:9958   */\n      mul\n        /* \"#utility.yul\":9916:9967   */\n      tag_77\n      jump\t// in\n    tag_197:\n        /* \"#utility.yul\":9912:9968   */\n      not\n        /* \"#utility.yul\":9997:10001   */\n      dup1\n        /* \"#utility.yul\":9991:9995   */\n      dup4\n        /* \"#utility.yul\":9987:10002   */\n      and\n        /* \"#utility.yul\":9977:10002   */\n      swap2\n      pop\n        /* \"#utility.yul\":9890:10008   */\n      pop\n        /* \"#utility.yul\":9839:10008   */\n      swap3\n      swap2\n      pop\n      pop\n      jump\t// out\n        /* \"#utility.yul\":10013:10308   */\n    tag_79:\n        /* \"#utility.yul\":10089:10093   */\n      0x00\n        /* \"#utility.yul\":10235:10264   */\n      tag_199\n        /* \"#utility.yul\":10260:10263   */\n      dup4\n        /* \"#utility.yul\":10254:10258   */\n      dup4\n        /* \"#utility.yul\":10235:10264   */\n      tag_78\n      jump\t// in\n    tag_199:\n        /* \"#utility.yul\":10227:10264   */\n      swap2\n      pop\n        /* \"#utility.yul\":10297:10300   */\n      dup3\n        /* \"#utility.yul\":10294:10295   */\n      0x02\n        /* \"#utility.yul\":10290:10301   */\n      mul\n        /* \"#utility.yul\":10284:10288   */\n      dup3\n        /* \"#utility.yul\":10281:10302   */\n      or\n        /* \"#utility.yul\":10273:10302   */\n      swap1\n      pop\n        /* \"#utility.yul\":10013:10308   */\n      swap3\n      swap2\n      pop\n      pop\n      jump\t// out\n        /* \"#utility.yul\":10313:11703   */\n    tag_31:\n        /* \"#utility.yul\":10428:10464   */\n      tag_201\n        /* \"#utility.yul\":10460:10463   */\n      dup3\n        /* \"#utility.yul\":10428:10464   */\n      tag_60\n      jump\t// in\n    tag_201:\n        /* \"#utility.yul\":10529:10547   */\n      0xffffffffffffffff\n        /* \"#utility.yul\":10521:10527   */\n      dup2\n        /* \"#utility.yul\":10518:10548   */\n      gt\n        /* \"#utility.yul\":10515:10571   */\n      iszero\n      tag_202\n      jumpi\n        /* \"#utility.yul\":10551:10569   */\n      tag_203\n      tag_50\n      jump\t// in\n    tag_203:\n        /* \"#utility.yul\":10515:10571   */\n    tag_202:\n        /* \"#utility.yul\":10595:10633   */\n      tag_204\n        /* \"#utility.yul\":10627:10631   */\n      dup3\n        /* \"#utility.yul\":10621:10632   */\n      sload\n        /* \"#utility.yul\":10595:10633   */\n      tag_24\n      jump\t// in\n    tag_204:\n        /* \"#utility.yul\":10680:10746   */\n      tag_205\n        /* \"#utility.yul\":10739:10745   */\n      dup3\n        /* \"#utility.yul\":10731:10737   */\n      dup3\n        /* \"#utility.yul\":10725:10729   */\n      dup6\n        /* \"#utility.yul\":10680:10746   */\n      tag_76\n      jump\t// in\n    tag_205:\n        /* \"#utility.yul\":10773:10774   */\n      0x00\n        /* \"#utility.yul\":10797:10801   */\n      0x20\n        /* \"#utility.yul\":10784:10801   */\n      swap1\n      pop\n        /* \"#utility.yul\":10829:10831   */\n      0x1f\n        /* \"#utility.yul\":10821:10827   */\n      dup4\n        /* \"#utility.yul\":10818:10832   */\n      gt\n        /* \"#utility.yul\":10846:10847   */\n      0x01\n        /* \"#utility.yul\":10841:11458   */\n      dup2\n      eq\n      tag_207\n      jumpi\n        /* \"#utility.yul\":11502:11503   */\n      0x00\n        /* \"#utility.yul\":11519:11525   */\n      dup5\n        /* \"#utility.yul\":11516:11593   */\n      iszero\n      tag_208\n      jumpi\n        /* \"#utility.yul\":11568:11577   */\n      dup3\n        /* \"#utility.yul\":11563:11566   */\n      dup8\n        /* \"#utility.yul\":11559:11578   */\n      add\n        /* \"#utility.yul\":11553:11579   */\n      mload\n        /* \"#utility.yul\":11544:11579   */\n      swap1\n      pop\n        /* \"#utility.yul\":11516:11593   */\n    tag_208:\n        /* \"#utility.yul\":11619:11686   */\n      tag_209\n        /* \"#utility.yul\":11679:11685   */\n      dup6\n        /* \"#utility.yul\":11672:11677   */\n      dup3\n        /* \"#utility.yul\":11619:11686   */\n      tag_79\n      jump\t// in\n    tag_209:\n        /* \"#utility.yul\":11613:11617   */\n      dup7\n        /* \"#utility.yul\":11606:11687   */\n      sstore\n        /* \"#utility.yul\":11475:11697   */\n      pop\n        /* \"#utility.yul\":10811:11697   */\n      jump(tag_206)\n        /* \"#utility.yul\":10841:11458   */\n    tag_207:\n        /* \"#utility.yul\":10893:10897   */\n      0x1f\n        /* \"#utility.yul\":10889:10898   */\n      not\n        /* \"#utility.yul\":10881:10887   */\n      dup5\n        /* \"#utility.yul\":10877:10899   */\n      and\n        /* \"#utility.yul\":10927:10963   */\n      tag_210\n        /* \"#utility.yul\":10958:10962   */\n      dup7\n        /* \"#utility.yul\":10927:10963   */\n      tag_64\n      jump\t// in\n    tag_210:\n        /* \"#utility.yul\":10985:10986   */\n      0x00\n        /* \"#utility.yul\":10999:11207   */\n    tag_211:\n        /* \"#utility.yul\":11013:11020   */\n      dup3\n        /* \"#utility.yul\":11010:11011   */\n      dup2\n        /* \"#utility.yul\":11007:11021   */\n      lt\n        /* \"#utility.yul\":10999:11207   */\n      iszero\n      tag_213\n      jumpi\n        /* \"#utility.yul\":11092:11101   */\n      dup5\n        /* \"#utility.yul\":11087:11090   */\n      dup10\n        /* \"#utility.yul\":11083:11102   */\n      add\n        /* \"#utility.yul\":11077:11103   */\n      mload\n        /* \"#utility.yul\":11069:11075   */\n      dup3\n        /* \"#utility.yul\":11062:11104   */\n      sstore\n        /* \"#utility.yul\":11143:11144   */\n      0x01\n        /* \"#utility.yul\":11135:11141   */\n      dup3\n        /* \"#utility.yul\":11131:11145   */\n      add\n        /* \"#utility.yul\":11121:11145   */\n      swap2\n      pop\n        /* \"#utility.yul\":11190:11192   */\n      0x20\n        /* \"#utility.yul\":11179:11188   */\n      dup6\n        /* \"#utility.yul\":11175:11193   */\n      add\n        /* \"#utility.yul\":11162:11193   */\n      swap5\n      pop\n        /* \"#utility.yul\":11036:11040   */\n      0x20\n        /* \"#utility.yul\":11033:11034   */\n      dup2\n        /* \"#utility.yul\":11029:11041   */\n      add\n        /* \"#utility.yul\":11024:11041   */\n      swap1\n      pop\n        /* \"#utility.yul\":10999:11207   */\n      jump(tag_211)\n    tag_213:\n        /* \"#utility.yul\":11235:11241   */\n      dup7\n        /* \"#utility.yul\":11226:11233   */\n      dup4\n        /* \"#utility.yul\":11223:11242   */\n      lt\n        /* \"#utility.yul\":11220:11399   */\n      iszero\n      tag_214\n      jumpi\n        /* \"#utility.yul\":11293:11302   */\n      dup5\n        /* \"#utility.yul\":11288:11291   */\n      dup10\n        /* \"#utility.yul\":11284:11303   */\n      add\n        /* \"#utility.yul\":11278:11304   */\n      mload\n        /* \"#utility.yul\":11336:11384   */\n      tag_215\n        /* \"#utility.yul\":11378:11382   */\n      0x1f\n        /* \"#utility.yul\":11370:11376   */\n      dup10\n        /* \"#utility.yul\":11366:11383   */\n      and\n        /* \"#utility.yul\":11355:11364   */\n      dup3\n        /* \"#utility.yul\":11336:11384   */\n      tag_78\n      jump\t// in\n    tag_215:\n        /* \"#utility.yul\":11328:11334   */\n      dup4\n        /* \"#utility.yul\":11321:11385   */\n      sstore\n        /* \"#utility.yul\":11243:11399   */\n      pop\n        /* \"#utility.yul\":11220:11399   */\n    tag_214:\n        /* \"#utility.yul\":11445:11446   */\n      0x01\n        /* \"#utility.yul\":11441:11442   */\n      0x02\n        /* \"#utility.yul\":11433:11439   */\n      dup9\n        /* \"#utility.yul\":11429:11443   */\n      mul\n        /* \"#utility.yul\":11425:11447   */\n      add\n        /* \"#utility.yul\":11419:11423   */\n      dup9\n        /* \"#utility.yul\":11412:11448   */\n      sstore\n        /* \"#utility.yul\":10848:11458   */\n      pop\n      pop\n      pop\n        /* \"#utility.yul\":10811:11697   */\n    tag_206:\n      pop\n        /* \"#utility.yul\":10403:11703   */\n      pop\n      pop\n      pop\n        /* \"#utility.yul\":10313:11703   */\n      pop\n      pop\n      jump\t// out\n        /* \"#utility.yul\":11709:11850   */\n    tag_80:\n        /* \"#utility.yul\":11758:11762   */\n      0x00\n        /* \"#utility.yul\":11781:11784   */\n      dup2\n        /* \"#utility.yul\":11773:11784   */\n      swap1\n      pop\n        /* \"#utility.yul\":11804:11807   */\n      dup2\n        /* \"#utility.yul\":11801:11802   */\n      0x00\n        /* \"#utility.yul\":11794:11808   */\n      mstore\n        /* \"#utility.yul\":11838:11842   */\n      0x20\n        /* \"#utility.yul\":11835:11836   */\n      0x00\n        /* \"#utility.yul\":11825:11843   */\n      keccak256\n        /* \"#utility.yul\":11817:11843   */\n      swap1\n      pop\n        /* \"#utility.yul\":11709:11850   */\n      swap2\n      swap1\n      pop\n      jump\t// out\n        /* \"#utility.yul\":11856:12399   */\n    tag_81:\n        /* \"#utility.yul\":11957:11959   */\n      0x1f\n        /* \"#utility.yul\":11952:11955   */\n      dup3\n        /* \"#utility.yul\":11949:11960   */\n      gt\n        /* \"#utility.yul\":11946:12392   */\n      iszero\n      tag_218\n      jumpi\n        /* \"#utility.yul\":11991:12029   */\n      tag_219\n        /* \"#utility.yul\":12023:12028   */\n      dup2\n        /* \"#utility.yul\":11991:12029   */\n      tag_80\n      jump\t// in\n    tag_219:\n        /* \"#utility.yul\":12075:12104   */\n      tag_220\n        /* \"#utility.yul\":12093:12103   */\n      dup5\n        /* \"#utility.yul\":12075:12104   */\n      tag_65\n      jump\t// in\n    tag_220:\n        /* \"#utility.yul\":12065:12073   */\n      dup2\n        /* \"#utility.yul\":12061:12105   */\n      add\n        /* \"#utility.yul\":12258:12260   */\n      0x20\n        /* \"#utility.yul\":12246:12256   */\n      dup6\n        /* \"#utility.yul\":12243:12261   */\n      lt\n        /* \"#utility.yul\":12240:12289   */\n      iszero\n      tag_221\n      jumpi\n        /* \"#utility.yul\":12279:12287   */\n      dup2\n        /* \"#utility.yul\":12264:12287   */\n      swap1\n      pop\n        /* \"#utility.yul\":12240:12289   */\n    tag_221:\n        /* \"#utility.yul\":12302:12382   */\n      tag_222\n        /* \"#utility.yul\":12358:12380   */\n      tag_223\n        /* \"#utility.yul\":12376:12379   */\n      dup6\n        /* \"#utility.yul\":12358:12380   */\n      tag_65\n      jump\t// in\n    tag_223:\n        /* \"#utility.yul\":12348:12356   */\n      dup4\n        /* \"#utility.yul\":12344:12381   */\n      add\n        /* \"#utility.yul\":12331:12342   */\n      dup3\n        /* \"#utility.yul\":12302:12382   */\n      tag_75\n      jump\t// in\n    tag_222:\n        /* \"#utility.yul\":11961:12392   */\n      pop\n      pop\n        /* \"#utility.yul\":11946:12392   */\n    tag_218:\n        /* \"#utility.yul\":11856:12399   */\n      pop\n      pop\n      pop\n      jump\t// out\n        /* \"#utility.yul\":12405:13800   */\n    tag_34:\n        /* \"#utility.yul\":12522:12559   */\n      tag_225\n        /* \"#utility.yul\":12555:12558   */\n      dup3\n        /* \"#utility.yul\":12522:12559   */\n      tag_40\n      jump\t// in\n    tag_225:\n        /* \"#utility.yul\":12624:12642   */\n      0xffffffffffffffff\n        /* \"#utility.yul\":12616:12622   */\n      dup2\n        /* \"#utility.yul\":12613:12643   */\n      gt\n        /* \"#utility.yul\":12610:12666   */\n      iszero\n      tag_226\n      jumpi\n        /* \"#utility.yul\":12646:12664   */\n      tag_227\n      tag_50\n      jump\t// in\n    tag_227:\n        /* \"#utility.yul\":12610:12666   */\n    tag_226:\n        /* \"#utility.yul\":12690:12728   */\n      tag_228\n        /* \"#utility.yul\":12722:12726   */\n      dup3\n        /* \"#utility.yul\":12716:12727   */\n      sload\n        /* \"#utility.yul\":12690:12728   */\n      tag_24\n      jump\t// in\n    tag_228:\n        /* \"#utility.yul\":12775:12842   */\n      tag_229\n        /* \"#utility.yul\":12835:12841   */\n      dup3\n        /* \"#utility.yul\":12827:12833   */\n      dup3\n        /* \"#utility.yul\":12821:12825   */\n      dup6\n        /* \"#utility.yul\":12775:12842   */\n      tag_81\n      jump\t// in\n    tag_229:\n        /* \"#utility.yul\":12869:12870   */\n      0x00\n        /* \"#utility.yul\":12893:12897   */\n      0x20\n        /* \"#utility.yul\":12880:12897   */\n      swap1\n      pop\n        /* \"#utility.yul\":12925:12927   */\n      0x1f\n        /* \"#utility.yul\":12917:12923   */\n      dup4\n        /* \"#utility.yul\":12914:12928   */\n      gt\n        /* \"#utility.yul\":12942:12943   */\n      0x01\n        /* \"#utility.yul\":12937:13555   */\n      dup2\n      eq\n      tag_231\n      jumpi\n        /* \"#utility.yul\":13599:13600   */\n      0x00\n        /* \"#utility.yul\":13616:13622   */\n      dup5\n        /* \"#utility.yul\":13613:13690   */\n      iszero\n      tag_232\n      jumpi\n        /* \"#utility.yul\":13665:13674   */\n      dup3\n        /* \"#utility.yul\":13660:13663   */\n      dup8\n        /* \"#utility.yul\":13656:13675   */\n      add\n        /* \"#utility.yul\":13650:13676   */\n      mload\n        /* \"#utility.yul\":13641:13676   */\n      swap1\n      pop\n        /* \"#utility.yul\":13613:13690   */\n    tag_232:\n        /* \"#utility.yul\":13716:13783   */\n      tag_233\n        /* \"#utility.yul\":13776:13782   */\n      dup6\n        /* \"#utility.yul\":13769:13774   */\n      dup3\n        /* \"#utility.yul\":13716:13783   */\n      tag_79\n      jump\t// in\n    tag_233:\n        /* \"#utility.yul\":13710:13714   */\n      dup7\n        /* \"#utility.yul\":13703:13784   */\n      sstore\n        /* \"#utility.yul\":13572:13794   */\n      pop\n        /* \"#utility.yul\":12907:13794   */\n      jump(tag_230)\n        /* \"#utility.yul\":12937:13555   */\n    tag_231:\n        /* \"#utility.yul\":12989:12993   */\n      0x1f\n        /* \"#utility.yul\":12985:12994   */\n      not\n        /* \"#utility.yul\":12977:12983   */\n      dup5\n        /* \"#utility.yul\":12973:12995   */\n      and\n        /* \"#utility.yul\":13023:13060   */\n      tag_234\n        /* \"#utility.yul\":13055:13059   */\n      dup7\n        /* \"#utility.yul\":13023:13060   */\n      tag_80\n      jump\t// in\n    tag_234:\n        /* \"#utility.yul\":13082:13083   */\n      0x00\n        /* \"#utility.yul\":13096:13304   */\n    tag_235:\n        /* \"#utility.yul\":13110:13117   */\n      dup3\n        /* \"#utility.yul\":13107:13108   */\n      dup2\n        /* \"#utility.yul\":13104:13118   */\n      lt\n        /* \"#utility.yul\":13096:13304   */\n      iszero\n      tag_237\n      jumpi\n        /* \"#utility.yul\":13189:13198   */\n      dup5\n        /* \"#utility.yul\":13184:13187   */\n      dup10\n        /* \"#utility.yul\":13180:13199   */\n      add\n        /* \"#utility.yul\":13174:13200   */\n      mload\n        /* \"#utility.yul\":13166:13172   */\n      dup3\n        /* \"#utility.yul\":13159:13201   */\n      sstore\n        /* \"#utility.yul\":13240:13241   */\n      0x01\n        /* \"#utility.yul\":13232:13238   */\n      dup3\n        /* \"#utility.yul\":13228:13242   */\n      add\n        /* \"#utility.yul\":13218:13242   */\n      swap2\n      pop\n        /* \"#utility.yul\":13287:13289   */\n      0x20\n        /* \"#utility.yul\":13276:13285   */\n      dup6\n        /* \"#utility.yul\":13272:13290   */\n      add\n        /* \"#utility.yul\":13259:13290   */\n      swap5\n      pop\n        /* \"#utility.yul\":13133:13137   */\n      0x20\n        /* \"#utility.yul\":13130:13131   */\n      dup2\n        /* \"#utility.yul\":13126:13138   */\n      add\n        /* \"#utility.yul\":13121:13138   */\n      swap1\n      pop\n        /* \"#utility.yul\":13096:13304   */\n      jump(tag_235)\n    tag_237:\n        /* \"#utility.yul\":13332:13338   */\n      dup7\n        /* \"#utility.yul\":13323:13330   */\n      dup4\n        /* \"#utility.yul\":13320:13339   */\n      lt\n        /* \"#utility.yul\":13317:13496   */\n      iszero\n      tag_238\n      jumpi\n        /* \"#utility.yul\":13390:13399   */\n      dup5\n        /* \"#utility.yul\":13385:13388   */\n      dup10\n        /* \"#utility.yul\":13381:13400   */\n      add\n        /* \"#utility.yul\":13375:13401   */\n      mload\n        /* \"#utility.yul\":13433:13481   */\n      tag_239\n        /* \"#utility.yul\":13475:13479   */\n      0x1f\n        /* \"#utility.yul\":13467:13473   */\n      dup10\n        /* \"#utility.yul\":13463:13480   */\n      and\n        /* \"#utility.yul\":13452:13461   */\n      dup3\n        /* \"#utility.yul\":13433:13481   */\n      tag_78\n      jump\t// in\n    tag_239:\n        /* \"#utility.yul\":13425:13431   */\n      dup4\n        /* \"#utility.yul\":13418:13482   */\n      sstore\n        /* \"#utility.yul\":13340:13496   */\n      pop\n        /* \"#utility.yul\":13317:13496   */\n    tag_238:\n        /* \"#utility.yul\":13542:13543   */\n      0x01\n        /* \"#utility.yul\":13538:13539   */\n      0x02\n        /* \"#utility.yul\":13530:13536   */\n      dup9\n        /* \"#utility.yul\":13526:13540   */\n      mul\n        /* \"#utility.yul\":13522:13544   */\n      add\n        /* \"#utility.yul\":13516:13520   */\n      dup9\n        /* \"#utility.yul\":13509:13545   */\n      sstore\n        /* \"#utility.yul\":12944:13555   */\n      pop\n      pop\n      pop\n        /* \"#utility.yul\":12907:13794   */\n    tag_230:\n      pop\n        /* \"#utility.yul\":12497:13800   */\n      pop\n      pop\n      pop\n        /* \"#utility.yul\":12405:13800   */\n      pop\n      pop\n      jump\t// out\n\n    auxdata: 0xa2646970667358221220032c70e154b4aecd7886295e31d603cf1011ca3137d8f817188bbb1c872c9a4464736f6c634300081a0033\n}\n",
				"bytecode": {
					"linkReferences": {},
					"object": "60806040526040518060400160405280600b81526020017f48656c6c6f20576f726c640000000000000000000000000000000000000000008152505f908161004791906102d8565b506040518060400160405280600b81526020017f48656c6c6f20576f726c640000000000000000000000000000000000000000008152506001908161008c91906103ff565b50348015610098575f80fd5b506104ce565b5f81519050919050565b7f4e487b71000000000000000000000000000000000000000000000000000000005f52604160045260245ffd5b7f4e487b71000000000000000000000000000000000000000000000000000000005f52602260045260245ffd5b5f600282049050600182168061011957607f821691505b60208210810361012c5761012b6100d5565b5b50919050565b5f819050815f5260205f209050919050565b5f6020601f8301049050919050565b5f82821b905092915050565b5f6008830261018e7fffffffffffffffffffffffffffffffffffffffffffffffffffffffffffffffff82610153565b6101988683610153565b95508019841693508086168417925050509392505050565b5f819050919050565b5f819050919050565b5f6101dc6101d76101d2846101b0565b6101b9565b6101b0565b9050919050565b5f819050919050565b6101f5836101c2565b610209610201826101e3565b84845461015f565b825550505050565b5f90565b61021d610211565b6102288184846101ec565b505050565b5b8181101561024b576102405f82610215565b60018101905061022e565b5050565b601f8211156102905761026181610132565b61026a84610144565b81016020851015610279578190505b61028d61028585610144565b83018261022d565b50505b505050565b5f82821c905092915050565b5f6102b05f1984600802610295565b1980831691505092915050565b5f6102c883836102a1565b9150826002028217905092915050565b6102e18261009e565b67ffffffffffffffff8111156102fa576102f96100a8565b5b6103048254610102565b61030f82828561024f565b5f60209050601f831160018114610340575f841561032e578287015190505b61033885826102bd565b86555061039f565b601f19841661034e86610132565b5f5b8281101561037557848901518255600182019150602085019450602081019050610350565b86831015610392578489015161038e601f8916826102a1565b8355505b6001600288020188555050505b505050505050565b5f819050815f5260205f209050919050565b601f8211156103fa576103cb816103a7565b6103d484610144565b810160208510156103e3578190505b6103f76103ef85610144565b83018261022d565b50505b505050565b6104088261009e565b67ffffffffffffffff811115610421576104206100a8565b5b61042b8254610102565b6104368282856103b9565b5f60209050601f831160018114610467575f8415610455578287015190505b61045f85826102bd565b8655506104c6565b601f198416610475866103a7565b5f5b8281101561049c57848901518255600182019150602085019450602081019050610477565b868310156104b957848901516104b5601f8916826102a1565b8355505b6001600288020188555050505b505050505050565b610998806104db5f395ff3fe608060405234801561000f575f80fd5b506004361061004a575f3560e01c8063492bfa181461004e5780635907432d1461006c5780638218056814610088578063e5f199b5146100a4575b5f80fd5b6100566100c2565b604051610063919061026e565b60405180910390f35b610086600480360381019061008191906103cb565b61014d565b005b6100a2600480360381019061009d91906104b0565b610160565b005b6100ac610172565b6040516100b99190610549565b60405180910390f35b5f80546100ce90610596565b80601f01602080910402602001604051908101604052809291908181526020018280546100fa90610596565b80156101455780601f1061011c57610100808354040283529160200191610145565b820191905f5260205f20905b81548152906001019060200180831161012857829003601f168201915b505050505081565b806001908161015c919061076c565b5050565b805f908161016e9190610893565b5050565b6001805461017f90610596565b80601f01602080910402602001604051908101604052809291908181526020018280546101ab90610596565b80156101f65780601f106101cd576101008083540402835291602001916101f6565b820191905f5260205f20905b8154815290600101906020018083116101d957829003601f168201915b505050505081565b5f81519050919050565b5f82825260208201905092915050565b8281835e5f83830152505050565b5f601f19601f8301169050919050565b5f610240826101fe565b61024a8185610208565b935061025a818560208601610218565b61026381610226565b840191505092915050565b5f6020820190508181035f8301526102868184610236565b905092915050565b5f604051905090565b5f80fd5b5f80fd5b5f80fd5b5f80fd5b7f4e487b71000000000000000000000000000000000000000000000000000000005f52604160045260245ffd5b6102dd82610226565b810181811067ffffffffffffffff821117156102fc576102fb6102a7565b5b80604052505050565b5f61030e61028e565b905061031a82826102d4565b919050565b5f67ffffffffffffffff821115610339576103386102a7565b5b61034282610226565b9050602081019050919050565b828183375f83830152505050565b5f61036f61036a8461031f565b610305565b90508281526020810184848401111561038b5761038a6102a3565b5b61039684828561034f565b509392505050565b5f82601f8301126103b2576103b161029f565b5b81356103c284826020860161035d565b91505092915050565b5f602082840312156103e0576103df610297565b5b5f82013567ffffffffffffffff8111156103fd576103fc61029b565b5b6104098482850161039e565b91505092915050565b5f67ffffffffffffffff82111561042c5761042b6102a7565b5b61043582610226565b9050602081019050919050565b5f61045461044f84610412565b610305565b9050828152602081018484840111156104705761046f6102a3565b5b61047b84828561034f565b509392505050565b5f82601f8301126104975761049661029f565b5b81356104a7848260208601610442565b91505092915050565b5f602082840312156104c5576104c4610297565b5b5f82013567ffffffffffffffff8111156104e2576104e161029b565b5b6104ee84828501610483565b91505092915050565b5f81519050919050565b5f82825260208201905092915050565b5f61051b826104f7565b6105258185610501565b9350610535818560208601610218565b61053e81610226565b840191505092915050565b5f6020820190508181035f8301526105618184610511565b905092915050565b7f4e487b71000000000000000000000000000000000000000000000000000000005f52602260045260245ffd5b5f60028204905060018216806105ad57607f821691505b6020821081036105c0576105bf610569565b5b50919050565b5f819050815f5260205f209050919050565b5f6020601f8301049050919050565b5f82821b905092915050565b5f600883026106227fffffffffffffffffffffffffffffffffffffffffffffffffffffffffffffffff826105e7565b61062c86836105e7565b95508019841693508086168417925050509392505050565b5f819050919050565b5f819050919050565b5f61067061066b61066684610644565b61064d565b610644565b9050919050565b5f819050919050565b61068983610656565b61069d61069582610677565b8484546105f3565b825550505050565b5f90565b6106b16106a5565b6106bc818484610680565b505050565b5b818110156106df576106d45f826106a9565b6001810190506106c2565b5050565b601f821115610724576106f5816105c6565b6106fe846105d8565b8101602085101561070d578190505b610721610719856105d8565b8301826106c1565b50505b505050565b5f82821c905092915050565b5f6107445f1984600802610729565b1980831691505092915050565b5f61075c8383610735565b9150826002028217905092915050565b610775826104f7565b67ffffffffffffffff81111561078e5761078d6102a7565b5b6107988254610596565b6107a38282856106e3565b5f60209050601f8311600181146107d4575f84156107c2578287015190505b6107cc8582610751565b865550610833565b601f1984166107e2866105c6565b5f5b82811015610809578489015182556001820191506020850194506020810190506107e4565b868310156108265784890151610822601f891682610735565b8355505b6001600288020188555050505b505050505050565b5f819050815f5260205f209050919050565b601f82111561088e5761085f8161083b565b610868846105d8565b81016020851015610877578190505b61088b610883856105d8565b8301826106c1565b50505b505050565b61089c826101fe565b67ffffffffffffffff8111156108b5576108b46102a7565b5b6108bf8254610596565b6108ca82828561084d565b5f60209050601f8311600181146108fb575f84156108e9578287015190505b6108f38582610751565b86555061095a565b601f1984166109098661083b565b5f5b828110156109305784890151825560018201915060208501945060208101905061090b565b8683101561094d5784890151610949601f891682610735565b8355505b6001600288020188555050505b50505050505056fea2646970667358221220032c70e154b4aecd7886295e31d603cf1011ca3137d8f817188bbb1c872c9a4464736f6c634300081a0033",
					"opcodes": "PUSH1 0x80 PUSH1 0x40 MSTORE PUSH1 0x40 MLOAD DUP1 PUSH1 0x40 ADD PUSH1 0x40 MSTORE DUP1 PUSH1 0xB DUP2 MSTORE PUSH1 0x20 ADD PUSH32 0x48656C6C6F20576F726C64000000000000000000000000000000000000000000 DUP2 MSTORE POP PUSH0 SWAP1 DUP2 PUSH2 0x47 SWAP2 SWAP1 PUSH2 0x2D8 JUMP JUMPDEST POP PUSH1 0x40 MLOAD DUP1 PUSH1 0x40 ADD PUSH1 0x40 MSTORE DUP1 PUSH1 0xB DUP2 MSTORE PUSH1 0x20 ADD PUSH32 0x48656C6C6F20576F726C64000000000000000000000000000000000000000000 DUP2 MSTORE POP PUSH1 0x1 SWAP1 DUP2 PUSH2 0x8C SWAP2 SWAP1 PUSH2 0x3FF JUMP JUMPDEST POP CALLVALUE DUP1 ISZERO PUSH2 0x98 JUMPI PUSH0 DUP1 REVERT JUMPDEST POP PUSH2 0x4CE JUMP JUMPDEST PUSH0 DUP2 MLOAD SWAP1 POP SWAP2 SWAP1 POP JUMP JUMPDEST PUSH32 0x4E487B7100000000000000000000000000000000000000000000000000000000 PUSH0 MSTORE PUSH1 0x41 PUSH1 0x4 MSTORE PUSH1 0x24 PUSH0 REVERT JUMPDEST PUSH32 0x4E487B7100000000000000000000000000000000000000000000000000000000 PUSH0 MSTORE PUSH1 0x22 PUSH1 0x4 MSTORE PUSH1 0x24 PUSH0 REVERT JUMPDEST PUSH0 PUSH1 0x2 DUP3 DIV SWAP1 POP PUSH1 0x1 DUP3 AND DUP1 PUSH2 0x119 JUMPI PUSH1 0x7F DUP3 AND SWAP2 POP JUMPDEST PUSH1 0x20 DUP3 LT DUP2 SUB PUSH2 0x12C JUMPI PUSH2 0x12B PUSH2 0xD5 JUMP JUMPDEST JUMPDEST POP SWAP2 SWAP1 POP JUMP JUMPDEST PUSH0 DUP2 SWAP1 POP DUP2 PUSH0 MSTORE PUSH1 0x20 PUSH0 KECCAK256 SWAP1 POP SWAP2 SWAP1 POP JUMP JUMPDEST PUSH0 PUSH1 0x20 PUSH1 0x1F DUP4 ADD DIV SWAP1 POP SWAP2 SWAP1 POP JUMP JUMPDEST PUSH0 DUP3 DUP3 SHL SWAP1 POP SWAP3 SWAP2 POP POP JUMP JUMPDEST PUSH0 PUSH1 0x8 DUP4 MUL PUSH2 0x18E PUSH32 0xFFFFFFFFFFFFFFFFFFFFFFFFFFFFFFFFFFFFFFFFFFFFFFFFFFFFFFFFFFFFFFFF DUP3 PUSH2 0x153 JUMP JUMPDEST PUSH2 0x198 DUP7 DUP4 PUSH2 0x153 JUMP JUMPDEST SWAP6 POP DUP1 NOT DUP5 AND SWAP4 POP DUP1 DUP7 AND DUP5 OR SWAP3 POP POP POP SWAP4 SWAP3 POP POP POP JUMP JUMPDEST PUSH0 DUP2 SWAP1 POP SWAP2 SWAP1 POP JUMP JUMPDEST PUSH0 DUP2 SWAP1 POP SWAP2 SWAP1 POP JUMP JUMPDEST PUSH0 PUSH2 0x1DC PUSH2 0x1D7 PUSH2 0x1D2 DUP5 PUSH2 0x1B0 JUMP JUMPDEST PUSH2 0x1B9 JUMP JUMPDEST PUSH2 0x1B0 JUMP JUMPDEST SWAP1 POP SWAP2 SWAP1 POP JUMP JUMPDEST PUSH0 DUP2 SWAP1 POP SWAP2 SWAP1 POP JUMP JUMPDEST PUSH2 0x1F5 DUP4 PUSH2 0x1C2 JUMP JUMPDEST PUSH2 0x209 PUSH2 0x201 DUP3 PUSH2 0x1E3 JUMP JUMPDEST DUP5 DUP5 SLOAD PUSH2 0x15F JUMP JUMPDEST DUP3 SSTORE POP POP POP POP JUMP JUMPDEST PUSH0 SWAP1 JUMP JUMPDEST PUSH2 0x21D PUSH2 0x211 JUMP JUMPDEST PUSH2 0x228 DUP2 DUP5 DUP5 PUSH2 0x1EC JUMP JUMPDEST POP POP POP JUMP JUMPDEST JUMPDEST DUP2 DUP2 LT ISZERO PUSH2 0x24B JUMPI PUSH2 0x240 PUSH0 DUP3 PUSH2 0x215 JUMP JUMPDEST PUSH1 0x1 DUP2 ADD SWAP1 POP PUSH2 0x22E JUMP JUMPDEST POP POP JUMP JUMPDEST PUSH1 0x1F DUP3 GT ISZERO PUSH2 0x290 JUMPI PUSH2 0x261 DUP2 PUSH2 0x132 JUMP JUMPDEST PUSH2 0x26A DUP5 PUSH2 0x144 JUMP JUMPDEST DUP2 ADD PUSH1 0x20 DUP6 LT ISZERO PUSH2 0x279 JUMPI DUP2 SWAP1 POP JUMPDEST PUSH2 0x28D PUSH2 0x285 DUP6 PUSH2 0x144 JUMP JUMPDEST DUP4 ADD DUP3 PUSH2 0x22D JUMP JUMPDEST POP POP JUMPDEST POP POP POP JUMP JUMPDEST PUSH0 DUP3 DUP3 SHR SWAP1 POP SWAP3 SWAP2 POP POP JUMP JUMPDEST PUSH0 PUSH2 0x2B0 PUSH0 NOT DUP5 PUSH1 0x8 MUL PUSH2 0x295 JUMP JUMPDEST NOT DUP1 DUP4 AND SWAP2 POP POP SWAP3 SWAP2 POP POP JUMP JUMPDEST PUSH0 PUSH2 0x2C8 DUP4 DUP4 PUSH2 0x2A1 JUMP JUMPDEST SWAP2 POP DUP3 PUSH1 0x2 MUL DUP3 OR SWAP1 POP SWAP3 SWAP2 POP POP JUMP JUMPDEST PUSH2 0x2E1 DUP3 PUSH2 0x9E JUMP JUMPDEST PUSH8 0xFFFFFFFFFFFFFFFF DUP2 GT ISZERO PUSH2 0x2FA JUMPI PUSH2 0x2F9 PUSH2 0xA8 JUMP JUMPDEST JUMPDEST PUSH2 0x304 DUP3 SLOAD PUSH2 0x102 JUMP JUMPDEST PUSH2 0x30F DUP3 DUP3 DUP6 PUSH2 0x24F JUMP JUMPDEST PUSH0 PUSH1 0x20 SWAP1 POP PUSH1 0x1F DUP4 GT PUSH1 0x1 DUP2 EQ PUSH2 0x340 JUMPI PUSH0 DUP5 ISZERO PUSH2 0x32E JUMPI DUP3 DUP8 ADD MLOAD SWAP1 POP JUMPDEST PUSH2 0x338 DUP6 DUP3 PUSH2 0x2BD JUMP JUMPDEST DUP7 SSTORE POP PUSH2 0x39F JUMP JUMPDEST PUSH1 0x1F NOT DUP5 AND PUSH2 0x34E DUP7 PUSH2 0x132 JUMP JUMPDEST PUSH0 JUMPDEST DUP3 DUP2 LT ISZERO PUSH2 0x375 JUMPI DUP5 DUP10 ADD MLOAD DUP3 SSTORE PUSH1 0x1 DUP3 ADD SWAP2 POP PUSH1 0x20 DUP6 ADD SWAP5 POP PUSH1 0x20 DUP2 ADD SWAP1 POP PUSH2 0x350 JUMP JUMPDEST DUP7 DUP4 LT ISZERO PUSH2 0x392 JUMPI DUP5 DUP10 ADD MLOAD PUSH2 0x38E PUSH1 0x1F DUP10 AND DUP3 PUSH2 0x2A1 JUMP JUMPDEST DUP4 SSTORE POP JUMPDEST PUSH1 0x1 PUSH1 0x2 DUP9 MUL ADD DUP9 SSTORE POP POP POP JUMPDEST POP POP POP POP POP POP JUMP JUMPDEST PUSH0 DUP2 SWAP1 POP DUP2 PUSH0 MSTORE PUSH1 0x20 PUSH0 KECCAK256 SWAP1 POP SWAP2 SWAP1 POP JUMP JUMPDEST PUSH1 0x1F DUP3 GT ISZERO PUSH2 0x3FA JUMPI PUSH2 0x3CB DUP2 PUSH2 0x3A7 JUMP JUMPDEST PUSH2 0x3D4 DUP5 PUSH2 0x144 JUMP JUMPDEST DUP2 ADD PUSH1 0x20 DUP6 LT ISZERO PUSH2 0x3E3 JUMPI DUP2 SWAP1 POP JUMPDEST PUSH2 0x3F7 PUSH2 0x3EF DUP6 PUSH2 0x144 JUMP JUMPDEST DUP4 ADD DUP3 PUSH2 0x22D JUMP JUMPDEST POP POP JUMPDEST POP POP POP JUMP JUMPDEST PUSH2 0x408 DUP3 PUSH2 0x9E JUMP JUMPDEST PUSH8 0xFFFFFFFFFFFFFFFF DUP2 GT ISZERO PUSH2 0x421 JUMPI PUSH2 0x420 PUSH2 0xA8 JUMP JUMPDEST JUMPDEST PUSH2 0x42B DUP3 SLOAD PUSH2 0x102 JUMP JUMPDEST PUSH2 0x436 DUP3 DUP3 DUP6 PUSH2 0x3B9 JUMP JUMPDEST PUSH0 PUSH1 0x20 SWAP1 POP PUSH1 0x1F DUP4 GT PUSH1 0x1 DUP2 EQ PUSH2 0x467 JUMPI PUSH0 DUP5 ISZERO PUSH2 0x455 JUMPI DUP3 DUP8 ADD MLOAD SWAP1 POP JUMPDEST PUSH2 0x45F DUP6 DUP3 PUSH2 0x2BD JUMP JUMPDEST DUP7 SSTORE POP PUSH2 0x4C6 JUMP JUMPDEST PUSH1 0x1F NOT DUP5 AND PUSH2 0x475 DUP7 PUSH2 0x3A7 JUMP JUMPDEST PUSH0 JUMPDEST DUP3 DUP2 LT ISZERO PUSH2 0x49C JUMPI DUP5 DUP10 ADD MLOAD DUP3 SSTORE PUSH1 0x1 DUP3 ADD SWAP2 POP PUSH1 0x20 DUP6 ADD SWAP5 POP PUSH1 0x20 DUP2 ADD SWAP1 POP PUSH2 0x477 JUMP JUMPDEST DUP7 DUP4 LT ISZERO PUSH2 0x4B9 JUMPI DUP5 DUP10 ADD MLOAD PUSH2 0x4B5 PUSH1 0x1F DUP10 AND DUP3 PUSH2 0x2A1 JUMP JUMPDEST DUP4 SSTORE POP JUMPDEST PUSH1 0x1 PUSH1 0x2 DUP9 MUL ADD DUP9 SSTORE POP POP POP JUMPDEST POP POP POP POP POP POP JUMP JUMPDEST PUSH2 0x998 DUP1 PUSH2 0x4DB PUSH0 CODECOPY PUSH0 RETURN INVALID PUSH1 0x80 PUSH1 0x40 MSTORE CALLVALUE DUP1 ISZERO PUSH2 0xF JUMPI PUSH0 DUP1 REVERT JUMPDEST POP PUSH1 0x4 CALLDATASIZE LT PUSH2 0x4A JUMPI PUSH0 CALLDATALOAD PUSH1 0xE0 SHR DUP1 PUSH4 0x492BFA18 EQ PUSH2 0x4E JUMPI DUP1 PUSH4 0x5907432D EQ PUSH2 0x6C JUMPI DUP1 PUSH4 0x82180568 EQ PUSH2 0x88 JUMPI DUP1 PUSH4 0xE5F199B5 EQ PUSH2 0xA4 JUMPI JUMPDEST PUSH0 DUP1 REVERT JUMPDEST PUSH2 0x56 PUSH2 0xC2 JUMP JUMPDEST PUSH1 0x40 MLOAD PUSH2 0x63 SWAP2 SWAP1 PUSH2 0x26E JUMP JUMPDEST PUSH1 0x40 MLOAD DUP1 SWAP2 SUB SWAP1 RETURN JUMPDEST PUSH2 0x86 PUSH1 0x4 DUP1 CALLDATASIZE SUB DUP2 ADD SWAP1 PUSH2 0x81 SWAP2 SWAP1 PUSH2 0x3CB JUMP JUMPDEST PUSH2 0x14D JUMP JUMPDEST STOP JUMPDEST PUSH2 0xA2 PUSH1 0x4 DUP1 CALLDATASIZE SUB DUP2 ADD SWAP1 PUSH2 0x9D SWAP2 SWAP1 PUSH2 0x4B0 JUMP JUMPDEST PUSH2 0x160 JUMP JUMPDEST STOP JUMPDEST PUSH2 0xAC PUSH2 0x172 JUMP JUMPDEST PUSH1 0x40 MLOAD PUSH2 0xB9 SWAP2 SWAP1 PUSH2 0x549 JUMP JUMPDEST PUSH1 0x40 MLOAD DUP1 SWAP2 SUB SWAP1 RETURN JUMPDEST PUSH0 DUP1 SLOAD PUSH2 0xCE SWAP1 PUSH2 0x596 JUMP JUMPDEST DUP1 PUSH1 0x1F ADD PUSH1 0x20 DUP1 SWAP2 DIV MUL PUSH1 0x20 ADD PUSH1 0x40 MLOAD SWAP1 DUP2 ADD PUSH1 0x40 MSTORE DUP1 SWAP3 SWAP2 SWAP1 DUP2 DUP2 MSTORE PUSH1 0x20 ADD DUP3 DUP1 SLOAD PUSH2 0xFA SWAP1 PUSH2 0x596 JUMP JUMPDEST DUP1 ISZERO PUSH2 0x145 JUMPI DUP1 PUSH1 0x1F LT PUSH2 0x11C JUMPI PUSH2 0x100 DUP1 DUP4 SLOAD DIV MUL DUP4 MSTORE SWAP2 PUSH1 0x20 ADD SWAP2 PUSH2 0x145 JUMP JUMPDEST DUP3 ADD SWAP2 SWAP1 PUSH0 MSTORE PUSH1 0x20 PUSH0 KECCAK256 SWAP1 JUMPDEST DUP2 SLOAD DUP2 MSTORE SWAP1 PUSH1 0x1 ADD SWAP1 PUSH1 0x20 ADD DUP1 DUP4 GT PUSH2 0x128 JUMPI DUP3 SWAP1 SUB PUSH1 0x1F AND DUP3 ADD SWAP2 JUMPDEST POP POP POP POP POP DUP2 JUMP JUMPDEST DUP1 PUSH1 0x1 SWAP1 DUP2 PUSH2 0x15C SWAP2 SWAP1 PUSH2 0x76C JUMP JUMPDEST POP POP JUMP JUMPDEST DUP1 PUSH0 SWAP1 DUP2 PUSH2 0x16E SWAP2 SWAP1 PUSH2 0x893 JUMP JUMPDEST POP POP JUMP JUMPDEST PUSH1 0x1 DUP1 SLOAD PUSH2 0x17F SWAP1 PUSH2 0x596 JUMP JUMPDEST DUP1 PUSH1 0x1F ADD PUSH1 0x20 DUP1 SWAP2 DIV MUL PUSH1 0x20 ADD PUSH1 0x40 MLOAD SWAP1 DUP2 ADD PUSH1 0x40 MSTORE DUP1 SWAP3 SWAP2 SWAP1 DUP2 DUP2 MSTORE PUSH1 0x20 ADD DUP3 DUP1 SLOAD PUSH2 0x1AB SWAP1 PUSH2 0x596 JUMP JUMPDEST DUP1 ISZERO PUSH2 0x1F6 JUMPI DUP1 PUSH1 0x1F LT PUSH2 0x1CD JUMPI PUSH2 0x100 DUP1 DUP4 SLOAD DIV MUL DUP4 MSTORE SWAP2 PUSH1 0x20 ADD SWAP2 PUSH2 0x1F6 JUMP JUMPDEST DUP3 ADD SWAP2 SWAP1 PUSH0 MSTORE PUSH1 0x20 PUSH0 KECCAK256 SWAP1 JUMPDEST DUP2 SLOAD DUP2 MSTORE SWAP1 PUSH1 0x1 ADD SWAP1 PUSH1 0x20 ADD DUP1 DUP4 GT PUSH2 0x1D9 JUMPI DUP3 SWAP1 SUB PUSH1 0x1F AND DUP3 ADD SWAP2 JUMPDEST POP POP POP POP POP DUP2 JUMP JUMPDEST PUSH0 DUP2 MLOAD SWAP1 POP SWAP2 SWAP1 POP JUMP JUMPDEST PUSH0 DUP3 DUP3 MSTORE PUSH1 0x20 DUP3 ADD SWAP1 POP SWAP3 SWAP2 POP POP JUMP JUMPDEST DUP3 DUP2 DUP4 MCOPY PUSH0 DUP4 DUP4 ADD MSTORE POP POP POP JUMP JUMPDEST PUSH0 PUSH1 0x1F NOT PUSH1 0x1F DUP4 ADD AND SWAP1 POP SWAP2 SWAP1 POP JUMP JUMPDEST PUSH0 PUSH2 0x240 DUP3 PUSH2 0x1FE JUMP JUMPDEST PUSH2 0x24A DUP2 DUP6 PUSH2 0x208 JUMP JUMPDEST SWAP4 POP PUSH2 0x25A DUP2 DUP6 PUSH1 0x20 DUP7 ADD PUSH2 0x218 JUMP JUMPDEST PUSH2 0x263 DUP2 PUSH2 0x226 JUMP JUMPDEST DUP5 ADD SWAP2 POP POP SWAP3 SWAP2 POP POP JUMP JUMPDEST PUSH0 PUSH1 0x20 DUP3 ADD SWAP1 POP DUP2 DUP2 SUB PUSH0 DUP4 ADD MSTORE PUSH2 0x286 DUP2 DUP5 PUSH2 0x236 JUMP JUMPDEST SWAP1 POP SWAP3 SWAP2 POP POP JUMP JUMPDEST PUSH0 PUSH1 0x40 MLOAD SWAP1 POP SWAP1 JUMP JUMPDEST PUSH0 DUP1 REVERT JUMPDEST PUSH0 DUP1 REVERT JUMPDEST PUSH0 DUP1 REVERT JUMPDEST PUSH0 DUP1 REVERT JUMPDEST PUSH32 0x4E487B7100000000000000000000000000000000000000000000000000000000 PUSH0 MSTORE PUSH1 0x41 PUSH1 0x4 MSTORE PUSH1 0x24 PUSH0 REVERT JUMPDEST PUSH2 0x2DD DUP3 PUSH2 0x226 JUMP JUMPDEST DUP2 ADD DUP2 DUP2 LT PUSH8 0xFFFFFFFFFFFFFFFF DUP3 GT OR ISZERO PUSH2 0x2FC JUMPI PUSH2 0x2FB PUSH2 0x2A7 JUMP JUMPDEST JUMPDEST DUP1 PUSH1 0x40 MSTORE POP POP POP JUMP JUMPDEST PUSH0 PUSH2 0x30E PUSH2 0x28E JUMP JUMPDEST SWAP1 POP PUSH2 0x31A DUP3 DUP3 PUSH2 0x2D4 JUMP JUMPDEST SWAP2 SWAP1 POP JUMP JUMPDEST PUSH0 PUSH8 0xFFFFFFFFFFFFFFFF DUP3 GT ISZERO PUSH2 0x339 JUMPI PUSH2 0x338 PUSH2 0x2A7 JUMP JUMPDEST JUMPDEST PUSH2 0x342 DUP3 PUSH2 0x226 JUMP JUMPDEST SWAP1 POP PUSH1 0x20 DUP2 ADD SWAP1 POP SWAP2 SWAP1 POP JUMP JUMPDEST DUP3 DUP2 DUP4 CALLDATACOPY PUSH0 DUP4 DUP4 ADD MSTORE POP POP POP JUMP JUMPDEST PUSH0 PUSH2 0x36F PUSH2 0x36A DUP5 PUSH2 0x31F JUMP JUMPDEST PUSH2 0x305 JUMP JUMPDEST SWAP1 POP DUP3 DUP2 MSTORE PUSH1 0x20 DUP2 ADD DUP5 DUP5 DUP5 ADD GT ISZERO PUSH2 0x38B JUMPI PUSH2 0x38A PUSH2 0x2A3 JUMP JUMPDEST JUMPDEST PUSH2 0x396 DUP5 DUP3 DUP6 PUSH2 0x34F JUMP JUMPDEST POP SWAP4 SWAP3 POP POP POP JUMP JUMPDEST PUSH0 DUP3 PUSH1 0x1F DUP4 ADD SLT PUSH2 0x3B2 JUMPI PUSH2 0x3B1 PUSH2 0x29F JUMP JUMPDEST JUMPDEST DUP2 CALLDATALOAD PUSH2 0x3C2 DUP5 DUP3 PUSH1 0x20 DUP7 ADD PUSH2 0x35D JUMP JUMPDEST SWAP2 POP POP SWAP3 SWAP2 POP POP JUMP JUMPDEST PUSH0 PUSH1 0x20 DUP3 DUP5 SUB SLT ISZERO PUSH2 0x3E0 JUMPI PUSH2 0x3DF PUSH2 0x297 JUMP JUMPDEST JUMPDEST PUSH0 DUP3 ADD CALLDATALOAD PUSH8 0xFFFFFFFFFFFFFFFF DUP2 GT ISZERO PUSH2 0x3FD JUMPI PUSH2 0x3FC PUSH2 0x29B JUMP JUMPDEST JUMPDEST PUSH2 0x409 DUP5 DUP3 DUP6 ADD PUSH2 0x39E JUMP JUMPDEST SWAP2 POP POP SWAP3 SWAP2 POP POP JUMP JUMPDEST PUSH0 PUSH8 0xFFFFFFFFFFFFFFFF DUP3 GT ISZERO PUSH2 0x42C JUMPI PUSH2 0x42B PUSH2 0x2A7 JUMP JUMPDEST JUMPDEST PUSH2 0x435 DUP3 PUSH2 0x226 JUMP JUMPDEST SWAP1 POP PUSH1 0x20 DUP2 ADD SWAP1 POP SWAP2 SWAP1 POP JUMP JUMPDEST PUSH0 PUSH2 0x454 PUSH2 0x44F DUP5 PUSH2 0x412 JUMP JUMPDEST PUSH2 0x305 JUMP JUMPDEST SWAP1 POP DUP3 DUP2 MSTORE PUSH1 0x20 DUP2 ADD DUP5 DUP5 DUP5 ADD GT ISZERO PUSH2 0x470 JUMPI PUSH2 0x46F PUSH2 0x2A3 JUMP JUMPDEST JUMPDEST PUSH2 0x47B DUP5 DUP3 DUP6 PUSH2 0x34F JUMP JUMPDEST POP SWAP4 SWAP3 POP POP POP JUMP JUMPDEST PUSH0 DUP3 PUSH1 0x1F DUP4 ADD SLT PUSH2 0x497 JUMPI PUSH2 0x496 PUSH2 0x29F JUMP JUMPDEST JUMPDEST DUP2 CALLDATALOAD PUSH2 0x4A7 DUP5 DUP3 PUSH1 0x20 DUP7 ADD PUSH2 0x442 JUMP JUMPDEST SWAP2 POP POP SWAP3 SWAP2 POP POP JUMP JUMPDEST PUSH0 PUSH1 0x20 DUP3 DUP5 SUB SLT ISZERO PUSH2 0x4C5 JUMPI PUSH2 0x4C4 PUSH2 0x297 JUMP JUMPDEST JUMPDEST PUSH0 DUP3 ADD CALLDATALOAD PUSH8 0xFFFFFFFFFFFFFFFF DUP2 GT ISZERO PUSH2 0x4E2 JUMPI PUSH2 0x4E1 PUSH2 0x29B JUMP JUMPDEST JUMPDEST PUSH2 0x4EE DUP5 DUP3 DUP6 ADD PUSH2 0x483 JUMP JUMPDEST SWAP2 POP POP SWAP3 SWAP2 POP POP JUMP JUMPDEST PUSH0 DUP2 MLOAD SWAP1 POP SWAP2 SWAP1 POP JUMP JUMPDEST PUSH0 DUP3 DUP3 MSTORE PUSH1 0x20 DUP3 ADD SWAP1 POP SWAP3 SWAP2 POP POP JUMP JUMPDEST PUSH0 PUSH2 0x51B DUP3 PUSH2 0x4F7 JUMP JUMPDEST PUSH2 0x525 DUP2 DUP6 PUSH2 0x501 JUMP JUMPDEST SWAP4 POP PUSH2 0x535 DUP2 DUP6 PUSH1 0x20 DUP7 ADD PUSH2 0x218 JUMP JUMPDEST PUSH2 0x53E DUP2 PUSH2 0x226 JUMP JUMPDEST DUP5 ADD SWAP2 POP POP SWAP3 SWAP2 POP POP JUMP JUMPDEST PUSH0 PUSH1 0x20 DUP3 ADD SWAP1 POP DUP2 DUP2 SUB PUSH0 DUP4 ADD MSTORE PUSH2 0x561 DUP2 DUP5 PUSH2 0x511 JUMP JUMPDEST SWAP1 POP SWAP3 SWAP2 POP POP JUMP JUMPDEST PUSH32 0x4E487B7100000000000000000000000000000000000000000000000000000000 PUSH0 MSTORE PUSH1 0x22 PUSH1 0x4 MSTORE PUSH1 0x24 PUSH0 REVERT JUMPDEST PUSH0 PUSH1 0x2 DUP3 DIV SWAP1 POP PUSH1 0x1 DUP3 AND DUP1 PUSH2 0x5AD JUMPI PUSH1 0x7F DUP3 AND SWAP2 POP JUMPDEST PUSH1 0x20 DUP3 LT DUP2 SUB PUSH2 0x5C0 JUMPI PUSH2 0x5BF PUSH2 0x569 JUMP JUMPDEST JUMPDEST POP SWAP2 SWAP1 POP JUMP JUMPDEST PUSH0 DUP2 SWAP1 POP DUP2 PUSH0 MSTORE PUSH1 0x20 PUSH0 KECCAK256 SWAP1 POP SWAP2 SWAP1 POP JUMP JUMPDEST PUSH0 PUSH1 0x20 PUSH1 0x1F DUP4 ADD DIV SWAP1 POP SWAP2 SWAP1 POP JUMP JUMPDEST PUSH0 DUP3 DUP3 SHL SWAP1 POP SWAP3 SWAP2 POP POP JUMP JUMPDEST PUSH0 PUSH1 0x8 DUP4 MUL PUSH2 0x622 PUSH32 0xFFFFFFFFFFFFFFFFFFFFFFFFFFFFFFFFFFFFFFFFFFFFFFFFFFFFFFFFFFFFFFFF DUP3 PUSH2 0x5E7 JUMP JUMPDEST PUSH2 0x62C DUP7 DUP4 PUSH2 0x5E7 JUMP JUMPDEST SWAP6 POP DUP1 NOT DUP5 AND SWAP4 POP DUP1 DUP7 AND DUP5 OR SWAP3 POP POP POP SWAP4 SWAP3 POP POP POP JUMP JUMPDEST PUSH0 DUP2 SWAP1 POP SWAP2 SWAP1 POP JUMP JUMPDEST PUSH0 DUP2 SWAP1 POP SWAP2 SWAP1 POP JUMP JUMPDEST PUSH0 PUSH2 0x670 PUSH2 0x66B PUSH2 0x666 DUP5 PUSH2 0x644 JUMP JUMPDEST PUSH2 0x64D JUMP JUMPDEST PUSH2 0x644 JUMP JUMPDEST SWAP1 POP SWAP2 SWAP1 POP JUMP JUMPDEST PUSH0 DUP2 SWAP1 POP SWAP2 SWAP1 POP JUMP JUMPDEST PUSH2 0x689 DUP4 PUSH2 0x656 JUMP JUMPDEST PUSH2 0x69D PUSH2 0x695 DUP3 PUSH2 0x677 JUMP JUMPDEST DUP5 DUP5 SLOAD PUSH2 0x5F3 JUMP JUMPDEST DUP3 SSTORE POP POP POP POP JUMP JUMPDEST PUSH0 SWAP1 JUMP JUMPDEST PUSH2 0x6B1 PUSH2 0x6A5 JUMP JUMPDEST PUSH2 0x6BC DUP2 DUP5 DUP5 PUSH2 0x680 JUMP JUMPDEST POP POP POP JUMP JUMPDEST JUMPDEST DUP2 DUP2 LT ISZERO PUSH2 0x6DF JUMPI PUSH2 0x6D4 PUSH0 DUP3 PUSH2 0x6A9 JUMP JUMPDEST PUSH1 0x1 DUP2 ADD SWAP1 POP PUSH2 0x6C2 JUMP JUMPDEST POP POP JUMP JUMPDEST PUSH1 0x1F DUP3 GT ISZERO PUSH2 0x724 JUMPI PUSH2 0x6F5 DUP2 PUSH2 0x5C6 JUMP JUMPDEST PUSH2 0x6FE DUP5 PUSH2 0x5D8 JUMP JUMPDEST DUP2 ADD PUSH1 0x20 DUP6 LT ISZERO PUSH2 0x70D JUMPI DUP2 SWAP1 POP JUMPDEST PUSH2 0x721 PUSH2 0x719 DUP6 PUSH2 0x5D8 JUMP JUMPDEST DUP4 ADD DUP3 PUSH2 0x6C1 JUMP JUMPDEST POP POP JUMPDEST POP POP POP JUMP JUMPDEST PUSH0 DUP3 DUP3 SHR SWAP1 POP SWAP3 SWAP2 POP POP JUMP JUMPDEST PUSH0 PUSH2 0x744 PUSH0 NOT DUP5 PUSH1 0x8 MUL PUSH2 0x729 JUMP JUMPDEST NOT DUP1 DUP4 AND SWAP2 POP POP SWAP3 SWAP2 POP POP JUMP JUMPDEST PUSH0 PUSH2 0x75C DUP4 DUP4 PUSH2 0x735 JUMP JUMPDEST SWAP2 POP DUP3 PUSH1 0x2 MUL DUP3 OR SWAP1 POP SWAP3 SWAP2 POP POP JUMP JUMPDEST PUSH2 0x775 DUP3 PUSH2 0x4F7 JUMP JUMPDEST PUSH8 0xFFFFFFFFFFFFFFFF DUP2 GT ISZERO PUSH2 0x78E JUMPI PUSH2 0x78D PUSH2 0x2A7 JUMP JUMPDEST JUMPDEST PUSH2 0x798 DUP3 SLOAD PUSH2 0x596 JUMP JUMPDEST PUSH2 0x7A3 DUP3 DUP3 DUP6 PUSH2 0x6E3 JUMP JUMPDEST PUSH0 PUSH1 0x20 SWAP1 POP PUSH1 0x1F DUP4 GT PUSH1 0x1 DUP2 EQ PUSH2 0x7D4 JUMPI PUSH0 DUP5 ISZERO PUSH2 0x7C2 JUMPI DUP3 DUP8 ADD MLOAD SWAP1 POP JUMPDEST PUSH2 0x7CC DUP6 DUP3 PUSH2 0x751 JUMP JUMPDEST DUP7 SSTORE POP PUSH2 0x833 JUMP JUMPDEST PUSH1 0x1F NOT DUP5 AND PUSH2 0x7E2 DUP7 PUSH2 0x5C6 JUMP JUMPDEST PUSH0 JUMPDEST DUP3 DUP2 LT ISZERO PUSH2 0x809 JUMPI DUP5 DUP10 ADD MLOAD DUP3 SSTORE PUSH1 0x1 DUP3 ADD SWAP2 POP PUSH1 0x20 DUP6 ADD SWAP5 POP PUSH1 0x20 DUP2 ADD SWAP1 POP PUSH2 0x7E4 JUMP JUMPDEST DUP7 DUP4 LT ISZERO PUSH2 0x826 JUMPI DUP5 DUP10 ADD MLOAD PUSH2 0x822 PUSH1 0x1F DUP10 AND DUP3 PUSH2 0x735 JUMP JUMPDEST DUP4 SSTORE POP JUMPDEST PUSH1 0x1 PUSH1 0x2 DUP9 MUL ADD DUP9 SSTORE POP POP POP JUMPDEST POP POP POP POP POP POP JUMP JUMPDEST PUSH0 DUP2 SWAP1 POP DUP2 PUSH0 MSTORE PUSH1 0x20 PUSH0 KECCAK256 SWAP1 POP SWAP2 SWAP1 POP JUMP JUMPDEST PUSH1 0x1F DUP3 GT ISZERO PUSH2 0x88E JUMPI PUSH2 0x85F DUP2 PUSH2 0x83B JUMP JUMPDEST PUSH2 0x868 DUP5 PUSH2 0x5D8 JUMP JUMPDEST DUP2 ADD PUSH1 0x20 DUP6 LT ISZERO PUSH2 0x877 JUMPI DUP2 SWAP1 POP JUMPDEST PUSH2 0x88B PUSH2 0x883 DUP6 PUSH2 0x5D8 JUMP JUMPDEST DUP4 ADD DUP3 PUSH2 0x6C1 JUMP JUMPDEST POP POP JUMPDEST POP POP POP JUMP JUMPDEST PUSH2 0x89C DUP3 PUSH2 0x1FE JUMP JUMPDEST PUSH8 0xFFFFFFFFFFFFFFFF DUP2 GT ISZERO PUSH2 0x8B5 JUMPI PUSH2 0x8B4 PUSH2 0x2A7 JUMP JUMPDEST JUMPDEST PUSH2 0x8BF DUP3 SLOAD PUSH2 0x596 JUMP JUMPDEST PUSH2 0x8CA DUP3 DUP3 DUP6 PUSH2 0x84D JUMP JUMPDEST PUSH0 PUSH1 0x20 SWAP1 POP PUSH1 0x1F DUP4 GT PUSH1 0x1 DUP2 EQ PUSH2 0x8FB JUMPI PUSH0 DUP5 ISZERO PUSH2 0x8E9 JUMPI DUP3 DUP8 ADD MLOAD SWAP1 POP JUMPDEST PUSH2 0x8F3 DUP6 DUP3 PUSH2 0x751 JUMP JUMPDEST DUP7 SSTORE POP PUSH2 0x95A JUMP JUMPDEST PUSH1 0x1F NOT DUP5 AND PUSH2 0x909 DUP7 PUSH2 0x83B JUMP JUMPDEST PUSH0 JUMPDEST DUP3 DUP2 LT ISZERO PUSH2 0x930 JUMPI DUP5 DUP10 ADD MLOAD DUP3 SSTORE PUSH1 0x1 DUP3 ADD SWAP2 POP PUSH1 0x20 DUP6 ADD SWAP5 POP PUSH1 0x20 DUP2 ADD SWAP1 POP PUSH2 0x90B JUMP JUMPDEST DUP7 DUP4 LT ISZERO PUSH2 0x94D JUMPI DUP5 DUP10 ADD MLOAD PUSH2 0x949 PUSH1 0x1F DUP10 AND DUP3 PUSH2 0x735 JUMP JUMPDEST DUP4 SSTORE POP JUMPDEST PUSH1 0x1 PUSH1 0x2 DUP9 MUL ADD DUP9 SSTORE POP POP POP JUMPDEST POP POP POP POP POP POP JUMP INVALID LOG2 PUSH5 0x6970667358 0x22 SLT KECCAK256 SUB 0x2C PUSH17 0xE154B4AECD7886295E31D603CF1011CA31 CALLDATACOPY 0xD8 0xF8 OR XOR DUP12 0xBB SHR DUP8 0x2C SWAP11 PREVRANDAO PUSH5 0x736F6C6343 STOP ADDMOD BYTE STOP CALLER "
				},
				"gasEstimates": {
					"creation": {
						"codeDepositCost": "491200",
						"executionCost": "infinite",
						"totalCost": "infinite"
					},
					"external": {
						"myByte()": "infinite",
						"myString()": "infinite",
						"setMyBytes(bytes)": "infinite",
						"setMyString(string)": "infinite"
					}
				},
				"methodIdentifiers": {
					"myByte()": "e5f199b5",
					"myString()": "492bfa18",
					"setMyBytes(bytes)": "5907432d",
					"setMyString(string)": "82180568"
				}
			},
			"storageLayout": {
				"storage": [
					{
						"astId": 4,
						"contract": "contracts/EthStrings.sol:EthStrings",
						"label": "myString",
						"offset": 0,
						"slot": "0",
						"type": "t_string_storage"
					},
					{
						"astId": 17,
						"contract": "contracts/EthStrings.sol:EthStrings",
						"label": "myByte",
						"offset": 0,
						"slot": "1",
						"type": "t_bytes_storage"
					}
				],
				"types": {
					"t_bytes_storage": {
						"encoding": "bytes",
						"label": "bytes",
						"numberOfBytes": "32"
					},
					"t_string_storage": {
						"encoding": "bytes",
						"label": "string",
						"numberOfBytes": "32"
					}
				}
			},
			"userdoc": {
				"kind": "user",
				"methods": {},
				"version": 1
			}
		}
	}
}