{
	"contracts/EthUint.sol": {
		"MyUint": {
			"abi": [
				{
					"inputs": [],
					"name": "myInt",
					"outputs": [
						{
							"internalType": "int256",
							"name": "",
							"type": "int256"
						}
					],
					"stateMutability": "view",
					"type": "function"
				},
				{
					"inputs": [],
					"name": "myUint",
					"outputs": [
						{
							"internalType": "uint256",
							"name": "",
							"type": "uint256"
						}
					],
					"stateMutability": "view",
					"type": "function"
				},
				{
					"inputs": [],
					"name": "myUint8",
					"outputs": [
						{
							"internalType": "uint8",
							"name": "",
							"type": "uint8"
						}
					],
					"stateMutability": "view",
					"type": "function"
				},
				{
					"inputs": [
						{
							"internalType": "int256",
							"name": "_myint",
							"type": "int256"
						}
					],
					"name": "setMyInt",
					"outputs": [],
					"stateMutability": "nonpayable",
					"type": "function"
				},
				{
					"inputs": [
						{
							"internalType": "uint256",
							"name": "_myUint",
							"type": "uint256"
						}
					],
					"name": "setMyUint",
					"outputs": [],
					"stateMutability": "nonpayable",
					"type": "function"
				},
				{
					"inputs": [
						{
							"internalType": "uint8",
							"name": "_myUint8",
							"type": "uint8"
						}
					],
					"name": "setMyUint8",
					"outputs": [],
					"stateMutability": "nonpayable",
					"type": "function"
				}
			],
			"devdoc": {
				"kind": "dev",
				"methods": {},
				"version": 1
			},
			"evm": {
				"assembly": "    /* \"contracts/EthUint.sol\":58:513  contract MyUint {... */\n  mstore(0x40, 0x80)\n    /* \"contracts/EthUint.sol\":132:137  83756 */\n  0x01472c\n    /* \"contracts/EthUint.sol\":108:137  uint256 public myUint = 83756 */\n  0x00\n  sstore\n    /* \"contracts/EthUint.sol\":58:513  contract MyUint {... */\n  callvalue\n  dup1\n  iszero\n  tag_1\n  jumpi\n  0x00\n  dup1\n  revert\ntag_1:\n  pop\n  dataSize(sub_0)\n  dup1\n  dataOffset(sub_0)\n  0x00\n  codecopy\n  0x00\n  return\nstop\n\nsub_0: assembly {\n        /* \"contracts/EthUint.sol\":58:513  contract MyUint {... */\n      mstore(0x40, 0x80)\n      callvalue\n      dup1\n      iszero\n      tag_1\n      jumpi\n      0x00\n      dup1\n      revert\n    tag_1:\n      pop\n      jumpi(tag_2, lt(calldatasize, 0x04))\n      shr(0xe0, calldataload(0x00))\n      dup1\n      0x06540f7e\n      eq\n      tag_3\n      jumpi\n      dup1\n      0x2cb777a6\n      eq\n      tag_4\n      jumpi\n      dup1\n      0x4f25eada\n      eq\n      tag_5\n      jumpi\n      dup1\n      0x5f6633bf\n      eq\n      tag_6\n      jumpi\n      dup1\n      0xe2a4b2af\n      eq\n      tag_7\n      jumpi\n      dup1\n      0xe492fd84\n      eq\n      tag_8\n      jumpi\n    tag_2:\n      0x00\n      dup1\n      revert\n        /* \"contracts/EthUint.sol\":108:137  uint256 public myUint = 83756 */\n    tag_3:\n      tag_9\n      tag_10\n      jump\t// in\n    tag_9:\n      mload(0x40)\n      tag_11\n      swap2\n      swap1\n      tag_12\n      jump\t// in\n    tag_11:\n      mload(0x40)\n      dup1\n      swap2\n      sub\n      swap1\n      return\n        /* \"contracts/EthUint.sol\":202:218  int public myInt */\n    tag_4:\n      tag_13\n      tag_14\n      jump\t// in\n    tag_13:\n      mload(0x40)\n      tag_15\n      swap2\n      swap1\n      tag_16\n      jump\t// in\n    tag_15:\n      mload(0x40)\n      dup1\n      swap2\n      sub\n      swap1\n      return\n        /* \"contracts/EthUint.sol\":326:404  function setMyUint8(uint8 _myUint8) public {... */\n    tag_5:\n      tag_17\n      0x04\n      dup1\n      calldatasize\n      sub\n      dup2\n      add\n      swap1\n      tag_18\n      swap2\n      swap1\n      tag_19\n      jump\t// in\n    tag_18:\n      tag_20\n      jump\t// in\n    tag_17:\n      stop\n        /* \"contracts/EthUint.sol\":442:510  function setMyInt(int _myint) public {... */\n    tag_6:\n      tag_21\n      0x04\n      dup1\n      calldatasize\n      sub\n      dup2\n      add\n      swap1\n      tag_22\n      swap2\n      swap1\n      tag_23\n      jump\t// in\n    tag_22:\n      tag_24\n      jump\t// in\n    tag_21:\n      stop\n        /* \"contracts/EthUint.sol\":144:164  uint8 public myUint8 */\n    tag_7:\n      tag_25\n      tag_26\n      jump\t// in\n    tag_25:\n      mload(0x40)\n      tag_27\n      swap2\n      swap1\n      tag_28\n      jump\t// in\n    tag_27:\n      mload(0x40)\n      dup1\n      swap2\n      sub\n      swap1\n      return\n        /* \"contracts/EthUint.sol\":247:320  function setMyUint(uint _myUint) public {... */\n    tag_8:\n      tag_29\n      0x04\n      dup1\n      calldatasize\n      sub\n      dup2\n      add\n      swap1\n      tag_30\n      swap2\n      swap1\n      tag_31\n      jump\t// in\n    tag_30:\n      tag_32\n      jump\t// in\n    tag_29:\n      stop\n        /* \"contracts/EthUint.sol\":108:137  uint256 public myUint = 83756 */\n    tag_10:\n      sload(0x00)\n      dup2\n      jump\t// out\n        /* \"contracts/EthUint.sol\":202:218  int public myInt */\n    tag_14:\n      sload(0x02)\n      dup2\n      jump\t// out\n        /* \"contracts/EthUint.sol\":326:404  function setMyUint8(uint8 _myUint8) public {... */\n    tag_20:\n        /* \"contracts/EthUint.sol\":389:397  _myUint8 */\n      dup1\n        /* \"contracts/EthUint.sol\":379:386  myUint8 */\n      0x01\n      0x00\n        /* \"contracts/EthUint.sol\":379:397  myUint8 = _myUint8 */\n      0x0100\n      exp\n      dup2\n      sload\n      dup2\n      0xff\n      mul\n      not\n      and\n      swap1\n      dup4\n      0xff\n      and\n      mul\n      or\n      swap1\n      sstore\n      pop\n        /* \"contracts/EthUint.sol\":326:404  function setMyUint8(uint8 _myUint8) public {... */\n      pop\n      jump\t// out\n        /* \"contracts/EthUint.sol\":442:510  function setMyInt(int _myint) public {... */\n    tag_24:\n        /* \"contracts/EthUint.sol\":497:503  _myint */\n      dup1\n        /* \"contracts/EthUint.sol\":489:494  myInt */\n      0x02\n        /* \"contracts/EthUint.sol\":489:503  myInt = _myint */\n      dup2\n      swap1\n      sstore\n      pop\n        /* \"contracts/EthUint.sol\":442:510  function setMyInt(int _myint) public {... */\n      pop\n      jump\t// out\n        /* \"contracts/EthUint.sol\":144:164  uint8 public myUint8 */\n    tag_26:\n      0x01\n      0x00\n      swap1\n      sload\n      swap1\n      0x0100\n      exp\n      swap1\n      div\n      0xff\n      and\n      dup2\n      jump\t// out\n        /* \"contracts/EthUint.sol\":247:320  function setMyUint(uint _myUint) public {... */\n    tag_32:\n        /* \"contracts/EthUint.sol\":306:313  _myUint */\n      dup1\n        /* \"contracts/EthUint.sol\":297:303  myUint */\n      0x00\n        /* \"contracts/EthUint.sol\":297:313  myUint = _myUint */\n      dup2\n      swap1\n      sstore\n      pop\n        /* \"contracts/EthUint.sol\":247:320  function setMyUint(uint _myUint) public {... */\n      pop\n      jump\t// out\n        /* \"#utility.yul\":7:84   */\n    tag_36:\n        /* \"#utility.yul\":44:51   */\n      0x00\n        /* \"#utility.yul\":73:78   */\n      dup2\n        /* \"#utility.yul\":62:78   */\n      swap1\n      pop\n        /* \"#utility.yul\":7:84   */\n      swap2\n      swap1\n      pop\n      jump\t// out\n        /* \"#utility.yul\":90:208   */\n    tag_37:\n        /* \"#utility.yul\":177:201   */\n      tag_54\n        /* \"#utility.yul\":195:200   */\n      dup2\n        /* \"#utility.yul\":177:201   */\n      tag_36\n      jump\t// in\n    tag_54:\n        /* \"#utility.yul\":172:175   */\n      dup3\n        /* \"#utility.yul\":165:202   */\n      mstore\n        /* \"#utility.yul\":90:208   */\n      pop\n      pop\n      jump\t// out\n        /* \"#utility.yul\":214:436   */\n    tag_12:\n        /* \"#utility.yul\":307:311   */\n      0x00\n        /* \"#utility.yul\":345:347   */\n      0x20\n        /* \"#utility.yul\":334:343   */\n      dup3\n        /* \"#utility.yul\":330:348   */\n      add\n        /* \"#utility.yul\":322:348   */\n      swap1\n      pop\n        /* \"#utility.yul\":358:429   */\n      tag_56\n        /* \"#utility.yul\":426:427   */\n      0x00\n        /* \"#utility.yul\":415:424   */\n      dup4\n        /* \"#utility.yul\":411:428   */\n      add\n        /* \"#utility.yul\":402:408   */\n      dup5\n        /* \"#utility.yul\":358:429   */\n      tag_37\n      jump\t// in\n    tag_56:\n        /* \"#utility.yul\":214:436   */\n      swap3\n      swap2\n      pop\n      pop\n      jump\t// out\n        /* \"#utility.yul\":442:518   */\n    tag_38:\n        /* \"#utility.yul\":478:485   */\n      0x00\n        /* \"#utility.yul\":507:512   */\n      dup2\n        /* \"#utility.yul\":496:512   */\n      swap1\n      pop\n        /* \"#utility.yul\":442:518   */\n      swap2\n      swap1\n      pop\n      jump\t// out\n        /* \"#utility.yul\":524:639   */\n    tag_39:\n        /* \"#utility.yul\":609:632   */\n      tag_59\n        /* \"#utility.yul\":626:631   */\n      dup2\n        /* \"#utility.yul\":609:632   */\n      tag_38\n      jump\t// in\n    tag_59:\n        /* \"#utility.yul\":604:607   */\n      dup3\n        /* \"#utility.yul\":597:633   */\n      mstore\n        /* \"#utility.yul\":524:639   */\n      pop\n      pop\n      jump\t// out\n        /* \"#utility.yul\":645:863   */\n    tag_16:\n        /* \"#utility.yul\":736:740   */\n      0x00\n        /* \"#utility.yul\":774:776   */\n      0x20\n        /* \"#utility.yul\":763:772   */\n      dup3\n        /* \"#utility.yul\":759:777   */\n      add\n        /* \"#utility.yul\":751:777   */\n      swap1\n      pop\n        /* \"#utility.yul\":787:856   */\n      tag_61\n        /* \"#utility.yul\":853:854   */\n      0x00\n        /* \"#utility.yul\":842:851   */\n      dup4\n        /* \"#utility.yul\":838:855   */\n      add\n        /* \"#utility.yul\":829:835   */\n      dup5\n        /* \"#utility.yul\":787:856   */\n      tag_39\n      jump\t// in\n    tag_61:\n        /* \"#utility.yul\":645:863   */\n      swap3\n      swap2\n      pop\n      pop\n      jump\t// out\n        /* \"#utility.yul\":950:1067   */\n    tag_41:\n        /* \"#utility.yul\":1059:1060   */\n      0x00\n        /* \"#utility.yul\":1056:1057   */\n      dup1\n        /* \"#utility.yul\":1049:1061   */\n      revert\n        /* \"#utility.yul\":1196:1282   */\n    tag_43:\n        /* \"#utility.yul\":1231:1238   */\n      0x00\n        /* \"#utility.yul\":1271:1275   */\n      0xff\n        /* \"#utility.yul\":1264:1269   */\n      dup3\n        /* \"#utility.yul\":1260:1276   */\n      and\n        /* \"#utility.yul\":1249:1276   */\n      swap1\n      pop\n        /* \"#utility.yul\":1196:1282   */\n      swap2\n      swap1\n      pop\n      jump\t// out\n        /* \"#utility.yul\":1288:1406   */\n    tag_44:\n        /* \"#utility.yul\":1359:1381   */\n      tag_67\n        /* \"#utility.yul\":1375:1380   */\n      dup2\n        /* \"#utility.yul\":1359:1381   */\n      tag_43\n      jump\t// in\n    tag_67:\n        /* \"#utility.yul\":1352:1357   */\n      dup2\n        /* \"#utility.yul\":1349:1382   */\n      eq\n        /* \"#utility.yul\":1339:1400   */\n      tag_68\n      jumpi\n        /* \"#utility.yul\":1396:1397   */\n      0x00\n        /* \"#utility.yul\":1393:1394   */\n      dup1\n        /* \"#utility.yul\":1386:1398   */\n      revert\n        /* \"#utility.yul\":1339:1400   */\n    tag_68:\n        /* \"#utility.yul\":1288:1406   */\n      pop\n      jump\t// out\n        /* \"#utility.yul\":1412:1547   */\n    tag_45:\n        /* \"#utility.yul\":1456:1461   */\n      0x00\n        /* \"#utility.yul\":1494:1500   */\n      dup2\n        /* \"#utility.yul\":1481:1501   */\n      calldataload\n        /* \"#utility.yul\":1472:1501   */\n      swap1\n      pop\n        /* \"#utility.yul\":1510:1541   */\n      tag_70\n        /* \"#utility.yul\":1535:1540   */\n      dup2\n        /* \"#utility.yul\":1510:1541   */\n      tag_44\n      jump\t// in\n    tag_70:\n        /* \"#utility.yul\":1412:1547   */\n      swap3\n      swap2\n      pop\n      pop\n      jump\t// out\n        /* \"#utility.yul\":1553:1878   */\n    tag_19:\n        /* \"#utility.yul\":1610:1616   */\n      0x00\n        /* \"#utility.yul\":1659:1661   */\n      0x20\n        /* \"#utility.yul\":1647:1656   */\n      dup3\n        /* \"#utility.yul\":1638:1645   */\n      dup5\n        /* \"#utility.yul\":1634:1657   */\n      sub\n        /* \"#utility.yul\":1630:1662   */\n      slt\n        /* \"#utility.yul\":1627:1746   */\n      iszero\n      tag_72\n      jumpi\n        /* \"#utility.yul\":1665:1744   */\n      tag_73\n      tag_41\n      jump\t// in\n    tag_73:\n        /* \"#utility.yul\":1627:1746   */\n    tag_72:\n        /* \"#utility.yul\":1785:1786   */\n      0x00\n        /* \"#utility.yul\":1810:1861   */\n      tag_74\n        /* \"#utility.yul\":1853:1860   */\n      dup5\n        /* \"#utility.yul\":1844:1850   */\n      dup3\n        /* \"#utility.yul\":1833:1842   */\n      dup6\n        /* \"#utility.yul\":1829:1851   */\n      add\n        /* \"#utility.yul\":1810:1861   */\n      tag_45\n      jump\t// in\n    tag_74:\n        /* \"#utility.yul\":1800:1861   */\n      swap2\n      pop\n        /* \"#utility.yul\":1756:1871   */\n      pop\n        /* \"#utility.yul\":1553:1878   */\n      swap3\n      swap2\n      pop\n      pop\n      jump\t// out\n        /* \"#utility.yul\":1884:2004   */\n    tag_46:\n        /* \"#utility.yul\":1956:1979   */\n      tag_76\n        /* \"#utility.yul\":1973:1978   */\n      dup2\n        /* \"#utility.yul\":1956:1979   */\n      tag_38\n      jump\t// in\n    tag_76:\n        /* \"#utility.yul\":1949:1954   */\n      dup2\n        /* \"#utility.yul\":1946:1980   */\n      eq\n        /* \"#utility.yul\":1936:1998   */\n      tag_77\n      jumpi\n        /* \"#utility.yul\":1994:1995   */\n      0x00\n        /* \"#utility.yul\":1991:1992   */\n      dup1\n        /* \"#utility.yul\":1984:1996   */\n      revert\n        /* \"#utility.yul\":1936:1998   */\n    tag_77:\n        /* \"#utility.yul\":1884:2004   */\n      pop\n      jump\t// out\n        /* \"#utility.yul\":2010:2147   */\n    tag_47:\n        /* \"#utility.yul\":2055:2060   */\n      0x00\n        /* \"#utility.yul\":2093:2099   */\n      dup2\n        /* \"#utility.yul\":2080:2100   */\n      calldataload\n        /* \"#utility.yul\":2071:2100   */\n      swap1\n      pop\n        /* \"#utility.yul\":2109:2141   */\n      tag_79\n        /* \"#utility.yul\":2135:2140   */\n      dup2\n        /* \"#utility.yul\":2109:2141   */\n      tag_46\n      jump\t// in\n    tag_79:\n        /* \"#utility.yul\":2010:2147   */\n      swap3\n      swap2\n      pop\n      pop\n      jump\t// out\n        /* \"#utility.yul\":2153:2480   */\n    tag_23:\n        /* \"#utility.yul\":2211:2217   */\n      0x00\n        /* \"#utility.yul\":2260:2262   */\n      0x20\n        /* \"#utility.yul\":2248:2257   */\n      dup3\n        /* \"#utility.yul\":2239:2246   */\n      dup5\n        /* \"#utility.yul\":2235:2258   */\n      sub\n        /* \"#utility.yul\":2231:2263   */\n      slt\n        /* \"#utility.yul\":2228:2347   */\n      iszero\n      tag_81\n      jumpi\n        /* \"#utility.yul\":2266:2345   */\n      tag_82\n      tag_41\n      jump\t// in\n    tag_82:\n        /* \"#utility.yul\":2228:2347   */\n    tag_81:\n        /* \"#utility.yul\":2386:2387   */\n      0x00\n        /* \"#utility.yul\":2411:2463   */\n      tag_83\n        /* \"#utility.yul\":2455:2462   */\n      dup5\n        /* \"#utility.yul\":2446:2452   */\n      dup3\n        /* \"#utility.yul\":2435:2444   */\n      dup6\n        /* \"#utility.yul\":2431:2453   */\n      add\n        /* \"#utility.yul\":2411:2463   */\n      tag_47\n      jump\t// in\n    tag_83:\n        /* \"#utility.yul\":2401:2463   */\n      swap2\n      pop\n        /* \"#utility.yul\":2357:2473   */\n      pop\n        /* \"#utility.yul\":2153:2480   */\n      swap3\n      swap2\n      pop\n      pop\n      jump\t// out\n        /* \"#utility.yul\":2486:2598   */\n    tag_48:\n        /* \"#utility.yul\":2569:2591   */\n      tag_85\n        /* \"#utility.yul\":2585:2590   */\n      dup2\n        /* \"#utility.yul\":2569:2591   */\n      tag_43\n      jump\t// in\n    tag_85:\n        /* \"#utility.yul\":2564:2567   */\n      dup3\n        /* \"#utility.yul\":2557:2592   */\n      mstore\n        /* \"#utility.yul\":2486:2598   */\n      pop\n      pop\n      jump\t// out\n        /* \"#utility.yul\":2604:2818   */\n    tag_28:\n        /* \"#utility.yul\":2693:2697   */\n      0x00\n        /* \"#utility.yul\":2731:2733   */\n      0x20\n        /* \"#utility.yul\":2720:2729   */\n      dup3\n        /* \"#utility.yul\":2716:2734   */\n      add\n        /* \"#utility.yul\":2708:2734   */\n      swap1\n      pop\n        /* \"#utility.yul\":2744:2811   */\n      tag_87\n        /* \"#utility.yul\":2808:2809   */\n      0x00\n        /* \"#utility.yul\":2797:2806   */\n      dup4\n        /* \"#utility.yul\":2793:2810   */\n      add\n        /* \"#utility.yul\":2784:2790   */\n      dup5\n        /* \"#utility.yul\":2744:2811   */\n      tag_48\n      jump\t// in\n    tag_87:\n        /* \"#utility.yul\":2604:2818   */\n      swap3\n      swap2\n      pop\n      pop\n      jump\t// out\n        /* \"#utility.yul\":2824:2946   */\n    tag_49:\n        /* \"#utility.yul\":2897:2921   */\n      tag_89\n        /* \"#utility.yul\":2915:2920   */\n      dup2\n        /* \"#utility.yul\":2897:2921   */\n      tag_36\n      jump\t// in\n    tag_89:\n        /* \"#utility.yul\":2890:2895   */\n      dup2\n        /* \"#utility.yul\":2887:2922   */\n      eq\n        /* \"#utility.yul\":2877:2940   */\n      tag_90\n      jumpi\n        /* \"#utility.yul\":2936:2937   */\n      0x00\n        /* \"#utility.yul\":2933:2934   */\n      dup1\n        /* \"#utility.yul\":2926:2938   */\n      revert\n        /* \"#utility.yul\":2877:2940   */\n    tag_90:\n        /* \"#utility.yul\":2824:2946   */\n      pop\n      jump\t// out\n        /* \"#utility.yul\":2952:3091   */\n    tag_50:\n        /* \"#utility.yul\":2998:3003   */\n      0x00\n        /* \"#utility.yul\":3036:3042   */\n      dup2\n        /* \"#utility.yul\":3023:3043   */\n      calldataload\n        /* \"#utility.yul\":3014:3043   */\n      swap1\n      pop\n        /* \"#utility.yul\":3052:3085   */\n      tag_92\n        /* \"#utility.yul\":3079:3084   */\n      dup2\n        /* \"#utility.yul\":3052:3085   */\n      tag_49\n      jump\t// in\n    tag_92:\n        /* \"#utility.yul\":2952:3091   */\n      swap3\n      swap2\n      pop\n      pop\n      jump\t// out\n        /* \"#utility.yul\":3097:3426   */\n    tag_31:\n        /* \"#utility.yul\":3156:3162   */\n      0x00\n        /* \"#utility.yul\":3205:3207   */\n      0x20\n        /* \"#utility.yul\":3193:3202   */\n      dup3\n        /* \"#utility.yul\":3184:3191   */\n      dup5\n        /* \"#utility.yul\":3180:3203   */\n      sub\n        /* \"#utility.yul\":3176:3208   */\n      slt\n        /* \"#utility.yul\":3173:3292   */\n      iszero\n      tag_94\n      jumpi\n        /* \"#utility.yul\":3211:3290   */\n      tag_95\n      tag_41\n      jump\t// in\n    tag_95:\n        /* \"#utility.yul\":3173:3292   */\n    tag_94:\n        /* \"#utility.yul\":3331:3332   */\n      0x00\n        /* \"#utility.yul\":3356:3409   */\n      tag_96\n        /* \"#utility.yul\":3401:3408   */\n      dup5\n        /* \"#utility.yul\":3392:3398   */\n      dup3\n        /* \"#utility.yul\":3381:3390   */\n      dup6\n        /* \"#utility.yul\":3377:3399   */\n      add\n        /* \"#utility.yul\":3356:3409   */\n      tag_50\n      jump\t// in\n    tag_96:\n        /* \"#utility.yul\":3346:3409   */\n      swap2\n      pop\n        /* \"#utility.yul\":3302:3419   */\n      pop\n        /* \"#utility.yul\":3097:3426   */\n      swap3\n      swap2\n      pop\n      pop\n      jump\t// out\n\n    auxdata: 0xa2646970667358221220b8e81d4da206d372c1873665e708cb3499bf7ab87cc3e4e5faa33a7efc6ba33d64736f6c634300081a0033\n}\n",
				"bytecode": {
					"linkReferences": {},
					"object": "60806040526201472c5f553480156014575f80fd5b5061032e806100225f395ff3fe608060405234801561000f575f80fd5b5060043610610060575f3560e01c806306540f7e146100645780632cb777a6146100825780634f25eada146100a05780635f6633bf146100bc578063e2a4b2af146100d8578063e492fd84146100f6575b5f80fd5b61006c610112565b6040516100799190610177565b60405180910390f35b61008a610117565b60405161009791906101a8565b60405180910390f35b6100ba60048036038101906100b591906101fb565b61011d565b005b6100d660048036038101906100d19190610250565b61013a565b005b6100e0610144565b6040516100ed919061028a565b60405180910390f35b610110600480360381019061010b91906102cd565b610156565b005b5f5481565b60025481565b8060015f6101000a81548160ff021916908360ff16021790555050565b8060028190555050565b60015f9054906101000a900460ff1681565b805f8190555050565b5f819050919050565b6101718161015f565b82525050565b5f60208201905061018a5f830184610168565b92915050565b5f819050919050565b6101a281610190565b82525050565b5f6020820190506101bb5f830184610199565b92915050565b5f80fd5b5f60ff82169050919050565b6101da816101c5565b81146101e4575f80fd5b50565b5f813590506101f5816101d1565b92915050565b5f602082840312156102105761020f6101c1565b5b5f61021d848285016101e7565b91505092915050565b61022f81610190565b8114610239575f80fd5b50565b5f8135905061024a81610226565b92915050565b5f60208284031215610265576102646101c1565b5b5f6102728482850161023c565b91505092915050565b610284816101c5565b82525050565b5f60208201905061029d5f83018461027b565b92915050565b6102ac8161015f565b81146102b6575f80fd5b50565b5f813590506102c7816102a3565b92915050565b5f602082840312156102e2576102e16101c1565b5b5f6102ef848285016102b9565b9150509291505056fea2646970667358221220b8e81d4da206d372c1873665e708cb3499bf7ab87cc3e4e5faa33a7efc6ba33d64736f6c634300081a0033",
					"opcodes": "PUSH1 0x80 PUSH1 0x40 MSTORE PUSH3 0x1472C PUSH0 SSTORE CALLVALUE DUP1 ISZERO PUSH1 0x14 JUMPI PUSH0 DUP1 REVERT JUMPDEST POP PUSH2 0x32E DUP1 PUSH2 0x22 PUSH0 CODECOPY PUSH0 RETURN INVALID PUSH1 0x80 PUSH1 0x40 MSTORE CALLVALUE DUP1 ISZERO PUSH2 0xF JUMPI PUSH0 DUP1 REVERT JUMPDEST POP PUSH1 0x4 CALLDATASIZE LT PUSH2 0x60 JUMPI PUSH0 CALLDATALOAD PUSH1 0xE0 SHR DUP1 PUSH4 0x6540F7E EQ PUSH2 0x64 JUMPI DUP1 PUSH4 0x2CB777A6 EQ PUSH2 0x82 JUMPI DUP1 PUSH4 0x4F25EADA EQ PUSH2 0xA0 JUMPI DUP1 PUSH4 0x5F6633BF EQ PUSH2 0xBC JUMPI DUP1 PUSH4 0xE2A4B2AF EQ PUSH2 0xD8 JUMPI DUP1 PUSH4 0xE492FD84 EQ PUSH2 0xF6 JUMPI JUMPDEST PUSH0 DUP1 REVERT JUMPDEST PUSH2 0x6C PUSH2 0x112 JUMP JUMPDEST PUSH1 0x40 MLOAD PUSH2 0x79 SWAP2 SWAP1 PUSH2 0x177 JUMP JUMPDEST PUSH1 0x40 MLOAD DUP1 SWAP2 SUB SWAP1 RETURN JUMPDEST PUSH2 0x8A PUSH2 0x117 JUMP JUMPDEST PUSH1 0x40 MLOAD PUSH2 0x97 SWAP2 SWAP1 PUSH2 0x1A8 JUMP JUMPDEST PUSH1 0x40 MLOAD DUP1 SWAP2 SUB SWAP1 RETURN JUMPDEST PUSH2 0xBA PUSH1 0x4 DUP1 CALLDATASIZE SUB DUP2 ADD SWAP1 PUSH2 0xB5 SWAP2 SWAP1 PUSH2 0x1FB JUMP JUMPDEST PUSH2 0x11D JUMP JUMPDEST STOP JUMPDEST PUSH2 0xD6 PUSH1 0x4 DUP1 CALLDATASIZE SUB DUP2 ADD SWAP1 PUSH2 0xD1 SWAP2 SWAP1 PUSH2 0x250 JUMP JUMPDEST PUSH2 0x13A JUMP JUMPDEST STOP JUMPDEST PUSH2 0xE0 PUSH2 0x144 JUMP JUMPDEST PUSH1 0x40 MLOAD PUSH2 0xED SWAP2 SWAP1 PUSH2 0x28A JUMP JUMPDEST PUSH1 0x40 MLOAD DUP1 SWAP2 SUB SWAP1 RETURN JUMPDEST PUSH2 0x110 PUSH1 0x4 DUP1 CALLDATASIZE SUB DUP2 ADD SWAP1 PUSH2 0x10B SWAP2 SWAP1 PUSH2 0x2CD JUMP JUMPDEST PUSH2 0x156 JUMP JUMPDEST STOP JUMPDEST PUSH0 SLOAD DUP2 JUMP JUMPDEST PUSH1 0x2 SLOAD DUP2 JUMP JUMPDEST DUP1 PUSH1 0x1 PUSH0 PUSH2 0x100 EXP DUP2 SLOAD DUP2 PUSH1 0xFF MUL NOT AND SWAP1 DUP4 PUSH1 0xFF AND MUL OR SWAP1 SSTORE POP POP JUMP JUMPDEST DUP1 PUSH1 0x2 DUP2 SWAP1 SSTORE POP POP JUMP JUMPDEST PUSH1 0x1 PUSH0 SWAP1 SLOAD SWAP1 PUSH2 0x100 EXP SWAP1 DIV PUSH1 0xFF AND DUP2 JUMP JUMPDEST DUP1 PUSH0 DUP2 SWAP1 SSTORE POP POP JUMP JUMPDEST PUSH0 DUP2 SWAP1 POP SWAP2 SWAP1 POP JUMP JUMPDEST PUSH2 0x171 DUP2 PUSH2 0x15F JUMP JUMPDEST DUP3 MSTORE POP POP JUMP JUMPDEST PUSH0 PUSH1 0x20 DUP3 ADD SWAP1 POP PUSH2 0x18A PUSH0 DUP4 ADD DUP5 PUSH2 0x168 JUMP JUMPDEST SWAP3 SWAP2 POP POP JUMP JUMPDEST PUSH0 DUP2 SWAP1 POP SWAP2 SWAP1 POP JUMP JUMPDEST PUSH2 0x1A2 DUP2 PUSH2 0x190 JUMP JUMPDEST DUP3 MSTORE POP POP JUMP JUMPDEST PUSH0 PUSH1 0x20 DUP3 ADD SWAP1 POP PUSH2 0x1BB PUSH0 DUP4 ADD DUP5 PUSH2 0x199 JUMP JUMPDEST SWAP3 SWAP2 POP POP JUMP JUMPDEST PUSH0 DUP1 REVERT JUMPDEST PUSH0 PUSH1 0xFF DUP3 AND SWAP1 POP SWAP2 SWAP1 POP JUMP JUMPDEST PUSH2 0x1DA DUP2 PUSH2 0x1C5 JUMP JUMPDEST DUP2 EQ PUSH2 0x1E4 JUMPI PUSH0 DUP1 REVERT JUMPDEST POP JUMP JUMPDEST PUSH0 DUP2 CALLDATALOAD SWAP1 POP PUSH2 0x1F5 DUP2 PUSH2 0x1D1 JUMP JUMPDEST SWAP3 SWAP2 POP POP JUMP JUMPDEST PUSH0 PUSH1 0x20 DUP3 DUP5 SUB SLT ISZERO PUSH2 0x210 JUMPI PUSH2 0x20F PUSH2 0x1C1 JUMP JUMPDEST JUMPDEST PUSH0 PUSH2 0x21D DUP5 DUP3 DUP6 ADD PUSH2 0x1E7 JUMP JUMPDEST SWAP2 POP POP SWAP3 SWAP2 POP POP JUMP JUMPDEST PUSH2 0x22F DUP2 PUSH2 0x190 JUMP JUMPDEST DUP2 EQ PUSH2 0x239 JUMPI PUSH0 DUP1 REVERT JUMPDEST POP JUMP JUMPDEST PUSH0 DUP2 CALLDATALOAD SWAP1 POP PUSH2 0x24A DUP2 PUSH2 0x226 JUMP JUMPDEST SWAP3 SWAP2 POP POP JUMP JUMPDEST PUSH0 PUSH1 0x20 DUP3 DUP5 SUB SLT ISZERO PUSH2 0x265 JUMPI PUSH2 0x264 PUSH2 0x1C1 JUMP JUMPDEST JUMPDEST PUSH0 PUSH2 0x272 DUP5 DUP3 DUP6 ADD PUSH2 0x23C JUMP JUMPDEST SWAP2 POP POP SWAP3 SWAP2 POP POP JUMP JUMPDEST PUSH2 0x284 DUP2 PUSH2 0x1C5 JUMP JUMPDEST DUP3 MSTORE POP POP JUMP JUMPDEST PUSH0 PUSH1 0x20 DUP3 ADD SWAP1 POP PUSH2 0x29D PUSH0 DUP4 ADD DUP5 PUSH2 0x27B JUMP JUMPDEST SWAP3 SWAP2 POP POP JUMP JUMPDEST PUSH2 0x2AC DUP2 PUSH2 0x15F JUMP JUMPDEST DUP2 EQ PUSH2 0x2B6 JUMPI PUSH0 DUP1 REVERT JUMPDEST POP JUMP JUMPDEST PUSH0 DUP2 CALLDATALOAD SWAP1 POP PUSH2 0x2C7 DUP2 PUSH2 0x2A3 JUMP JUMPDEST SWAP3 SWAP2 POP POP JUMP JUMPDEST PUSH0 PUSH1 0x20 DUP3 DUP5 SUB SLT ISZERO PUSH2 0x2E2 JUMPI PUSH2 0x2E1 PUSH2 0x1C1 JUMP JUMPDEST JUMPDEST PUSH0 PUSH2 0x2EF DUP5 DUP3 DUP6 ADD PUSH2 0x2B9 JUMP JUMPDEST SWAP2 POP POP SWAP3 SWAP2 POP POP JUMP INVALID LOG2 PUSH5 0x6970667358 0x22 SLT KECCAK256 0xB8 0xE8 SAR 0x4D LOG2 MOD 0xD3 PUSH19 0xC1873665E708CB3499BF7AB87CC3E4E5FAA33A PUSH31 0xFC6BA33D64736F6C634300081A003300000000000000000000000000000000 "
				},
				"gasEstimates": {
					"creation": {
						"codeDepositCost": "162800",
						"executionCost": "22311",
						"totalCost": "185111"
					},
					"external": {
						"myInt()": "2425",
						"myUint()": "2402",
						"myUint8()": "2532",
						"setMyInt(int256)": "22559",
						"setMyUint(uint256)": "22602",
						"setMyUint8(uint8)": "24695"
					}
				},
				"methodIdentifiers": {
					"myInt()": "2cb777a6",
					"myUint()": "06540f7e",
					"myUint8()": "e2a4b2af",
					"setMyInt(int256)": "5f6633bf",
					"setMyUint(uint256)": "e492fd84",
					"setMyUint8(uint8)": "4f25eada"
				}
			},
			"storageLayout": {
				"storage": [
					{
						"astId": 4,
						"contract": "contracts/EthUint.sol:MyUint",
						"label": "myUint",
						"offset": 0,
						"slot": "0",
						"type": "t_uint256"
					},
					{
						"astId": 6,
						"contract": "contracts/EthUint.sol:MyUint",
						"label": "myUint8",
						"offset": 0,
						"slot": "1",
						"type": "t_uint8"
					},
					{
						"astId": 8,
						"contract": "contracts/EthUint.sol:MyUint",
						"label": "myInt",
						"offset": 0,
						"slot": "2",
						"type": "t_int256"
					}
				],
				"types": {
					"t_int256": {
						"encoding": "inplace",
						"label": "int256",
						"numberOfBytes": "32"
					},
					"t_uint256": {
						"encoding": "inplace",
						"label": "uint256",
						"numberOfBytes": "32"
					},
					"t_uint8": {
						"encoding": "inplace",
						"label": "uint8",
						"numberOfBytes": "1"
					}
				}
			},
			"userdoc": {
				"kind": "user",
				"methods": {},
				"version": 1
			}
		}
	}
}