{
	"contracts/EthBoolUint.sol": {
		"CombinedContract": {
			"abi": [
				{
					"inputs": [],
					"name": "TestBoolean",
					"outputs": [
						{
							"internalType": "bool",
							"name": "",
							"type": "bool"
						}
					],
					"stateMutability": "view",
					"type": "function"
				},
				{
					"inputs": [],
					"name": "TestInt",
					"outputs": [
						{
							"internalType": "int256",
							"name": "",
							"type": "int256"
						}
					],
					"stateMutability": "view",
					"type": "function"
				},
				{
					"inputs": [],
					"name": "TestUint",
					"outputs": [
						{
							"internalType": "uint256",
							"name": "",
							"type": "uint256"
						}
					],
					"stateMutability": "view",
					"type": "function"
				},
				{
					"inputs": [],
					"name": "decrementUint",
					"outputs": [],
					"stateMutability": "nonpayable",
					"type": "function"
				},
				{
					"inputs": [],
					"name": "incrementUint",
					"outputs": [],
					"stateMutability": "nonpayable",
					"type": "function"
				},
				{
					"inputs": [
						{
							"internalType": "bool",
							"name": "_myBool",
							"type": "bool"
						}
					],
					"name": "setMyBoolean",
					"outputs": [],
					"stateMutability": "nonpayable",
					"type": "function"
				},
				{
					"inputs": [
						{
							"internalType": "int256",
							"name": "_myInt",
							"type": "int256"
						}
					],
					"name": "setMyInt",
					"outputs": [],
					"stateMutability": "nonpayable",
					"type": "function"
				},
				{
					"inputs": [
						{
							"internalType": "uint256",
							"name": "_myUint",
							"type": "uint256"
						}
					],
					"name": "setMyUint",
					"outputs": [],
					"stateMutability": "nonpayable",
					"type": "function"
				}
			],
			"devdoc": {
				"kind": "dev",
				"methods": {},
				"version": 1
			},
			"evm": {
				"assembly": "    /* \"contracts/EthBoolUint.sol\":81:873  contract CombinedContract {... */\n  mstore(0x40, 0x80)\n  callvalue\n  dup1\n  iszero\n  tag_1\n  jumpi\n  0x00\n  dup1\n  revert\ntag_1:\n  pop\n  dataSize(sub_0)\n  dup1\n  dataOffset(sub_0)\n  0x00\n  codecopy\n  0x00\n  return\nstop\n\nsub_0: assembly {\n        /* \"contracts/EthBoolUint.sol\":81:873  contract CombinedContract {... */\n      mstore(0x40, 0x80)\n      callvalue\n      dup1\n      iszero\n      tag_1\n      jumpi\n      0x00\n      dup1\n      revert\n    tag_1:\n      pop\n      jumpi(tag_2, lt(calldatasize, 0x04))\n      shr(0xe0, calldataload(0x00))\n      dup1\n      0x5e1279be\n      gt\n      tag_11\n      jumpi\n      dup1\n      0x5e1279be\n      eq\n      tag_7\n      jumpi\n      dup1\n      0x5f6633bf\n      eq\n      tag_8\n      jumpi\n      dup1\n      0xda50eaee\n      eq\n      tag_9\n      jumpi\n      dup1\n      0xe492fd84\n      eq\n      tag_10\n      jumpi\n      jump(tag_2)\n    tag_11:\n      dup1\n      0x0b111ce0\n      eq\n      tag_3\n      jumpi\n      dup1\n      0x113a72c0\n      eq\n      tag_4\n      jumpi\n      dup1\n      0x14bf43bd\n      eq\n      tag_5\n      jumpi\n      dup1\n      0x2cfe009c\n      eq\n      tag_6\n      jumpi\n    tag_2:\n      0x00\n      dup1\n      revert\n        /* \"contracts/EthBoolUint.sol\":206:226  uint public TestUint */\n    tag_3:\n      tag_12\n      tag_13\n      jump\t// in\n    tag_12:\n      mload(0x40)\n      tag_14\n      swap2\n      swap1\n      tag_15\n      jump\t// in\n    tag_14:\n      mload(0x40)\n      dup1\n      swap2\n      sub\n      swap1\n      return\n        /* \"contracts/EthBoolUint.sol\":331:412  function setMyBoolean(bool _myBool) public {... */\n    tag_4:\n      tag_16\n      0x04\n      dup1\n      calldatasize\n      sub\n      dup2\n      add\n      swap1\n      tag_17\n      swap2\n      swap1\n      tag_18\n      jump\t// in\n    tag_17:\n      tag_19\n      jump\t// in\n    tag_16:\n      stop\n        /* \"contracts/EthBoolUint.sol\":699:759  function incrementUint() public { ... */\n    tag_5:\n      tag_20\n      tag_21\n      jump\t// in\n    tag_20:\n      stop\n        /* \"contracts/EthBoolUint.sol\":263:281  int public TestInt */\n    tag_6:\n      tag_22\n      tag_23\n      jump\t// in\n    tag_22:\n      mload(0x40)\n      tag_24\n      swap2\n      swap1\n      tag_25\n      jump\t// in\n    tag_24:\n      mload(0x40)\n      dup1\n      swap2\n      sub\n      swap1\n      return\n        /* \"contracts/EthBoolUint.sol\":146:169  bool public TestBoolean */\n    tag_7:\n      tag_26\n      tag_27\n      jump\t// in\n    tag_26:\n      mload(0x40)\n      tag_28\n      swap2\n      swap1\n      tag_29\n      jump\t// in\n    tag_28:\n      mload(0x40)\n      dup1\n      swap2\n      sub\n      swap1\n      return\n        /* \"contracts/EthBoolUint.sol\":577:647  function setMyInt(int _myInt) public {... */\n    tag_8:\n      tag_30\n      0x04\n      dup1\n      calldatasize\n      sub\n      dup2\n      add\n      swap1\n      tag_31\n      swap2\n      swap1\n      tag_32\n      jump\t// in\n    tag_31:\n      tag_33\n      jump\t// in\n    tag_30:\n      stop\n        /* \"contracts/EthBoolUint.sol\":811:870  function decrementUint() public {... */\n    tag_9:\n      tag_34\n      tag_35\n      jump\t// in\n    tag_34:\n      stop\n        /* \"contracts/EthBoolUint.sol\":458:533  function setMyUint(uint _myUint) public {... */\n    tag_10:\n      tag_36\n      0x04\n      dup1\n      calldatasize\n      sub\n      dup2\n      add\n      swap1\n      tag_37\n      swap2\n      swap1\n      tag_38\n      jump\t// in\n    tag_37:\n      tag_39\n      jump\t// in\n    tag_36:\n      stop\n        /* \"contracts/EthBoolUint.sol\":206:226  uint public TestUint */\n    tag_13:\n      sload(0x01)\n      dup2\n      jump\t// out\n        /* \"contracts/EthBoolUint.sol\":331:412  function setMyBoolean(bool _myBool) public {... */\n    tag_19:\n        /* \"contracts/EthBoolUint.sol\":398:405  _myBool */\n      dup1\n        /* \"contracts/EthBoolUint.sol\":384:395  TestBoolean */\n      0x00\n      dup1\n        /* \"contracts/EthBoolUint.sol\":384:405  TestBoolean = _myBool */\n      0x0100\n      exp\n      dup2\n      sload\n      dup2\n      0xff\n      mul\n      not\n      and\n      swap1\n      dup4\n      iszero\n      iszero\n      mul\n      or\n      swap1\n      sstore\n      pop\n        /* \"contracts/EthBoolUint.sol\":331:412  function setMyBoolean(bool _myBool) public {... */\n      pop\n      jump\t// out\n        /* \"contracts/EthBoolUint.sol\":699:759  function incrementUint() public { ... */\n    tag_21:\n        /* \"contracts/EthBoolUint.sol\":742:750  TestUint */\n      0x01\n      0x00\n        /* \"contracts/EthBoolUint.sol\":742:752  TestUint++ */\n      dup2\n      sload\n      dup1\n      swap3\n      swap2\n      swap1\n      tag_42\n      swap1\n      tag_43\n      jump\t// in\n    tag_42:\n      swap2\n      swap1\n      pop\n      sstore\n      pop\n        /* \"contracts/EthBoolUint.sol\":699:759  function incrementUint() public { ... */\n      jump\t// out\n        /* \"contracts/EthBoolUint.sol\":263:281  int public TestInt */\n    tag_23:\n      sload(0x02)\n      dup2\n      jump\t// out\n        /* \"contracts/EthBoolUint.sol\":146:169  bool public TestBoolean */\n    tag_27:\n      0x00\n      dup1\n      sload\n      swap1\n      0x0100\n      exp\n      swap1\n      div\n      0xff\n      and\n      dup2\n      jump\t// out\n        /* \"contracts/EthBoolUint.sol\":577:647  function setMyInt(int _myInt) public {... */\n    tag_33:\n        /* \"contracts/EthBoolUint.sol\":634:640  _myInt */\n      dup1\n        /* \"contracts/EthBoolUint.sol\":624:631  TestInt */\n      0x02\n        /* \"contracts/EthBoolUint.sol\":624:640  TestInt = _myInt */\n      dup2\n      swap1\n      sstore\n      pop\n        /* \"contracts/EthBoolUint.sol\":577:647  function setMyInt(int _myInt) public {... */\n      pop\n      jump\t// out\n        /* \"contracts/EthBoolUint.sol\":811:870  function decrementUint() public {... */\n    tag_35:\n        /* \"contracts/EthBoolUint.sol\":853:861  TestUint */\n      0x01\n      0x00\n        /* \"contracts/EthBoolUint.sol\":853:863  TestUint-- */\n      dup2\n      sload\n      dup1\n      swap3\n      swap2\n      swap1\n      tag_46\n      swap1\n      tag_47\n      jump\t// in\n    tag_46:\n      swap2\n      swap1\n      pop\n      sstore\n      pop\n        /* \"contracts/EthBoolUint.sol\":811:870  function decrementUint() public {... */\n      jump\t// out\n        /* \"contracts/EthBoolUint.sol\":458:533  function setMyUint(uint _myUint) public {... */\n    tag_39:\n        /* \"contracts/EthBoolUint.sol\":519:526  _myUint */\n      dup1\n        /* \"contracts/EthBoolUint.sol\":508:516  TestUint */\n      0x01\n        /* \"contracts/EthBoolUint.sol\":508:526  TestUint = _myUint */\n      dup2\n      swap1\n      sstore\n      pop\n        /* \"contracts/EthBoolUint.sol\":458:533  function setMyUint(uint _myUint) public {... */\n      pop\n      jump\t// out\n        /* \"#utility.yul\":7:84   */\n    tag_49:\n        /* \"#utility.yul\":44:51   */\n      0x00\n        /* \"#utility.yul\":73:78   */\n      dup2\n        /* \"#utility.yul\":62:78   */\n      swap1\n      pop\n        /* \"#utility.yul\":7:84   */\n      swap2\n      swap1\n      pop\n      jump\t// out\n        /* \"#utility.yul\":90:208   */\n    tag_50:\n        /* \"#utility.yul\":177:201   */\n      tag_68\n        /* \"#utility.yul\":195:200   */\n      dup2\n        /* \"#utility.yul\":177:201   */\n      tag_49\n      jump\t// in\n    tag_68:\n        /* \"#utility.yul\":172:175   */\n      dup3\n        /* \"#utility.yul\":165:202   */\n      mstore\n        /* \"#utility.yul\":90:208   */\n      pop\n      pop\n      jump\t// out\n        /* \"#utility.yul\":214:436   */\n    tag_15:\n        /* \"#utility.yul\":307:311   */\n      0x00\n        /* \"#utility.yul\":345:347   */\n      0x20\n        /* \"#utility.yul\":334:343   */\n      dup3\n        /* \"#utility.yul\":330:348   */\n      add\n        /* \"#utility.yul\":322:348   */\n      swap1\n      pop\n        /* \"#utility.yul\":358:429   */\n      tag_70\n        /* \"#utility.yul\":426:427   */\n      0x00\n        /* \"#utility.yul\":415:424   */\n      dup4\n        /* \"#utility.yul\":411:428   */\n      add\n        /* \"#utility.yul\":402:408   */\n      dup5\n        /* \"#utility.yul\":358:429   */\n      tag_50\n      jump\t// in\n    tag_70:\n        /* \"#utility.yul\":214:436   */\n      swap3\n      swap2\n      pop\n      pop\n      jump\t// out\n        /* \"#utility.yul\":523:640   */\n    tag_52:\n        /* \"#utility.yul\":632:633   */\n      0x00\n        /* \"#utility.yul\":629:630   */\n      dup1\n        /* \"#utility.yul\":622:634   */\n      revert\n        /* \"#utility.yul\":769:859   */\n    tag_54:\n        /* \"#utility.yul\":803:810   */\n      0x00\n        /* \"#utility.yul\":846:851   */\n      dup2\n        /* \"#utility.yul\":839:852   */\n      iszero\n        /* \"#utility.yul\":832:853   */\n      iszero\n        /* \"#utility.yul\":821:853   */\n      swap1\n      pop\n        /* \"#utility.yul\":769:859   */\n      swap2\n      swap1\n      pop\n      jump\t// out\n        /* \"#utility.yul\":865:981   */\n    tag_55:\n        /* \"#utility.yul\":935:956   */\n      tag_76\n        /* \"#utility.yul\":950:955   */\n      dup2\n        /* \"#utility.yul\":935:956   */\n      tag_54\n      jump\t// in\n    tag_76:\n        /* \"#utility.yul\":928:933   */\n      dup2\n        /* \"#utility.yul\":925:957   */\n      eq\n        /* \"#utility.yul\":915:975   */\n      tag_77\n      jumpi\n        /* \"#utility.yul\":971:972   */\n      0x00\n        /* \"#utility.yul\":968:969   */\n      dup1\n        /* \"#utility.yul\":961:973   */\n      revert\n        /* \"#utility.yul\":915:975   */\n    tag_77:\n        /* \"#utility.yul\":865:981   */\n      pop\n      jump\t// out\n        /* \"#utility.yul\":987:1120   */\n    tag_56:\n        /* \"#utility.yul\":1030:1035   */\n      0x00\n        /* \"#utility.yul\":1068:1074   */\n      dup2\n        /* \"#utility.yul\":1055:1075   */\n      calldataload\n        /* \"#utility.yul\":1046:1075   */\n      swap1\n      pop\n        /* \"#utility.yul\":1084:1114   */\n      tag_79\n        /* \"#utility.yul\":1108:1113   */\n      dup2\n        /* \"#utility.yul\":1084:1114   */\n      tag_55\n      jump\t// in\n    tag_79:\n        /* \"#utility.yul\":987:1120   */\n      swap3\n      swap2\n      pop\n      pop\n      jump\t// out\n        /* \"#utility.yul\":1126:1449   */\n    tag_18:\n        /* \"#utility.yul\":1182:1188   */\n      0x00\n        /* \"#utility.yul\":1231:1233   */\n      0x20\n        /* \"#utility.yul\":1219:1228   */\n      dup3\n        /* \"#utility.yul\":1210:1217   */\n      dup5\n        /* \"#utility.yul\":1206:1229   */\n      sub\n        /* \"#utility.yul\":1202:1234   */\n      slt\n        /* \"#utility.yul\":1199:1318   */\n      iszero\n      tag_81\n      jumpi\n        /* \"#utility.yul\":1237:1316   */\n      tag_82\n      tag_52\n      jump\t// in\n    tag_82:\n        /* \"#utility.yul\":1199:1318   */\n    tag_81:\n        /* \"#utility.yul\":1357:1358   */\n      0x00\n        /* \"#utility.yul\":1382:1432   */\n      tag_83\n        /* \"#utility.yul\":1424:1431   */\n      dup5\n        /* \"#utility.yul\":1415:1421   */\n      dup3\n        /* \"#utility.yul\":1404:1413   */\n      dup6\n        /* \"#utility.yul\":1400:1422   */\n      add\n        /* \"#utility.yul\":1382:1432   */\n      tag_56\n      jump\t// in\n    tag_83:\n        /* \"#utility.yul\":1372:1432   */\n      swap2\n      pop\n        /* \"#utility.yul\":1328:1442   */\n      pop\n        /* \"#utility.yul\":1126:1449   */\n      swap3\n      swap2\n      pop\n      pop\n      jump\t// out\n        /* \"#utility.yul\":1455:1531   */\n    tag_57:\n        /* \"#utility.yul\":1491:1498   */\n      0x00\n        /* \"#utility.yul\":1520:1525   */\n      dup2\n        /* \"#utility.yul\":1509:1525   */\n      swap1\n      pop\n        /* \"#utility.yul\":1455:1531   */\n      swap2\n      swap1\n      pop\n      jump\t// out\n        /* \"#utility.yul\":1537:1652   */\n    tag_58:\n        /* \"#utility.yul\":1622:1645   */\n      tag_86\n        /* \"#utility.yul\":1639:1644   */\n      dup2\n        /* \"#utility.yul\":1622:1645   */\n      tag_57\n      jump\t// in\n    tag_86:\n        /* \"#utility.yul\":1617:1620   */\n      dup3\n        /* \"#utility.yul\":1610:1646   */\n      mstore\n        /* \"#utility.yul\":1537:1652   */\n      pop\n      pop\n      jump\t// out\n        /* \"#utility.yul\":1658:1876   */\n    tag_25:\n        /* \"#utility.yul\":1749:1753   */\n      0x00\n        /* \"#utility.yul\":1787:1789   */\n      0x20\n        /* \"#utility.yul\":1776:1785   */\n      dup3\n        /* \"#utility.yul\":1772:1790   */\n      add\n        /* \"#utility.yul\":1764:1790   */\n      swap1\n      pop\n        /* \"#utility.yul\":1800:1869   */\n      tag_88\n        /* \"#utility.yul\":1866:1867   */\n      0x00\n        /* \"#utility.yul\":1855:1864   */\n      dup4\n        /* \"#utility.yul\":1851:1868   */\n      add\n        /* \"#utility.yul\":1842:1848   */\n      dup5\n        /* \"#utility.yul\":1800:1869   */\n      tag_58\n      jump\t// in\n    tag_88:\n        /* \"#utility.yul\":1658:1876   */\n      swap3\n      swap2\n      pop\n      pop\n      jump\t// out\n        /* \"#utility.yul\":1882:1991   */\n    tag_59:\n        /* \"#utility.yul\":1963:1984   */\n      tag_90\n        /* \"#utility.yul\":1978:1983   */\n      dup2\n        /* \"#utility.yul\":1963:1984   */\n      tag_54\n      jump\t// in\n    tag_90:\n        /* \"#utility.yul\":1958:1961   */\n      dup3\n        /* \"#utility.yul\":1951:1985   */\n      mstore\n        /* \"#utility.yul\":1882:1991   */\n      pop\n      pop\n      jump\t// out\n        /* \"#utility.yul\":1997:2207   */\n    tag_29:\n        /* \"#utility.yul\":2084:2088   */\n      0x00\n        /* \"#utility.yul\":2122:2124   */\n      0x20\n        /* \"#utility.yul\":2111:2120   */\n      dup3\n        /* \"#utility.yul\":2107:2125   */\n      add\n        /* \"#utility.yul\":2099:2125   */\n      swap1\n      pop\n        /* \"#utility.yul\":2135:2200   */\n      tag_92\n        /* \"#utility.yul\":2197:2198   */\n      0x00\n        /* \"#utility.yul\":2186:2195   */\n      dup4\n        /* \"#utility.yul\":2182:2199   */\n      add\n        /* \"#utility.yul\":2173:2179   */\n      dup5\n        /* \"#utility.yul\":2135:2200   */\n      tag_59\n      jump\t// in\n    tag_92:\n        /* \"#utility.yul\":1997:2207   */\n      swap3\n      swap2\n      pop\n      pop\n      jump\t// out\n        /* \"#utility.yul\":2213:2333   */\n    tag_60:\n        /* \"#utility.yul\":2285:2308   */\n      tag_94\n        /* \"#utility.yul\":2302:2307   */\n      dup2\n        /* \"#utility.yul\":2285:2308   */\n      tag_57\n      jump\t// in\n    tag_94:\n        /* \"#utility.yul\":2278:2283   */\n      dup2\n        /* \"#utility.yul\":2275:2309   */\n      eq\n        /* \"#utility.yul\":2265:2327   */\n      tag_95\n      jumpi\n        /* \"#utility.yul\":2323:2324   */\n      0x00\n        /* \"#utility.yul\":2320:2321   */\n      dup1\n        /* \"#utility.yul\":2313:2325   */\n      revert\n        /* \"#utility.yul\":2265:2327   */\n    tag_95:\n        /* \"#utility.yul\":2213:2333   */\n      pop\n      jump\t// out\n        /* \"#utility.yul\":2339:2476   */\n    tag_61:\n        /* \"#utility.yul\":2384:2389   */\n      0x00\n        /* \"#utility.yul\":2422:2428   */\n      dup2\n        /* \"#utility.yul\":2409:2429   */\n      calldataload\n        /* \"#utility.yul\":2400:2429   */\n      swap1\n      pop\n        /* \"#utility.yul\":2438:2470   */\n      tag_97\n        /* \"#utility.yul\":2464:2469   */\n      dup2\n        /* \"#utility.yul\":2438:2470   */\n      tag_60\n      jump\t// in\n    tag_97:\n        /* \"#utility.yul\":2339:2476   */\n      swap3\n      swap2\n      pop\n      pop\n      jump\t// out\n        /* \"#utility.yul\":2482:2809   */\n    tag_32:\n        /* \"#utility.yul\":2540:2546   */\n      0x00\n        /* \"#utility.yul\":2589:2591   */\n      0x20\n        /* \"#utility.yul\":2577:2586   */\n      dup3\n        /* \"#utility.yul\":2568:2575   */\n      dup5\n        /* \"#utility.yul\":2564:2587   */\n      sub\n        /* \"#utility.yul\":2560:2592   */\n      slt\n        /* \"#utility.yul\":2557:2676   */\n      iszero\n      tag_99\n      jumpi\n        /* \"#utility.yul\":2595:2674   */\n      tag_100\n      tag_52\n      jump\t// in\n    tag_100:\n        /* \"#utility.yul\":2557:2676   */\n    tag_99:\n        /* \"#utility.yul\":2715:2716   */\n      0x00\n        /* \"#utility.yul\":2740:2792   */\n      tag_101\n        /* \"#utility.yul\":2784:2791   */\n      dup5\n        /* \"#utility.yul\":2775:2781   */\n      dup3\n        /* \"#utility.yul\":2764:2773   */\n      dup6\n        /* \"#utility.yul\":2760:2782   */\n      add\n        /* \"#utility.yul\":2740:2792   */\n      tag_61\n      jump\t// in\n    tag_101:\n        /* \"#utility.yul\":2730:2792   */\n      swap2\n      pop\n        /* \"#utility.yul\":2686:2802   */\n      pop\n        /* \"#utility.yul\":2482:2809   */\n      swap3\n      swap2\n      pop\n      pop\n      jump\t// out\n        /* \"#utility.yul\":2815:2937   */\n    tag_62:\n        /* \"#utility.yul\":2888:2912   */\n      tag_103\n        /* \"#utility.yul\":2906:2911   */\n      dup2\n        /* \"#utility.yul\":2888:2912   */\n      tag_49\n      jump\t// in\n    tag_103:\n        /* \"#utility.yul\":2881:2886   */\n      dup2\n        /* \"#utility.yul\":2878:2913   */\n      eq\n        /* \"#utility.yul\":2868:2931   */\n      tag_104\n      jumpi\n        /* \"#utility.yul\":2927:2928   */\n      0x00\n        /* \"#utility.yul\":2924:2925   */\n      dup1\n        /* \"#utility.yul\":2917:2929   */\n      revert\n        /* \"#utility.yul\":2868:2931   */\n    tag_104:\n        /* \"#utility.yul\":2815:2937   */\n      pop\n      jump\t// out\n        /* \"#utility.yul\":2943:3082   */\n    tag_63:\n        /* \"#utility.yul\":2989:2994   */\n      0x00\n        /* \"#utility.yul\":3027:3033   */\n      dup2\n        /* \"#utility.yul\":3014:3034   */\n      calldataload\n        /* \"#utility.yul\":3005:3034   */\n      swap1\n      pop\n        /* \"#utility.yul\":3043:3076   */\n      tag_106\n        /* \"#utility.yul\":3070:3075   */\n      dup2\n        /* \"#utility.yul\":3043:3076   */\n      tag_62\n      jump\t// in\n    tag_106:\n        /* \"#utility.yul\":2943:3082   */\n      swap3\n      swap2\n      pop\n      pop\n      jump\t// out\n        /* \"#utility.yul\":3088:3417   */\n    tag_38:\n        /* \"#utility.yul\":3147:3153   */\n      0x00\n        /* \"#utility.yul\":3196:3198   */\n      0x20\n        /* \"#utility.yul\":3184:3193   */\n      dup3\n        /* \"#utility.yul\":3175:3182   */\n      dup5\n        /* \"#utility.yul\":3171:3194   */\n      sub\n        /* \"#utility.yul\":3167:3199   */\n      slt\n        /* \"#utility.yul\":3164:3283   */\n      iszero\n      tag_108\n      jumpi\n        /* \"#utility.yul\":3202:3281   */\n      tag_109\n      tag_52\n      jump\t// in\n    tag_109:\n        /* \"#utility.yul\":3164:3283   */\n    tag_108:\n        /* \"#utility.yul\":3322:3323   */\n      0x00\n        /* \"#utility.yul\":3347:3400   */\n      tag_110\n        /* \"#utility.yul\":3392:3399   */\n      dup5\n        /* \"#utility.yul\":3383:3389   */\n      dup3\n        /* \"#utility.yul\":3372:3381   */\n      dup6\n        /* \"#utility.yul\":3368:3390   */\n      add\n        /* \"#utility.yul\":3347:3400   */\n      tag_63\n      jump\t// in\n    tag_110:\n        /* \"#utility.yul\":3337:3400   */\n      swap2\n      pop\n        /* \"#utility.yul\":3293:3410   */\n      pop\n        /* \"#utility.yul\":3088:3417   */\n      swap3\n      swap2\n      pop\n      pop\n      jump\t// out\n        /* \"#utility.yul\":3423:3603   */\n    tag_64:\n        /* \"#utility.yul\":3471:3548   */\n      0x4e487b7100000000000000000000000000000000000000000000000000000000\n        /* \"#utility.yul\":3468:3469   */\n      0x00\n        /* \"#utility.yul\":3461:3549   */\n      mstore\n        /* \"#utility.yul\":3568:3572   */\n      0x11\n        /* \"#utility.yul\":3565:3566   */\n      0x04\n        /* \"#utility.yul\":3558:3573   */\n      mstore\n        /* \"#utility.yul\":3592:3596   */\n      0x24\n        /* \"#utility.yul\":3589:3590   */\n      0x00\n        /* \"#utility.yul\":3582:3597   */\n      revert\n        /* \"#utility.yul\":3609:3842   */\n    tag_43:\n        /* \"#utility.yul\":3648:3651   */\n      0x00\n        /* \"#utility.yul\":3671:3695   */\n      tag_113\n        /* \"#utility.yul\":3689:3694   */\n      dup3\n        /* \"#utility.yul\":3671:3695   */\n      tag_49\n      jump\t// in\n    tag_113:\n        /* \"#utility.yul\":3662:3695   */\n      swap2\n      pop\n        /* \"#utility.yul\":3717:3783   */\n      0xffffffffffffffffffffffffffffffffffffffffffffffffffffffffffffffff\n        /* \"#utility.yul\":3710:3715   */\n      dup3\n        /* \"#utility.yul\":3707:3784   */\n      sub\n        /* \"#utility.yul\":3704:3807   */\n      tag_114\n      jumpi\n        /* \"#utility.yul\":3787:3805   */\n      tag_115\n      tag_64\n      jump\t// in\n    tag_115:\n        /* \"#utility.yul\":3704:3807   */\n    tag_114:\n        /* \"#utility.yul\":3834:3835   */\n      0x01\n        /* \"#utility.yul\":3827:3832   */\n      dup3\n        /* \"#utility.yul\":3823:3836   */\n      add\n        /* \"#utility.yul\":3816:3836   */\n      swap1\n      pop\n        /* \"#utility.yul\":3609:3842   */\n      swap2\n      swap1\n      pop\n      jump\t// out\n        /* \"#utility.yul\":3848:4019   */\n    tag_47:\n        /* \"#utility.yul\":3887:3890   */\n      0x00\n        /* \"#utility.yul\":3910:3934   */\n      tag_117\n        /* \"#utility.yul\":3928:3933   */\n      dup3\n        /* \"#utility.yul\":3910:3934   */\n      tag_49\n      jump\t// in\n    tag_117:\n        /* \"#utility.yul\":3901:3934   */\n      swap2\n      pop\n        /* \"#utility.yul\":3956:3960   */\n      0x00\n        /* \"#utility.yul\":3949:3954   */\n      dup3\n        /* \"#utility.yul\":3946:3961   */\n      sub\n        /* \"#utility.yul\":3943:3984   */\n      tag_118\n      jumpi\n        /* \"#utility.yul\":3964:3982   */\n      tag_119\n      tag_64\n      jump\t// in\n    tag_119:\n        /* \"#utility.yul\":3943:3984   */\n    tag_118:\n        /* \"#utility.yul\":4011:4012   */\n      0x01\n        /* \"#utility.yul\":4004:4009   */\n      dup3\n        /* \"#utility.yul\":4000:4013   */\n      sub\n        /* \"#utility.yul\":3993:4013   */\n      swap1\n      pop\n        /* \"#utility.yul\":3848:4019   */\n      swap2\n      swap1\n      pop\n      jump\t// out\n\n    auxdata: 0xa264697066735822122057eef54268a7f1818caa6d65f9b6d2bb6c494abf0935bdb07320a74453e9274f64736f6c634300081a0033\n}\n",
				"bytecode": {
					"linkReferences": {},
					"object": "6080604052348015600e575f80fd5b506104328061001c5f395ff3fe608060405234801561000f575f80fd5b5060043610610086575f3560e01c80635e1279be116100595780635e1279be146100ec5780635f6633bf1461010a578063da50eaee14610126578063e492fd841461013057610086565b80630b111ce01461008a578063113a72c0146100a857806314bf43bd146100c45780632cfe009c146100ce575b5f80fd5b61009261014c565b60405161009f91906101e1565b60405180910390f35b6100c260048036038101906100bd9190610233565b610152565b005b6100cc61016d565b005b6100d6610186565b6040516100e39190610276565b60405180910390f35b6100f461018c565b604051610101919061029e565b60405180910390f35b610124600480360381019061011f91906102e1565b61019c565b005b61012e6101a6565b005b61014a60048036038101906101459190610336565b6101bf565b005b60015481565b805f806101000a81548160ff02191690831515021790555050565b60015f81548092919061017f9061038e565b9190505550565b60025481565b5f8054906101000a900460ff1681565b8060028190555050565b60015f8154809291906101b8906103d5565b9190505550565b8060018190555050565b5f819050919050565b6101db816101c9565b82525050565b5f6020820190506101f45f8301846101d2565b92915050565b5f80fd5b5f8115159050919050565b610212816101fe565b811461021c575f80fd5b50565b5f8135905061022d81610209565b92915050565b5f60208284031215610248576102476101fa565b5b5f6102558482850161021f565b91505092915050565b5f819050919050565b6102708161025e565b82525050565b5f6020820190506102895f830184610267565b92915050565b610298816101fe565b82525050565b5f6020820190506102b15f83018461028f565b92915050565b6102c08161025e565b81146102ca575f80fd5b50565b5f813590506102db816102b7565b92915050565b5f602082840312156102f6576102f56101fa565b5b5f610303848285016102cd565b91505092915050565b610315816101c9565b811461031f575f80fd5b50565b5f813590506103308161030c565b92915050565b5f6020828403121561034b5761034a6101fa565b5b5f61035884828501610322565b91505092915050565b7f4e487b71000000000000000000000000000000000000000000000000000000005f52601160045260245ffd5b5f610398826101c9565b91507fffffffffffffffffffffffffffffffffffffffffffffffffffffffffffffffff82036103ca576103c9610361565b5b600182019050919050565b5f6103df826101c9565b91505f82036103f1576103f0610361565b5b60018203905091905056fea264697066735822122057eef54268a7f1818caa6d65f9b6d2bb6c494abf0935bdb07320a74453e9274f64736f6c634300081a0033",
					"opcodes": "PUSH1 0x80 PUSH1 0x40 MSTORE CALLVALUE DUP1 ISZERO PUSH1 0xE JUMPI PUSH0 DUP1 REVERT JUMPDEST POP PUSH2 0x432 DUP1 PUSH2 0x1C PUSH0 CODECOPY PUSH0 RETURN INVALID PUSH1 0x80 PUSH1 0x40 MSTORE CALLVALUE DUP1 ISZERO PUSH2 0xF JUMPI PUSH0 DUP1 REVERT JUMPDEST POP PUSH1 0x4 CALLDATASIZE LT PUSH2 0x86 JUMPI PUSH0 CALLDATALOAD PUSH1 0xE0 SHR DUP1 PUSH4 0x5E1279BE GT PUSH2 0x59 JUMPI DUP1 PUSH4 0x5E1279BE EQ PUSH2 0xEC JUMPI DUP1 PUSH4 0x5F6633BF EQ PUSH2 0x10A JUMPI DUP1 PUSH4 0xDA50EAEE EQ PUSH2 0x126 JUMPI DUP1 PUSH4 0xE492FD84 EQ PUSH2 0x130 JUMPI PUSH2 0x86 JUMP JUMPDEST DUP1 PUSH4 0xB111CE0 EQ PUSH2 0x8A JUMPI DUP1 PUSH4 0x113A72C0 EQ PUSH2 0xA8 JUMPI DUP1 PUSH4 0x14BF43BD EQ PUSH2 0xC4 JUMPI DUP1 PUSH4 0x2CFE009C EQ PUSH2 0xCE JUMPI JUMPDEST PUSH0 DUP1 REVERT JUMPDEST PUSH2 0x92 PUSH2 0x14C JUMP JUMPDEST PUSH1 0x40 MLOAD PUSH2 0x9F SWAP2 SWAP1 PUSH2 0x1E1 JUMP JUMPDEST PUSH1 0x40 MLOAD DUP1 SWAP2 SUB SWAP1 RETURN JUMPDEST PUSH2 0xC2 PUSH1 0x4 DUP1 CALLDATASIZE SUB DUP2 ADD SWAP1 PUSH2 0xBD SWAP2 SWAP1 PUSH2 0x233 JUMP JUMPDEST PUSH2 0x152 JUMP JUMPDEST STOP JUMPDEST PUSH2 0xCC PUSH2 0x16D JUMP JUMPDEST STOP JUMPDEST PUSH2 0xD6 PUSH2 0x186 JUMP JUMPDEST PUSH1 0x40 MLOAD PUSH2 0xE3 SWAP2 SWAP1 PUSH2 0x276 JUMP JUMPDEST PUSH1 0x40 MLOAD DUP1 SWAP2 SUB SWAP1 RETURN JUMPDEST PUSH2 0xF4 PUSH2 0x18C JUMP JUMPDEST PUSH1 0x40 MLOAD PUSH2 0x101 SWAP2 SWAP1 PUSH2 0x29E JUMP JUMPDEST PUSH1 0x40 MLOAD DUP1 SWAP2 SUB SWAP1 RETURN JUMPDEST PUSH2 0x124 PUSH1 0x4 DUP1 CALLDATASIZE SUB DUP2 ADD SWAP1 PUSH2 0x11F SWAP2 SWAP1 PUSH2 0x2E1 JUMP JUMPDEST PUSH2 0x19C JUMP JUMPDEST STOP JUMPDEST PUSH2 0x12E PUSH2 0x1A6 JUMP JUMPDEST STOP JUMPDEST PUSH2 0x14A PUSH1 0x4 DUP1 CALLDATASIZE SUB DUP2 ADD SWAP1 PUSH2 0x145 SWAP2 SWAP1 PUSH2 0x336 JUMP JUMPDEST PUSH2 0x1BF JUMP JUMPDEST STOP JUMPDEST PUSH1 0x1 SLOAD DUP2 JUMP JUMPDEST DUP1 PUSH0 DUP1 PUSH2 0x100 EXP DUP2 SLOAD DUP2 PUSH1 0xFF MUL NOT AND SWAP1 DUP4 ISZERO ISZERO MUL OR SWAP1 SSTORE POP POP JUMP JUMPDEST PUSH1 0x1 PUSH0 DUP2 SLOAD DUP1 SWAP3 SWAP2 SWAP1 PUSH2 0x17F SWAP1 PUSH2 0x38E JUMP JUMPDEST SWAP2 SWAP1 POP SSTORE POP JUMP JUMPDEST PUSH1 0x2 SLOAD DUP2 JUMP JUMPDEST PUSH0 DUP1 SLOAD SWAP1 PUSH2 0x100 EXP SWAP1 DIV PUSH1 0xFF AND DUP2 JUMP JUMPDEST DUP1 PUSH1 0x2 DUP2 SWAP1 SSTORE POP POP JUMP JUMPDEST PUSH1 0x1 PUSH0 DUP2 SLOAD DUP1 SWAP3 SWAP2 SWAP1 PUSH2 0x1B8 SWAP1 PUSH2 0x3D5 JUMP JUMPDEST SWAP2 SWAP1 POP SSTORE POP JUMP JUMPDEST DUP1 PUSH1 0x1 DUP2 SWAP1 SSTORE POP POP JUMP JUMPDEST PUSH0 DUP2 SWAP1 POP SWAP2 SWAP1 POP JUMP JUMPDEST PUSH2 0x1DB DUP2 PUSH2 0x1C9 JUMP JUMPDEST DUP3 MSTORE POP POP JUMP JUMPDEST PUSH0 PUSH1 0x20 DUP3 ADD SWAP1 POP PUSH2 0x1F4 PUSH0 DUP4 ADD DUP5 PUSH2 0x1D2 JUMP JUMPDEST SWAP3 SWAP2 POP POP JUMP JUMPDEST PUSH0 DUP1 REVERT JUMPDEST PUSH0 DUP2 ISZERO ISZERO SWAP1 POP SWAP2 SWAP1 POP JUMP JUMPDEST PUSH2 0x212 DUP2 PUSH2 0x1FE JUMP JUMPDEST DUP2 EQ PUSH2 0x21C JUMPI PUSH0 DUP1 REVERT JUMPDEST POP JUMP JUMPDEST PUSH0 DUP2 CALLDATALOAD SWAP1 POP PUSH2 0x22D DUP2 PUSH2 0x209 JUMP JUMPDEST SWAP3 SWAP2 POP POP JUMP JUMPDEST PUSH0 PUSH1 0x20 DUP3 DUP5 SUB SLT ISZERO PUSH2 0x248 JUMPI PUSH2 0x247 PUSH2 0x1FA JUMP JUMPDEST JUMPDEST PUSH0 PUSH2 0x255 DUP5 DUP3 DUP6 ADD PUSH2 0x21F JUMP JUMPDEST SWAP2 POP POP SWAP3 SWAP2 POP POP JUMP JUMPDEST PUSH0 DUP2 SWAP1 POP SWAP2 SWAP1 POP JUMP JUMPDEST PUSH2 0x270 DUP2 PUSH2 0x25E JUMP JUMPDEST DUP3 MSTORE POP POP JUMP JUMPDEST PUSH0 PUSH1 0x20 DUP3 ADD SWAP1 POP PUSH2 0x289 PUSH0 DUP4 ADD DUP5 PUSH2 0x267 JUMP JUMPDEST SWAP3 SWAP2 POP POP JUMP JUMPDEST PUSH2 0x298 DUP2 PUSH2 0x1FE JUMP JUMPDEST DUP3 MSTORE POP POP JUMP JUMPDEST PUSH0 PUSH1 0x20 DUP3 ADD SWAP1 POP PUSH2 0x2B1 PUSH0 DUP4 ADD DUP5 PUSH2 0x28F JUMP JUMPDEST SWAP3 SWAP2 POP POP JUMP JUMPDEST PUSH2 0x2C0 DUP2 PUSH2 0x25E JUMP JUMPDEST DUP2 EQ PUSH2 0x2CA JUMPI PUSH0 DUP1 REVERT JUMPDEST POP JUMP JUMPDEST PUSH0 DUP2 CALLDATALOAD SWAP1 POP PUSH2 0x2DB DUP2 PUSH2 0x2B7 JUMP JUMPDEST SWAP3 SWAP2 POP POP JUMP JUMPDEST PUSH0 PUSH1 0x20 DUP3 DUP5 SUB SLT ISZERO PUSH2 0x2F6 JUMPI PUSH2 0x2F5 PUSH2 0x1FA JUMP JUMPDEST JUMPDEST PUSH0 PUSH2 0x303 DUP5 DUP3 DUP6 ADD PUSH2 0x2CD JUMP JUMPDEST SWAP2 POP POP SWAP3 SWAP2 POP POP JUMP JUMPDEST PUSH2 0x315 DUP2 PUSH2 0x1C9 JUMP JUMPDEST DUP2 EQ PUSH2 0x31F JUMPI PUSH0 DUP1 REVERT JUMPDEST POP JUMP JUMPDEST PUSH0 DUP2 CALLDATALOAD SWAP1 POP PUSH2 0x330 DUP2 PUSH2 0x30C JUMP JUMPDEST SWAP3 SWAP2 POP POP JUMP JUMPDEST PUSH0 PUSH1 0x20 DUP3 DUP5 SUB SLT ISZERO PUSH2 0x34B JUMPI PUSH2 0x34A PUSH2 0x1FA JUMP JUMPDEST JUMPDEST PUSH0 PUSH2 0x358 DUP5 DUP3 DUP6 ADD PUSH2 0x322 JUMP JUMPDEST SWAP2 POP POP SWAP3 SWAP2 POP POP JUMP JUMPDEST PUSH32 0x4E487B7100000000000000000000000000000000000000000000000000000000 PUSH0 MSTORE PUSH1 0x11 PUSH1 0x4 MSTORE PUSH1 0x24 PUSH0 REVERT JUMPDEST PUSH0 PUSH2 0x398 DUP3 PUSH2 0x1C9 JUMP JUMPDEST SWAP2 POP PUSH32 0xFFFFFFFFFFFFFFFFFFFFFFFFFFFFFFFFFFFFFFFFFFFFFFFFFFFFFFFFFFFFFFFF DUP3 SUB PUSH2 0x3CA JUMPI PUSH2 0x3C9 PUSH2 0x361 JUMP JUMPDEST JUMPDEST PUSH1 0x1 DUP3 ADD SWAP1 POP SWAP2 SWAP1 POP JUMP JUMPDEST PUSH0 PUSH2 0x3DF DUP3 PUSH2 0x1C9 JUMP JUMPDEST SWAP2 POP PUSH0 DUP3 SUB PUSH2 0x3F1 JUMPI PUSH2 0x3F0 PUSH2 0x361 JUMP JUMPDEST JUMPDEST PUSH1 0x1 DUP3 SUB SWAP1 POP SWAP2 SWAP1 POP JUMP INVALID LOG2 PUSH5 0x6970667358 0x22 SLT KECCAK256 JUMPI 0xEE CREATE2 TIMESTAMP PUSH9 0xA7F1818CAA6D65F9B6 0xD2 0xBB PUSH13 0x494ABF0935BDB07320A74453E9 0x27 0x4F PUSH5 0x736F6C6343 STOP ADDMOD BYTE STOP CALLER "
				},
				"gasEstimates": {
					"creation": {
						"codeDepositCost": "214800",
						"executionCost": "255",
						"totalCost": "215055"
					},
					"external": {
						"TestBoolean()": "2463",
						"TestInt()": "2492",
						"TestUint()": "2426",
						"decrementUint()": "24540",
						"incrementUint()": "24542",
						"setMyBoolean(bool)": "24696",
						"setMyInt(int256)": "22537",
						"setMyUint(uint256)": "22581"
					}
				},
				"methodIdentifiers": {
					"TestBoolean()": "5e1279be",
					"TestInt()": "2cfe009c",
					"TestUint()": "0b111ce0",
					"decrementUint()": "da50eaee",
					"incrementUint()": "14bf43bd",
					"setMyBoolean(bool)": "113a72c0",
					"setMyInt(int256)": "5f6633bf",
					"setMyUint(uint256)": "e492fd84"
				}
			},
			"storageLayout": {
				"storage": [
					{
						"astId": 3,
						"contract": "contracts/EthBoolUint.sol:CombinedContract",
						"label": "TestBoolean",
						"offset": 0,
						"slot": "0",
						"type": "t_bool"
					},
					{
						"astId": 5,
						"contract": "contracts/EthBoolUint.sol:CombinedContract",
						"label": "TestUint",
						"offset": 0,
						"slot": "1",
						"type": "t_uint256"
					},
					{
						"astId": 7,
						"contract": "contracts/EthBoolUint.sol:CombinedContract",
						"label": "TestInt",
						"offset": 0,
						"slot": "2",
						"type": "t_int256"
					}
				],
				"types": {
					"t_bool": {
						"encoding": "inplace",
						"label": "bool",
						"numberOfBytes": "1"
					},
					"t_int256": {
						"encoding": "inplace",
						"label": "int256",
						"numberOfBytes": "32"
					},
					"t_uint256": {
						"encoding": "inplace",
						"label": "uint256",
						"numberOfBytes": "32"
					}
				}
			},
			"userdoc": {
				"kind": "user",
				"methods": {},
				"version": 1
			}
		}
	}
}