{
	"data": {
		"bytecode": {
			"linkReferences": {},
			"object": "60806040526040518060400160405280600b81526020017f48656c6c6f20576f726c640000000000000000000000000000000000000000008152505f908161004791906102d8565b506040518060400160405280600581526020017f4a61736f6e0000000000000000000000000000000000000000000000000000008152506001908161008c91906103ff565b50348015610098575f80fd5b506104ce565b5f81519050919050565b7f4e487b71000000000000000000000000000000000000000000000000000000005f52604160045260245ffd5b7f4e487b71000000000000000000000000000000000000000000000000000000005f52602260045260245ffd5b5f600282049050600182168061011957607f821691505b60208210810361012c5761012b6100d5565b5b50919050565b5f819050815f5260205f209050919050565b5f6020601f8301049050919050565b5f82821b905092915050565b5f6008830261018e7fffffffffffffffffffffffffffffffffffffffffffffffffffffffffffffffff82610153565b6101988683610153565b95508019841693508086168417925050509392505050565b5f819050919050565b5f819050919050565b5f6101dc6101d76101d2846101b0565b6101b9565b6101b0565b9050919050565b5f819050919050565b6101f5836101c2565b610209610201826101e3565b84845461015f565b825550505050565b5f90565b61021d610211565b6102288184846101ec565b505050565b5b8181101561024b576102405f82610215565b60018101905061022e565b5050565b601f8211156102905761026181610132565b61026a84610144565b81016020851015610279578190505b61028d61028585610144565b83018261022d565b50505b505050565b5f82821c905092915050565b5f6102b05f1984600802610295565b1980831691505092915050565b5f6102c883836102a1565b9150826002028217905092915050565b6102e18261009e565b67ffffffffffffffff8111156102fa576102f96100a8565b5b6103048254610102565b61030f82828561024f565b5f60209050601f831160018114610340575f841561032e578287015190505b61033885826102bd565b86555061039f565b601f19841661034e86610132565b5f5b8281101561037557848901518255600182019150602085019450602081019050610350565b86831015610392578489015161038e601f8916826102a1565b8355505b6001600288020188555050505b505050505050565b5f819050815f5260205f209050919050565b601f8211156103fa576103cb816103a7565b6103d484610144565b810160208510156103e3578190505b6103f76103ef85610144565b83018261022d565b50505b505050565b6104088261009e565b67ffffffffffffffff811115610421576104206100a8565b5b61042b8254610102565b6104368282856103b9565b5f60209050601f831160018114610467575f8415610455578287015190505b61045f85826102bd565b8655506104c6565b601f198416610475866103a7565b5f5b8281101561049c57848901518255600182019150602085019450602081019050610477565b868310156104b957848901516104b5601f8916826102a1565b8355505b6001600288020188555050505b505050505050565b6109fe806104db5f395ff3fe608060405234801561000f575f80fd5b5060043610610055575f3560e01c806307da3eae14610059578063492bfa18146100775780635907432d1461009557806382180568146100b1578063e5f199b5146100cd575b5f80fd5b6100616100eb565b60405161006e9190610254565b60405180910390f35b61007f610100565b60405161008c91906102dd565b60405180910390f35b6100af60048036038101906100aa919061043a565b61018b565b005b6100cb60048036038101906100c6919061051f565b61019e565b005b6100d56101b0565b6040516100e291906105b8565b60405180910390f35b5f600180546100f990610605565b9050905090565b5f805461010c90610605565b80601f016020809104026020016040519081016040528092919081815260200182805461013890610605565b80156101835780601f1061015a57610100808354040283529160200191610183565b820191905f5260205f20905b81548152906001019060200180831161016657829003601f168201915b505050505081565b806001908161019a91906107d2565b5050565b805f90816101ac91906108f9565b5050565b600180546101bd90610605565b80601f01602080910402602001604051908101604052809291908181526020018280546101e990610605565b80156102345780601f1061020b57610100808354040283529160200191610234565b820191905f5260205f20905b81548152906001019060200180831161021757829003601f168201915b505050505081565b5f819050919050565b61024e8161023c565b82525050565b5f6020820190506102675f830184610245565b92915050565b5f81519050919050565b5f82825260208201905092915050565b8281835e5f83830152505050565b5f601f19601f8301169050919050565b5f6102af8261026d565b6102b98185610277565b93506102c9818560208601610287565b6102d281610295565b840191505092915050565b5f6020820190508181035f8301526102f581846102a5565b905092915050565b5f604051905090565b5f80fd5b5f80fd5b5f80fd5b5f80fd5b7f4e487b71000000000000000000000000000000000000000000000000000000005f52604160045260245ffd5b61034c82610295565b810181811067ffffffffffffffff8211171561036b5761036a610316565b5b80604052505050565b5f61037d6102fd565b90506103898282610343565b919050565b5f67ffffffffffffffff8211156103a8576103a7610316565b5b6103b182610295565b9050602081019050919050565b828183375f83830152505050565b5f6103de6103d98461038e565b610374565b9050828152602081018484840111156103fa576103f9610312565b5b6104058482856103be565b509392505050565b5f82601f8301126104215761042061030e565b5b81356104318482602086016103cc565b91505092915050565b5f6020828403121561044f5761044e610306565b5b5f82013567ffffffffffffffff81111561046c5761046b61030a565b5b6104788482850161040d565b91505092915050565b5f67ffffffffffffffff82111561049b5761049a610316565b5b6104a482610295565b9050602081019050919050565b5f6104c36104be84610481565b610374565b9050828152602081018484840111156104df576104de610312565b5b6104ea8482856103be565b509392505050565b5f82601f8301126105065761050561030e565b5b81356105168482602086016104b1565b91505092915050565b5f6020828403121561053457610533610306565b5b5f82013567ffffffffffffffff8111156105515761055061030a565b5b61055d848285016104f2565b91505092915050565b5f81519050919050565b5f82825260208201905092915050565b5f61058a82610566565b6105948185610570565b93506105a4818560208601610287565b6105ad81610295565b840191505092915050565b5f6020820190508181035f8301526105d08184610580565b905092915050565b7f4e487b71000000000000000000000000000000000000000000000000000000005f52602260045260245ffd5b5f600282049050600182168061061c57607f821691505b60208210810361062f5761062e6105d8565b5b50919050565b5f819050815f5260205f209050919050565b5f6020601f8301049050919050565b5f82821b905092915050565b5f600883026106917fffffffffffffffffffffffffffffffffffffffffffffffffffffffffffffffff82610656565b61069b8683610656565b95508019841693508086168417925050509392505050565b5f819050919050565b5f6106d66106d16106cc8461023c565b6106b3565b61023c565b9050919050565b5f819050919050565b6106ef836106bc565b6107036106fb826106dd565b848454610662565b825550505050565b5f90565b61071761070b565b6107228184846106e6565b505050565b5b818110156107455761073a5f8261070f565b600181019050610728565b5050565b601f82111561078a5761075b81610635565b61076484610647565b81016020851015610773578190505b61078761077f85610647565b830182610727565b50505b505050565b5f82821c905092915050565b5f6107aa5f198460080261078f565b1980831691505092915050565b5f6107c2838361079b565b9150826002028217905092915050565b6107db82610566565b67ffffffffffffffff8111156107f4576107f3610316565b5b6107fe8254610605565b610809828285610749565b5f60209050601f83116001811461083a575f8415610828578287015190505b61083285826107b7565b865550610899565b601f19841661084886610635565b5f5b8281101561086f5784890151825560018201915060208501945060208101905061084a565b8683101561088c5784890151610888601f89168261079b565b8355505b6001600288020188555050505b505050505050565b5f819050815f5260205f209050919050565b601f8211156108f4576108c5816108a1565b6108ce84610647565b810160208510156108dd578190505b6108f16108e985610647565b830182610727565b50505b505050565b6109028261026d565b67ffffffffffffffff81111561091b5761091a610316565b5b6109258254610605565b6109308282856108b3565b5f60209050601f831160018114610961575f841561094f578287015190505b61095985826107b7565b8655506109c0565b601f19841661096f866108a1565b5f5b8281101561099657848901518255600182019150602085019450602081019050610971565b868310156109b357848901516109af601f89168261079b565b8355505b6001600288020188555050505b50505050505056fea264697066735822122075f61453c6818672f0532d6b9ceb82f757df1dab826fb8372d7d301ba19d870664736f6c634300081a0033",
			"opcodes": "PUSH1 0x80 PUSH1 0x40 MSTORE PUSH1 0x40 MLOAD DUP1 PUSH1 0x40 ADD PUSH1 0x40 MSTORE DUP1 PUSH1 0xB DUP2 MSTORE PUSH1 0x20 ADD PUSH32 0x48656C6C6F20576F726C64000000000000000000000000000000000000000000 DUP2 MSTORE POP PUSH0 SWAP1 DUP2 PUSH2 0x47 SWAP2 SWAP1 PUSH2 0x2D8 JUMP JUMPDEST POP PUSH1 0x40 MLOAD DUP1 PUSH1 0x40 ADD PUSH1 0x40 MSTORE DUP1 PUSH1 0x5 DUP2 MSTORE PUSH1 0x20 ADD PUSH32 0x4A61736F6E000000000000000000000000000000000000000000000000000000 DUP2 MSTORE POP PUSH1 0x1 SWAP1 DUP2 PUSH2 0x8C SWAP2 SWAP1 PUSH2 0x3FF JUMP JUMPDEST POP CALLVALUE DUP1 ISZERO PUSH2 0x98 JUMPI PUSH0 DUP1 REVERT JUMPDEST POP PUSH2 0x4CE JUMP JUMPDEST PUSH0 DUP2 MLOAD SWAP1 POP SWAP2 SWAP1 POP JUMP JUMPDEST PUSH32 0x4E487B7100000000000000000000000000000000000000000000000000000000 PUSH0 MSTORE PUSH1 0x41 PUSH1 0x4 MSTORE PUSH1 0x24 PUSH0 REVERT JUMPDEST PUSH32 0x4E487B7100000000000000000000000000000000000000000000000000000000 PUSH0 MSTORE PUSH1 0x22 PUSH1 0x4 MSTORE PUSH1 0x24 PUSH0 REVERT JUMPDEST PUSH0 PUSH1 0x2 DUP3 DIV SWAP1 POP PUSH1 0x1 DUP3 AND DUP1 PUSH2 0x119 JUMPI PUSH1 0x7F DUP3 AND SWAP2 POP JUMPDEST PUSH1 0x20 DUP3 LT DUP2 SUB PUSH2 0x12C JUMPI PUSH2 0x12B PUSH2 0xD5 JUMP JUMPDEST JUMPDEST POP SWAP2 SWAP1 POP JUMP JUMPDEST PUSH0 DUP2 SWAP1 POP DUP2 PUSH0 MSTORE PUSH1 0x20 PUSH0 KECCAK256 SWAP1 POP SWAP2 SWAP1 POP JUMP JUMPDEST PUSH0 PUSH1 0x20 PUSH1 0x1F DUP4 ADD DIV SWAP1 POP SWAP2 SWAP1 POP JUMP JUMPDEST PUSH0 DUP3 DUP3 SHL SWAP1 POP SWAP3 SWAP2 POP POP JUMP JUMPDEST PUSH0 PUSH1 0x8 DUP4 MUL PUSH2 0x18E PUSH32 0xFFFFFFFFFFFFFFFFFFFFFFFFFFFFFFFFFFFFFFFFFFFFFFFFFFFFFFFFFFFFFFFF DUP3 PUSH2 0x153 JUMP JUMPDEST PUSH2 0x198 DUP7 DUP4 PUSH2 0x153 JUMP JUMPDEST SWAP6 POP DUP1 NOT DUP5 AND SWAP4 POP DUP1 DUP7 AND DUP5 OR SWAP3 POP POP POP SWAP4 SWAP3 POP POP POP JUMP JUMPDEST PUSH0 DUP2 SWAP1 POP SWAP2 SWAP1 POP JUMP JUMPDEST PUSH0 DUP2 SWAP1 POP SWAP2 SWAP1 POP JUMP JUMPDEST PUSH0 PUSH2 0x1DC PUSH2 0x1D7 PUSH2 0x1D2 DUP5 PUSH2 0x1B0 JUMP JUMPDEST PUSH2 0x1B9 JUMP JUMPDEST PUSH2 0x1B0 JUMP JUMPDEST SWAP1 POP SWAP2 SWAP1 POP JUMP JUMPDEST PUSH0 DUP2 SWAP1 POP SWAP2 SWAP1 POP JUMP JUMPDEST PUSH2 0x1F5 DUP4 PUSH2 0x1C2 JUMP JUMPDEST PUSH2 0x209 PUSH2 0x201 DUP3 PUSH2 0x1E3 JUMP JUMPDEST DUP5 DUP5 SLOAD PUSH2 0x15F JUMP JUMPDEST DUP3 SSTORE POP POP POP POP JUMP JUMPDEST PUSH0 SWAP1 JUMP JUMPDEST PUSH2 0x21D PUSH2 0x211 JUMP JUMPDEST PUSH2 0x228 DUP2 DUP5 DUP5 PUSH2 0x1EC JUMP JUMPDEST POP POP POP JUMP JUMPDEST JUMPDEST DUP2 DUP2 LT ISZERO PUSH2 0x24B JUMPI PUSH2 0x240 PUSH0 DUP3 PUSH2 0x215 JUMP JUMPDEST PUSH1 0x1 DUP2 ADD SWAP1 POP PUSH2 0x22E JUMP JUMPDEST POP POP JUMP JUMPDEST PUSH1 0x1F DUP3 GT ISZERO PUSH2 0x290 JUMPI PUSH2 0x261 DUP2 PUSH2 0x132 JUMP JUMPDEST PUSH2 0x26A DUP5 PUSH2 0x144 JUMP JUMPDEST DUP2 ADD PUSH1 0x20 DUP6 LT ISZERO PUSH2 0x279 JUMPI DUP2 SWAP1 POP JUMPDEST PUSH2 0x28D PUSH2 0x285 DUP6 PUSH2 0x144 JUMP JUMPDEST DUP4 ADD DUP3 PUSH2 0x22D JUMP JUMPDEST POP POP JUMPDEST POP POP POP JUMP JUMPDEST PUSH0 DUP3 DUP3 SHR SWAP1 POP SWAP3 SWAP2 POP POP JUMP JUMPDEST PUSH0 PUSH2 0x2B0 PUSH0 NOT DUP5 PUSH1 0x8 MUL PUSH2 0x295 JUMP JUMPDEST NOT DUP1 DUP4 AND SWAP2 POP POP SWAP3 SWAP2 POP POP JUMP JUMPDEST PUSH0 PUSH2 0x2C8 DUP4 DUP4 PUSH2 0x2A1 JUMP JUMPDEST SWAP2 POP DUP3 PUSH1 0x2 MUL DUP3 OR SWAP1 POP SWAP3 SWAP2 POP POP JUMP JUMPDEST PUSH2 0x2E1 DUP3 PUSH2 0x9E JUMP JUMPDEST PUSH8 0xFFFFFFFFFFFFFFFF DUP2 GT ISZERO PUSH2 0x2FA JUMPI PUSH2 0x2F9 PUSH2 0xA8 JUMP JUMPDEST JUMPDEST PUSH2 0x304 DUP3 SLOAD PUSH2 0x102 JUMP JUMPDEST PUSH2 0x30F DUP3 DUP3 DUP6 PUSH2 0x24F JUMP JUMPDEST PUSH0 PUSH1 0x20 SWAP1 POP PUSH1 0x1F DUP4 GT PUSH1 0x1 DUP2 EQ PUSH2 0x340 JUMPI PUSH0 DUP5 ISZERO PUSH2 0x32E JUMPI DUP3 DUP8 ADD MLOAD SWAP1 POP JUMPDEST PUSH2 0x338 DUP6 DUP3 PUSH2 0x2BD JUMP JUMPDEST DUP7 SSTORE POP PUSH2 0x39F JUMP JUMPDEST PUSH1 0x1F NOT DUP5 AND PUSH2 0x34E DUP7 PUSH2 0x132 JUMP JUMPDEST PUSH0 JUMPDEST DUP3 DUP2 LT ISZERO PUSH2 0x375 JUMPI DUP5 DUP10 ADD MLOAD DUP3 SSTORE PUSH1 0x1 DUP3 ADD SWAP2 POP PUSH1 0x20 DUP6 ADD SWAP5 POP PUSH1 0x20 DUP2 ADD SWAP1 POP PUSH2 0x350 JUMP JUMPDEST DUP7 DUP4 LT ISZERO PUSH2 0x392 JUMPI DUP5 DUP10 ADD MLOAD PUSH2 0x38E PUSH1 0x1F DUP10 AND DUP3 PUSH2 0x2A1 JUMP JUMPDEST DUP4 SSTORE POP JUMPDEST PUSH1 0x1 PUSH1 0x2 DUP9 MUL ADD DUP9 SSTORE POP POP POP JUMPDEST POP POP POP POP POP POP JUMP JUMPDEST PUSH0 DUP2 SWAP1 POP DUP2 PUSH0 MSTORE PUSH1 0x20 PUSH0 KECCAK256 SWAP1 POP SWAP2 SWAP1 POP JUMP JUMPDEST PUSH1 0x1F DUP3 GT ISZERO PUSH2 0x3FA JUMPI PUSH2 0x3CB DUP2 PUSH2 0x3A7 JUMP JUMPDEST PUSH2 0x3D4 DUP5 PUSH2 0x144 JUMP JUMPDEST DUP2 ADD PUSH1 0x20 DUP6 LT ISZERO PUSH2 0x3E3 JUMPI DUP2 SWAP1 POP JUMPDEST PUSH2 0x3F7 PUSH2 0x3EF DUP6 PUSH2 0x144 JUMP JUMPDEST DUP4 ADD DUP3 PUSH2 0x22D JUMP JUMPDEST POP POP JUMPDEST POP POP POP JUMP JUMPDEST PUSH2 0x408 DUP3 PUSH2 0x9E JUMP JUMPDEST PUSH8 0xFFFFFFFFFFFFFFFF DUP2 GT ISZERO PUSH2 0x421 JUMPI PUSH2 0x420 PUSH2 0xA8 JUMP JUMPDEST JUMPDEST PUSH2 0x42B DUP3 SLOAD PUSH2 0x102 JUMP JUMPDEST PUSH2 0x436 DUP3 DUP3 DUP6 PUSH2 0x3B9 JUMP JUMPDEST PUSH0 PUSH1 0x20 SWAP1 POP PUSH1 0x1F DUP4 GT PUSH1 0x1 DUP2 EQ PUSH2 0x467 JUMPI PUSH0 DUP5 ISZERO PUSH2 0x455 JUMPI DUP3 DUP8 ADD MLOAD SWAP1 POP JUMPDEST PUSH2 0x45F DUP6 DUP3 PUSH2 0x2BD JUMP JUMPDEST DUP7 SSTORE POP PUSH2 0x4C6 JUMP JUMPDEST PUSH1 0x1F NOT DUP5 AND PUSH2 0x475 DUP7 PUSH2 0x3A7 JUMP JUMPDEST PUSH0 JUMPDEST DUP3 DUP2 LT ISZERO PUSH2 0x49C JUMPI DUP5 DUP10 ADD MLOAD DUP3 SSTORE PUSH1 0x1 DUP3 ADD SWAP2 POP PUSH1 0x20 DUP6 ADD SWAP5 POP PUSH1 0x20 DUP2 ADD SWAP1 POP PUSH2 0x477 JUMP JUMPDEST DUP7 DUP4 LT ISZERO PUSH2 0x4B9 JUMPI DUP5 DUP10 ADD MLOAD PUSH2 0x4B5 PUSH1 0x1F DUP10 AND DUP3 PUSH2 0x2A1 JUMP JUMPDEST DUP4 SSTORE POP JUMPDEST PUSH1 0x1 PUSH1 0x2 DUP9 MUL ADD DUP9 SSTORE POP POP POP JUMPDEST POP POP POP POP POP POP JUMP JUMPDEST PUSH2 0x9FE DUP1 PUSH2 0x4DB PUSH0 CODECOPY PUSH0 RETURN INVALID PUSH1 0x80 PUSH1 0x40 MSTORE CALLVALUE DUP1 ISZERO PUSH2 0xF JUMPI PUSH0 DUP1 REVERT JUMPDEST POP PUSH1 0x4 CALLDATASIZE LT PUSH2 0x55 JUMPI PUSH0 CALLDATALOAD PUSH1 0xE0 SHR DUP1 PUSH4 0x7DA3EAE EQ PUSH2 0x59 JUMPI DUP1 PUSH4 0x492BFA18 EQ PUSH2 0x77 JUMPI DUP1 PUSH4 0x5907432D EQ PUSH2 0x95 JUMPI DUP1 PUSH4 0x82180568 EQ PUSH2 0xB1 JUMPI DUP1 PUSH4 0xE5F199B5 EQ PUSH2 0xCD JUMPI JUMPDEST PUSH0 DUP1 REVERT JUMPDEST PUSH2 0x61 PUSH2 0xEB JUMP JUMPDEST PUSH1 0x40 MLOAD PUSH2 0x6E SWAP2 SWAP1 PUSH2 0x254 JUMP JUMPDEST PUSH1 0x40 MLOAD DUP1 SWAP2 SUB SWAP1 RETURN JUMPDEST PUSH2 0x7F PUSH2 0x100 JUMP JUMPDEST PUSH1 0x40 MLOAD PUSH2 0x8C SWAP2 SWAP1 PUSH2 0x2DD JUMP JUMPDEST PUSH1 0x40 MLOAD DUP1 SWAP2 SUB SWAP1 RETURN JUMPDEST PUSH2 0xAF PUSH1 0x4 DUP1 CALLDATASIZE SUB DUP2 ADD SWAP1 PUSH2 0xAA SWAP2 SWAP1 PUSH2 0x43A JUMP JUMPDEST PUSH2 0x18B JUMP JUMPDEST STOP JUMPDEST PUSH2 0xCB PUSH1 0x4 DUP1 CALLDATASIZE SUB DUP2 ADD SWAP1 PUSH2 0xC6 SWAP2 SWAP1 PUSH2 0x51F JUMP JUMPDEST PUSH2 0x19E JUMP JUMPDEST STOP JUMPDEST PUSH2 0xD5 PUSH2 0x1B0 JUMP JUMPDEST PUSH1 0x40 MLOAD PUSH2 0xE2 SWAP2 SWAP1 PUSH2 0x5B8 JUMP JUMPDEST PUSH1 0x40 MLOAD DUP1 SWAP2 SUB SWAP1 RETURN JUMPDEST PUSH0 PUSH1 0x1 DUP1 SLOAD PUSH2 0xF9 SWAP1 PUSH2 0x605 JUMP JUMPDEST SWAP1 POP SWAP1 POP SWAP1 JUMP JUMPDEST PUSH0 DUP1 SLOAD PUSH2 0x10C SWAP1 PUSH2 0x605 JUMP JUMPDEST DUP1 PUSH1 0x1F ADD PUSH1 0x20 DUP1 SWAP2 DIV MUL PUSH1 0x20 ADD PUSH1 0x40 MLOAD SWAP1 DUP2 ADD PUSH1 0x40 MSTORE DUP1 SWAP3 SWAP2 SWAP1 DUP2 DUP2 MSTORE PUSH1 0x20 ADD DUP3 DUP1 SLOAD PUSH2 0x138 SWAP1 PUSH2 0x605 JUMP JUMPDEST DUP1 ISZERO PUSH2 0x183 JUMPI DUP1 PUSH1 0x1F LT PUSH2 0x15A JUMPI PUSH2 0x100 DUP1 DUP4 SLOAD DIV MUL DUP4 MSTORE SWAP2 PUSH1 0x20 ADD SWAP2 PUSH2 0x183 JUMP JUMPDEST DUP3 ADD SWAP2 SWAP1 PUSH0 MSTORE PUSH1 0x20 PUSH0 KECCAK256 SWAP1 JUMPDEST DUP2 SLOAD DUP2 MSTORE SWAP1 PUSH1 0x1 ADD SWAP1 PUSH1 0x20 ADD DUP1 DUP4 GT PUSH2 0x166 JUMPI DUP3 SWAP1 SUB PUSH1 0x1F AND DUP3 ADD SWAP2 JUMPDEST POP POP POP POP POP DUP2 JUMP JUMPDEST DUP1 PUSH1 0x1 SWAP1 DUP2 PUSH2 0x19A SWAP2 SWAP1 PUSH2 0x7D2 JUMP JUMPDEST POP POP JUMP JUMPDEST DUP1 PUSH0 SWAP1 DUP2 PUSH2 0x1AC SWAP2 SWAP1 PUSH2 0x8F9 JUMP JUMPDEST POP POP JUMP JUMPDEST PUSH1 0x1 DUP1 SLOAD PUSH2 0x1BD SWAP1 PUSH2 0x605 JUMP JUMPDEST DUP1 PUSH1 0x1F ADD PUSH1 0x20 DUP1 SWAP2 DIV MUL PUSH1 0x20 ADD PUSH1 0x40 MLOAD SWAP1 DUP2 ADD PUSH1 0x40 MSTORE DUP1 SWAP3 SWAP2 SWAP1 DUP2 DUP2 MSTORE PUSH1 0x20 ADD DUP3 DUP1 SLOAD PUSH2 0x1E9 SWAP1 PUSH2 0x605 JUMP JUMPDEST DUP1 ISZERO PUSH2 0x234 JUMPI DUP1 PUSH1 0x1F LT PUSH2 0x20B JUMPI PUSH2 0x100 DUP1 DUP4 SLOAD DIV MUL DUP4 MSTORE SWAP2 PUSH1 0x20 ADD SWAP2 PUSH2 0x234 JUMP JUMPDEST DUP3 ADD SWAP2 SWAP1 PUSH0 MSTORE PUSH1 0x20 PUSH0 KECCAK256 SWAP1 JUMPDEST DUP2 SLOAD DUP2 MSTORE SWAP1 PUSH1 0x1 ADD SWAP1 PUSH1 0x20 ADD DUP1 DUP4 GT PUSH2 0x217 JUMPI DUP3 SWAP1 SUB PUSH1 0x1F AND DUP3 ADD SWAP2 JUMPDEST POP POP POP POP POP DUP2 JUMP JUMPDEST PUSH0 DUP2 SWAP1 POP SWAP2 SWAP1 POP JUMP JUMPDEST PUSH2 0x24E DUP2 PUSH2 0x23C JUMP JUMPDEST DUP3 MSTORE POP POP JUMP JUMPDEST PUSH0 PUSH1 0x20 DUP3 ADD SWAP1 POP PUSH2 0x267 PUSH0 DUP4 ADD DUP5 PUSH2 0x245 JUMP JUMPDEST SWAP3 SWAP2 POP POP JUMP JUMPDEST PUSH0 DUP2 MLOAD SWAP1 POP SWAP2 SWAP1 POP JUMP JUMPDEST PUSH0 DUP3 DUP3 MSTORE PUSH1 0x20 DUP3 ADD SWAP1 POP SWAP3 SWAP2 POP POP JUMP JUMPDEST DUP3 DUP2 DUP4 MCOPY PUSH0 DUP4 DUP4 ADD MSTORE POP POP POP JUMP JUMPDEST PUSH0 PUSH1 0x1F NOT PUSH1 0x1F DUP4 ADD AND SWAP1 POP SWAP2 SWAP1 POP JUMP JUMPDEST PUSH0 PUSH2 0x2AF DUP3 PUSH2 0x26D JUMP JUMPDEST PUSH2 0x2B9 DUP2 DUP6 PUSH2 0x277 JUMP JUMPDEST SWAP4 POP PUSH2 0x2C9 DUP2 DUP6 PUSH1 0x20 DUP7 ADD PUSH2 0x287 JUMP JUMPDEST PUSH2 0x2D2 DUP2 PUSH2 0x295 JUMP JUMPDEST DUP5 ADD SWAP2 POP POP SWAP3 SWAP2 POP POP JUMP JUMPDEST PUSH0 PUSH1 0x20 DUP3 ADD SWAP1 POP DUP2 DUP2 SUB PUSH0 DUP4 ADD MSTORE PUSH2 0x2F5 DUP2 DUP5 PUSH2 0x2A5 JUMP JUMPDEST SWAP1 POP SWAP3 SWAP2 POP POP JUMP JUMPDEST PUSH0 PUSH1 0x40 MLOAD SWAP1 POP SWAP1 JUMP JUMPDEST PUSH0 DUP1 REVERT JUMPDEST PUSH0 DUP1 REVERT JUMPDEST PUSH0 DUP1 REVERT JUMPDEST PUSH0 DUP1 REVERT JUMPDEST PUSH32 0x4E487B7100000000000000000000000000000000000000000000000000000000 PUSH0 MSTORE PUSH1 0x41 PUSH1 0x4 MSTORE PUSH1 0x24 PUSH0 REVERT JUMPDEST PUSH2 0x34C DUP3 PUSH2 0x295 JUMP JUMPDEST DUP2 ADD DUP2 DUP2 LT PUSH8 0xFFFFFFFFFFFFFFFF DUP3 GT OR ISZERO PUSH2 0x36B JUMPI PUSH2 0x36A PUSH2 0x316 JUMP JUMPDEST JUMPDEST DUP1 PUSH1 0x40 MSTORE POP POP POP JUMP JUMPDEST PUSH0 PUSH2 0x37D PUSH2 0x2FD JUMP JUMPDEST SWAP1 POP PUSH2 0x389 DUP3 DUP3 PUSH2 0x343 JUMP JUMPDEST SWAP2 SWAP1 POP JUMP JUMPDEST PUSH0 PUSH8 0xFFFFFFFFFFFFFFFF DUP3 GT ISZERO PUSH2 0x3A8 JUMPI PUSH2 0x3A7 PUSH2 0x316 JUMP JUMPDEST JUMPDEST PUSH2 0x3B1 DUP3 PUSH2 0x295 JUMP JUMPDEST SWAP1 POP PUSH1 0x20 DUP2 ADD SWAP1 POP SWAP2 SWAP1 POP JUMP JUMPDEST DUP3 DUP2 DUP4 CALLDATACOPY PUSH0 DUP4 DUP4 ADD MSTORE POP POP POP JUMP JUMPDEST PUSH0 PUSH2 0x3DE PUSH2 0x3D9 DUP5 PUSH2 0x38E JUMP JUMPDEST PUSH2 0x374 JUMP JUMPDEST SWAP1 POP DUP3 DUP2 MSTORE PUSH1 0x20 DUP2 ADD DUP5 DUP5 DUP5 ADD GT ISZERO PUSH2 0x3FA JUMPI PUSH2 0x3F9 PUSH2 0x312 JUMP JUMPDEST JUMPDEST PUSH2 0x405 DUP5 DUP3 DUP6 PUSH2 0x3BE JUMP JUMPDEST POP SWAP4 SWAP3 POP POP POP JUMP JUMPDEST PUSH0 DUP3 PUSH1 0x1F DUP4 ADD SLT PUSH2 0x421 JUMPI PUSH2 0x420 PUSH2 0x30E JUMP JUMPDEST JUMPDEST DUP2 CALLDATALOAD PUSH2 0x431 DUP5 DUP3 PUSH1 0x20 DUP7 ADD PUSH2 0x3CC JUMP JUMPDEST SWAP2 POP POP SWAP3 SWAP2 POP POP JUMP JUMPDEST PUSH0 PUSH1 0x20 DUP3 DUP5 SUB SLT ISZERO PUSH2 0x44F JUMPI PUSH2 0x44E PUSH2 0x306 JUMP JUMPDEST JUMPDEST PUSH0 DUP3 ADD CALLDATALOAD PUSH8 0xFFFFFFFFFFFFFFFF DUP2 GT ISZERO PUSH2 0x46C JUMPI PUSH2 0x46B PUSH2 0x30A JUMP JUMPDEST JUMPDEST PUSH2 0x478 DUP5 DUP3 DUP6 ADD PUSH2 0x40D JUMP JUMPDEST SWAP2 POP POP SWAP3 SWAP2 POP POP JUMP JUMPDEST PUSH0 PUSH8 0xFFFFFFFFFFFFFFFF DUP3 GT ISZERO PUSH2 0x49B JUMPI PUSH2 0x49A PUSH2 0x316 JUMP JUMPDEST JUMPDEST PUSH2 0x4A4 DUP3 PUSH2 0x295 JUMP JUMPDEST SWAP1 POP PUSH1 0x20 DUP2 ADD SWAP1 POP SWAP2 SWAP1 POP JUMP JUMPDEST PUSH0 PUSH2 0x4C3 PUSH2 0x4BE DUP5 PUSH2 0x481 JUMP JUMPDEST PUSH2 0x374 JUMP JUMPDEST SWAP1 POP DUP3 DUP2 MSTORE PUSH1 0x20 DUP2 ADD DUP5 DUP5 DUP5 ADD GT ISZERO PUSH2 0x4DF JUMPI PUSH2 0x4DE PUSH2 0x312 JUMP JUMPDEST JUMPDEST PUSH2 0x4EA DUP5 DUP3 DUP6 PUSH2 0x3BE JUMP JUMPDEST POP SWAP4 SWAP3 POP POP POP JUMP JUMPDEST PUSH0 DUP3 PUSH1 0x1F DUP4 ADD SLT PUSH2 0x506 JUMPI PUSH2 0x505 PUSH2 0x30E JUMP JUMPDEST JUMPDEST DUP2 CALLDATALOAD PUSH2 0x516 DUP5 DUP3 PUSH1 0x20 DUP7 ADD PUSH2 0x4B1 JUMP JUMPDEST SWAP2 POP POP SWAP3 SWAP2 POP POP JUMP JUMPDEST PUSH0 PUSH1 0x20 DUP3 DUP5 SUB SLT ISZERO PUSH2 0x534 JUMPI PUSH2 0x533 PUSH2 0x306 JUMP JUMPDEST JUMPDEST PUSH0 DUP3 ADD CALLDATALOAD PUSH8 0xFFFFFFFFFFFFFFFF DUP2 GT ISZERO PUSH2 0x551 JUMPI PUSH2 0x550 PUSH2 0x30A JUMP JUMPDEST JUMPDEST PUSH2 0x55D DUP5 DUP3 DUP6 ADD PUSH2 0x4F2 JUMP JUMPDEST SWAP2 POP POP SWAP3 SWAP2 POP POP JUMP JUMPDEST PUSH0 DUP2 MLOAD SWAP1 POP SWAP2 SWAP1 POP JUMP JUMPDEST PUSH0 DUP3 DUP3 MSTORE PUSH1 0x20 DUP3 ADD SWAP1 POP SWAP3 SWAP2 POP POP JUMP JUMPDEST PUSH0 PUSH2 0x58A DUP3 PUSH2 0x566 JUMP JUMPDEST PUSH2 0x594 DUP2 DUP6 PUSH2 0x570 JUMP JUMPDEST SWAP4 POP PUSH2 0x5A4 DUP2 DUP6 PUSH1 0x20 DUP7 ADD PUSH2 0x287 JUMP JUMPDEST PUSH2 0x5AD DUP2 PUSH2 0x295 JUMP JUMPDEST DUP5 ADD SWAP2 POP POP SWAP3 SWAP2 POP POP JUMP JUMPDEST PUSH0 PUSH1 0x20 DUP3 ADD SWAP1 POP DUP2 DUP2 SUB PUSH0 DUP4 ADD MSTORE PUSH2 0x5D0 DUP2 DUP5 PUSH2 0x580 JUMP JUMPDEST SWAP1 POP SWAP3 SWAP2 POP POP JUMP JUMPDEST PUSH32 0x4E487B7100000000000000000000000000000000000000000000000000000000 PUSH0 MSTORE PUSH1 0x22 PUSH1 0x4 MSTORE PUSH1 0x24 PUSH0 REVERT JUMPDEST PUSH0 PUSH1 0x2 DUP3 DIV SWAP1 POP PUSH1 0x1 DUP3 AND DUP1 PUSH2 0x61C JUMPI PUSH1 0x7F DUP3 AND SWAP2 POP JUMPDEST PUSH1 0x20 DUP3 LT DUP2 SUB PUSH2 0x62F JUMPI PUSH2 0x62E PUSH2 0x5D8 JUMP JUMPDEST JUMPDEST POP SWAP2 SWAP1 POP JUMP JUMPDEST PUSH0 DUP2 SWAP1 POP DUP2 PUSH0 MSTORE PUSH1 0x20 PUSH0 KECCAK256 SWAP1 POP SWAP2 SWAP1 POP JUMP JUMPDEST PUSH0 PUSH1 0x20 PUSH1 0x1F DUP4 ADD DIV SWAP1 POP SWAP2 SWAP1 POP JUMP JUMPDEST PUSH0 DUP3 DUP3 SHL SWAP1 POP SWAP3 SWAP2 POP POP JUMP JUMPDEST PUSH0 PUSH1 0x8 DUP4 MUL PUSH2 0x691 PUSH32 0xFFFFFFFFFFFFFFFFFFFFFFFFFFFFFFFFFFFFFFFFFFFFFFFFFFFFFFFFFFFFFFFF DUP3 PUSH2 0x656 JUMP JUMPDEST PUSH2 0x69B DUP7 DUP4 PUSH2 0x656 JUMP JUMPDEST SWAP6 POP DUP1 NOT DUP5 AND SWAP4 POP DUP1 DUP7 AND DUP5 OR SWAP3 POP POP POP SWAP4 SWAP3 POP POP POP JUMP JUMPDEST PUSH0 DUP2 SWAP1 POP SWAP2 SWAP1 POP JUMP JUMPDEST PUSH0 PUSH2 0x6D6 PUSH2 0x6D1 PUSH2 0x6CC DUP5 PUSH2 0x23C JUMP JUMPDEST PUSH2 0x6B3 JUMP JUMPDEST PUSH2 0x23C JUMP JUMPDEST SWAP1 POP SWAP2 SWAP1 POP JUMP JUMPDEST PUSH0 DUP2 SWAP1 POP SWAP2 SWAP1 POP JUMP JUMPDEST PUSH2 0x6EF DUP4 PUSH2 0x6BC JUMP JUMPDEST PUSH2 0x703 PUSH2 0x6FB DUP3 PUSH2 0x6DD JUMP JUMPDEST DUP5 DUP5 SLOAD PUSH2 0x662 JUMP JUMPDEST DUP3 SSTORE POP POP POP POP JUMP JUMPDEST PUSH0 SWAP1 JUMP JUMPDEST PUSH2 0x717 PUSH2 0x70B JUMP JUMPDEST PUSH2 0x722 DUP2 DUP5 DUP5 PUSH2 0x6E6 JUMP JUMPDEST POP POP POP JUMP JUMPDEST JUMPDEST DUP2 DUP2 LT ISZERO PUSH2 0x745 JUMPI PUSH2 0x73A PUSH0 DUP3 PUSH2 0x70F JUMP JUMPDEST PUSH1 0x1 DUP2 ADD SWAP1 POP PUSH2 0x728 JUMP JUMPDEST POP POP JUMP JUMPDEST PUSH1 0x1F DUP3 GT ISZERO PUSH2 0x78A JUMPI PUSH2 0x75B DUP2 PUSH2 0x635 JUMP JUMPDEST PUSH2 0x764 DUP5 PUSH2 0x647 JUMP JUMPDEST DUP2 ADD PUSH1 0x20 DUP6 LT ISZERO PUSH2 0x773 JUMPI DUP2 SWAP1 POP JUMPDEST PUSH2 0x787 PUSH2 0x77F DUP6 PUSH2 0x647 JUMP JUMPDEST DUP4 ADD DUP3 PUSH2 0x727 JUMP JUMPDEST POP POP JUMPDEST POP POP POP JUMP JUMPDEST PUSH0 DUP3 DUP3 SHR SWAP1 POP SWAP3 SWAP2 POP POP JUMP JUMPDEST PUSH0 PUSH2 0x7AA PUSH0 NOT DUP5 PUSH1 0x8 MUL PUSH2 0x78F JUMP JUMPDEST NOT DUP1 DUP4 AND SWAP2 POP POP SWAP3 SWAP2 POP POP JUMP JUMPDEST PUSH0 PUSH2 0x7C2 DUP4 DUP4 PUSH2 0x79B JUMP JUMPDEST SWAP2 POP DUP3 PUSH1 0x2 MUL DUP3 OR SWAP1 POP SWAP3 SWAP2 POP POP JUMP JUMPDEST PUSH2 0x7DB DUP3 PUSH2 0x566 JUMP JUMPDEST PUSH8 0xFFFFFFFFFFFFFFFF DUP2 GT ISZERO PUSH2 0x7F4 JUMPI PUSH2 0x7F3 PUSH2 0x316 JUMP JUMPDEST JUMPDEST PUSH2 0x7FE DUP3 SLOAD PUSH2 0x605 JUMP JUMPDEST PUSH2 0x809 DUP3 DUP3 DUP6 PUSH2 0x749 JUMP JUMPDEST PUSH0 PUSH1 0x20 SWAP1 POP PUSH1 0x1F DUP4 GT PUSH1 0x1 DUP2 EQ PUSH2 0x83A JUMPI PUSH0 DUP5 ISZERO PUSH2 0x828 JUMPI DUP3 DUP8 ADD MLOAD SWAP1 POP JUMPDEST PUSH2 0x832 DUP6 DUP3 PUSH2 0x7B7 JUMP JUMPDEST DUP7 SSTORE POP PUSH2 0x899 JUMP JUMPDEST PUSH1 0x1F NOT DUP5 AND PUSH2 0x848 DUP7 PUSH2 0x635 JUMP JUMPDEST PUSH0 JUMPDEST DUP3 DUP2 LT ISZERO PUSH2 0x86F JUMPI DUP5 DUP10 ADD MLOAD DUP3 SSTORE PUSH1 0x1 DUP3 ADD SWAP2 POP PUSH1 0x20 DUP6 ADD SWAP5 POP PUSH1 0x20 DUP2 ADD SWAP1 POP PUSH2 0x84A JUMP JUMPDEST DUP7 DUP4 LT ISZERO PUSH2 0x88C JUMPI DUP5 DUP10 ADD MLOAD PUSH2 0x888 PUSH1 0x1F DUP10 AND DUP3 PUSH2 0x79B JUMP JUMPDEST DUP4 SSTORE POP JUMPDEST PUSH1 0x1 PUSH1 0x2 DUP9 MUL ADD DUP9 SSTORE POP POP POP JUMPDEST POP POP POP POP POP POP JUMP JUMPDEST PUSH0 DUP2 SWAP1 POP DUP2 PUSH0 MSTORE PUSH1 0x20 PUSH0 KECCAK256 SWAP1 POP SWAP2 SWAP1 POP JUMP JUMPDEST PUSH1 0x1F DUP3 GT ISZERO PUSH2 0x8F4 JUMPI PUSH2 0x8C5 DUP2 PUSH2 0x8A1 JUMP JUMPDEST PUSH2 0x8CE DUP5 PUSH2 0x647 JUMP JUMPDEST DUP2 ADD PUSH1 0x20 DUP6 LT ISZERO PUSH2 0x8DD JUMPI DUP2 SWAP1 POP JUMPDEST PUSH2 0x8F1 PUSH2 0x8E9 DUP6 PUSH2 0x647 JUMP JUMPDEST DUP4 ADD DUP3 PUSH2 0x727 JUMP JUMPDEST POP POP JUMPDEST POP POP POP JUMP JUMPDEST PUSH2 0x902 DUP3 PUSH2 0x26D JUMP JUMPDEST PUSH8 0xFFFFFFFFFFFFFFFF DUP2 GT ISZERO PUSH2 0x91B JUMPI PUSH2 0x91A PUSH2 0x316 JUMP JUMPDEST JUMPDEST PUSH2 0x925 DUP3 SLOAD PUSH2 0x605 JUMP JUMPDEST PUSH2 0x930 DUP3 DUP3 DUP6 PUSH2 0x8B3 JUMP JUMPDEST PUSH0 PUSH1 0x20 SWAP1 POP PUSH1 0x1F DUP4 GT PUSH1 0x1 DUP2 EQ PUSH2 0x961 JUMPI PUSH0 DUP5 ISZERO PUSH2 0x94F JUMPI DUP3 DUP8 ADD MLOAD SWAP1 POP JUMPDEST PUSH2 0x959 DUP6 DUP3 PUSH2 0x7B7 JUMP JUMPDEST DUP7 SSTORE POP PUSH2 0x9C0 JUMP JUMPDEST PUSH1 0x1F NOT DUP5 AND PUSH2 0x96F DUP7 PUSH2 0x8A1 JUMP JUMPDEST PUSH0 JUMPDEST DUP3 DUP2 LT ISZERO PUSH2 0x996 JUMPI DUP5 DUP10 ADD MLOAD DUP3 SSTORE PUSH1 0x1 DUP3 ADD SWAP2 POP PUSH1 0x20 DUP6 ADD SWAP5 POP PUSH1 0x20 DUP2 ADD SWAP1 POP PUSH2 0x971 JUMP JUMPDEST DUP7 DUP4 LT ISZERO PUSH2 0x9B3 JUMPI DUP5 DUP10 ADD MLOAD PUSH2 0x9AF PUSH1 0x1F DUP10 AND DUP3 PUSH2 0x79B JUMP JUMPDEST DUP4 SSTORE POP JUMPDEST PUSH1 0x1 PUSH1 0x2 DUP9 MUL ADD DUP9 SSTORE POP POP POP JUMPDEST POP POP POP POP POP POP JUMP INVALID LOG2 PUSH5 0x6970667358 0x22 SLT KECCAK256 PUSH22 0xF61453C6818672F0532D6B9CEB82F757DF1DAB826FB8 CALLDATACOPY 0x2D PUSH30 0x301BA19D870664736F6C634300081A003300000000000000000000000000 "
		},
		"gasEstimates": {
			"creation": {
				"codeDepositCost": "511600",
				"executionCost": "infinite",
				"totalCost": "infinite"
			},
			"external": {
				"getBytesLength()": "2542",
				"myByte()": "infinite",
				"myString()": "infinite",
				"setMyBytes(bytes)": "infinite",
				"setMyString(string)": "infinite"
			}
		},
		"methodIdentifiers": {
			"getBytesLength()": "07da3eae",
			"myByte()": "e5f199b5",
			"myString()": "492bfa18",
			"setMyBytes(bytes)": "5907432d",
			"setMyString(string)": "82180568"
		}
	},
	"abi": [
		{
			"inputs": [],
			"name": "getBytesLength",
			"outputs": [
				{
					"internalType": "uint256",
					"name": "",
					"type": "uint256"
				}
			],
			"stateMutability": "view",
			"type": "function"
		},
		{
			"inputs": [],
			"name": "myByte",
			"outputs": [
				{
					"internalType": "bytes",
					"name": "",
					"type": "bytes"
				}
			],
			"stateMutability": "view",
			"type": "function"
		},
		{
			"inputs": [],
			"name": "myString",
			"outputs": [
				{
					"internalType": "string",
					"name": "",
					"type": "string"
				}
			],
			"stateMutability": "view",
			"type": "function"
		},
		{
			"inputs": [
				{
					"internalType": "bytes",
					"name": "_myByte",
					"type": "bytes"
				}
			],
			"name": "setMyBytes",
			"outputs": [],
			"stateMutability": "nonpayable",
			"type": "function"
		},
		{
			"inputs": [
				{
					"internalType": "string",
					"name": "_myString",
					"type": "string"
				}
			],
			"name": "setMyString",
			"outputs": [],
			"stateMutability": "nonpayable",
			"type": "function"
		}
	]
}