{
	"data": {
		"bytecode": {
			"linkReferences": {},
			"object": "6080604052348015600e575f80fd5b506101eb8061001c5f395ff3fe608060405234801561000f575f80fd5b506004361061003f575f3560e01c80631054217614610043578063f102a71d14610061578063fea09d841461006b575b5f80fd5b61004b610089565b60405161005891906100f5565b60405180910390f35b61006961008f565b005b6100736100cd565b6040516100809190610128565b60405180910390f35b60015481565b60015f8154809291906100a19061016e565b9190505550600a60015411156100cb5760015f806101000a81548160ff0219169083151502179055505b565b5f8054906101000a900460ff1681565b5f819050919050565b6100ef816100dd565b82525050565b5f6020820190506101085f8301846100e6565b92915050565b5f8115159050919050565b6101228161010e565b82525050565b5f60208201905061013b5f830184610119565b92915050565b7f4e487b71000000000000000000000000000000000000000000000000000000005f52601160045260245ffd5b5f610178826100dd565b91507fffffffffffffffffffffffffffffffffffffffffffffffffffffffffffffffff82036101aa576101a9610141565b5b60018201905091905056fea2646970667358221220166743c7a72b981fde6e98b766f47d2efe9df1fa78bfe2132ea3ae284865326064736f6c634300081a0033",
			"opcodes": "PUSH1 0x80 PUSH1 0x40 MSTORE CALLVALUE DUP1 ISZERO PUSH1 0xE JUMPI PUSH0 DUP1 REVERT JUMPDEST POP PUSH2 0x1EB DUP1 PUSH2 0x1C PUSH0 CODECOPY PUSH0 RETURN INVALID PUSH1 0x80 PUSH1 0x40 MSTORE CALLVALUE DUP1 ISZERO PUSH2 0xF JUMPI PUSH0 DUP1 REVERT JUMPDEST POP PUSH1 0x4 CALLDATASIZE LT PUSH2 0x3F JUMPI PUSH0 CALLDATALOAD PUSH1 0xE0 SHR DUP1 PUSH4 0x10542176 EQ PUSH2 0x43 JUMPI DUP1 PUSH4 0xF102A71D EQ PUSH2 0x61 JUMPI DUP1 PUSH4 0xFEA09D84 EQ PUSH2 0x6B JUMPI JUMPDEST PUSH0 DUP1 REVERT JUMPDEST PUSH2 0x4B PUSH2 0x89 JUMP JUMPDEST PUSH1 0x40 MLOAD PUSH2 0x58 SWAP2 SWAP1 PUSH2 0xF5 JUMP JUMPDEST PUSH1 0x40 MLOAD DUP1 SWAP2 SUB SWAP1 RETURN JUMPDEST PUSH2 0x69 PUSH2 0x8F JUMP JUMPDEST STOP JUMPDEST PUSH2 0x73 PUSH2 0xCD JUMP JUMPDEST PUSH1 0x40 MLOAD PUSH2 0x80 SWAP2 SWAP1 PUSH2 0x128 JUMP JUMPDEST PUSH1 0x40 MLOAD DUP1 SWAP2 SUB SWAP1 RETURN JUMPDEST PUSH1 0x1 SLOAD DUP2 JUMP JUMPDEST PUSH1 0x1 PUSH0 DUP2 SLOAD DUP1 SWAP3 SWAP2 SWAP1 PUSH2 0xA1 SWAP1 PUSH2 0x16E JUMP JUMPDEST SWAP2 SWAP1 POP SSTORE POP PUSH1 0xA PUSH1 0x1 SLOAD GT ISZERO PUSH2 0xCB JUMPI PUSH1 0x1 PUSH0 DUP1 PUSH2 0x100 EXP DUP2 SLOAD DUP2 PUSH1 0xFF MUL NOT AND SWAP1 DUP4 ISZERO ISZERO MUL OR SWAP1 SSTORE POP JUMPDEST JUMP JUMPDEST PUSH0 DUP1 SLOAD SWAP1 PUSH2 0x100 EXP SWAP1 DIV PUSH1 0xFF AND DUP2 JUMP JUMPDEST PUSH0 DUP2 SWAP1 POP SWAP2 SWAP1 POP JUMP JUMPDEST PUSH2 0xEF DUP2 PUSH2 0xDD JUMP JUMPDEST DUP3 MSTORE POP POP JUMP JUMPDEST PUSH0 PUSH1 0x20 DUP3 ADD SWAP1 POP PUSH2 0x108 PUSH0 DUP4 ADD DUP5 PUSH2 0xE6 JUMP JUMPDEST SWAP3 SWAP2 POP POP JUMP JUMPDEST PUSH0 DUP2 ISZERO ISZERO SWAP1 POP SWAP2 SWAP1 POP JUMP JUMPDEST PUSH2 0x122 DUP2 PUSH2 0x10E JUMP JUMPDEST DUP3 MSTORE POP POP JUMP JUMPDEST PUSH0 PUSH1 0x20 DUP3 ADD SWAP1 POP PUSH2 0x13B PUSH0 DUP4 ADD DUP5 PUSH2 0x119 JUMP JUMPDEST SWAP3 SWAP2 POP POP JUMP JUMPDEST PUSH32 0x4E487B7100000000000000000000000000000000000000000000000000000000 PUSH0 MSTORE PUSH1 0x11 PUSH1 0x4 MSTORE PUSH1 0x24 PUSH0 REVERT JUMPDEST PUSH0 PUSH2 0x178 DUP3 PUSH2 0xDD JUMP JUMPDEST SWAP2 POP PUSH32 0xFFFFFFFFFFFFFFFFFFFFFFFFFFFFFFFFFFFFFFFFFFFFFFFFFFFFFFFFFFFFFFFF DUP3 SUB PUSH2 0x1AA JUMPI PUSH2 0x1A9 PUSH2 0x141 JUMP JUMPDEST JUMPDEST PUSH1 0x1 DUP3 ADD SWAP1 POP SWAP2 SWAP1 POP JUMP INVALID LOG2 PUSH5 0x6970667358 0x22 SLT KECCAK256 AND PUSH8 0x43C7A72B981FDE6E SWAP9 0xB7 PUSH7 0xF47D2EFE9DF1FA PUSH25 0xBFE2132EA3AE284865326064736F6C634300081A0033000000 "
		},
		"gasEstimates": {
			"creation": {
				"codeDepositCost": "98200",
				"executionCost": "145",
				"totalCost": "98345"
			},
			"external": {
				"MyBoolean()": "2485",
				"MyUint()": "2403",
				"incrementInt()": "50889"
			}
		},
		"methodIdentifiers": {
			"MyBoolean()": "fea09d84",
			"MyUint()": "10542176",
			"incrementInt()": "f102a71d"
		}
	},
	"abi": [
		{
			"inputs": [],
			"name": "MyBoolean",
			"outputs": [
				{
					"internalType": "bool",
					"name": "",
					"type": "bool"
				}
			],
			"stateMutability": "view",
			"type": "function"
		},
		{
			"inputs": [],
			"name": "MyUint",
			"outputs": [
				{
					"internalType": "uint256",
					"name": "",
					"type": "uint256"
				}
			],
			"stateMutability": "view",
			"type": "function"
		},
		{
			"inputs": [],
			"name": "incrementInt",
			"outputs": [],
			"stateMutability": "nonpayable",
			"type": "function"
		}
	]
}